{
	"contracts/storageFactory.sol": {
		"storageFactory": {
			"abi": [
				{
					"inputs": [],
					"name": "createSimpleStorageContract",
					"outputs": [],
					"stateMutability": "nonpayable",
					"type": "function"
				},
				{
					"inputs": [
						{
							"internalType": "uint256",
							"name": "",
							"type": "uint256"
						}
					],
					"name": "listOfSimpleStorageContracts",
					"outputs": [
						{
							"internalType": "contract SimpleStorage",
							"name": "",
							"type": "address"
						}
					],
					"stateMutability": "view",
					"type": "function"
				},
				{
					"inputs": [
						{
							"internalType": "uint256",
							"name": "_simpleStorageIndex",
							"type": "uint256"
						}
					],
					"name": "sfGet",
					"outputs": [
						{
							"internalType": "uint256[]",
							"name": "",
							"type": "uint256[]"
						}
					],
					"stateMutability": "view",
					"type": "function"
				},
				{
					"inputs": [
						{
							"internalType": "uint256",
							"name": "_simpleStorageIndex",
							"type": "uint256"
						},
						{
							"internalType": "uint256[]",
							"name": "_newSimpleStorageNumber",
							"type": "uint256[]"
						}
					],
					"name": "sfStore",
					"outputs": [],
					"stateMutability": "nonpayable",
					"type": "function"
				}
			],
			"devdoc": {
				"kind": "dev",
				"methods": {},
				"version": 1
			},
			"evm": {
				"assembly": "    /* \"contracts/storageFactory.sol\":110:1050  contract storageFactory {... */\n  mstore(0x40, 0x80)\n  callvalue\n  dup1\n  iszero\n  tag_1\n  jumpi\n  revert(0x00, 0x00)\ntag_1:\n  pop\n  dataSize(sub_0)\n  dup1\n  dataOffset(sub_0)\n  0x00\n  codecopy\n  0x00\n  return\nstop\n\nsub_0: assembly {\n        /* \"contracts/storageFactory.sol\":110:1050  contract storageFactory {... */\n      mstore(0x40, 0x80)\n      callvalue\n      dup1\n      iszero\n      tag_1\n      jumpi\n      revert(0x00, 0x00)\n    tag_1:\n      pop\n      jumpi(tag_2, lt(calldatasize, 0x04))\n      shr(0xe0, calldataload(0x00))\n      dup1\n      0x1dda6541\n      eq\n      tag_3\n      jumpi\n      dup1\n      0x4a999e67\n      eq\n      tag_4\n      jumpi\n      dup1\n      0xc5f19c20\n      eq\n      tag_5\n      jumpi\n      dup1\n      0xf39f3035\n      eq\n      tag_6\n      jumpi\n    tag_2:\n      revert(0x00, 0x00)\n        /* \"contracts/storageFactory.sol\":229:423  function createSimpleStorageContract() public {... */\n    tag_3:\n      tag_7\n      tag_8\n      jump\t// in\n    tag_7:\n      stop\n        /* \"contracts/storageFactory.sol\":429:823  function sfStore(... */\n    tag_4:\n      tag_9\n      0x04\n      dup1\n      calldatasize\n      sub\n      dup2\n      add\n      swap1\n      tag_10\n      swap2\n      swap1\n      tag_11\n      jump\t// in\n    tag_10:\n      tag_12\n      jump\t// in\n    tag_9:\n      stop\n        /* \"contracts/storageFactory.sol\":828:1048  function sfGet(uint256 _simpleStorageIndex) public view returns (uint256[] memory) {... */\n    tag_5:\n      tag_13\n      0x04\n      dup1\n      calldatasize\n      sub\n      dup2\n      add\n      swap1\n      tag_14\n      swap2\n      swap1\n      tag_15\n      jump\t// in\n    tag_14:\n      tag_16\n      jump\t// in\n    tag_13:\n      mload(0x40)\n      tag_17\n      swap2\n      swap1\n      tag_18\n      jump\t// in\n    tag_17:\n      mload(0x40)\n      dup1\n      swap2\n      sub\n      swap1\n      return\n        /* \"contracts/storageFactory.sol\":140:191  SimpleStorage[] public listOfSimpleStorageContracts */\n    tag_6:\n      tag_19\n      0x04\n      dup1\n      calldatasize\n      sub\n      dup2\n      add\n      swap1\n      tag_20\n      swap2\n      swap1\n      tag_15\n      jump\t// in\n    tag_20:\n      tag_21\n      jump\t// in\n    tag_19:\n      mload(0x40)\n      tag_22\n      swap2\n      swap1\n      tag_23\n      jump\t// in\n    tag_22:\n      mload(0x40)\n      dup1\n      swap2\n      sub\n      swap1\n      return\n        /* \"contracts/storageFactory.sol\":229:423  function createSimpleStorageContract() public {... */\n    tag_8:\n        /* \"contracts/storageFactory.sol\":285:324  SimpleStorage newSimplestorageContracts */\n      0x00\n        /* \"contracts/storageFactory.sol\":327:346  new SimpleStorage() */\n      mload(0x40)\n      tag_25\n      swap1\n      tag_26\n      jump\t// in\n    tag_25:\n      mload(0x40)\n      dup1\n      swap2\n      sub\n      swap1\n      0x00\n      create\n      dup1\n      iszero\n      dup1\n      iszero\n      tag_27\n      jumpi\n      returndatacopy(0x00, 0x00, returndatasize)\n      revert(0x00, returndatasize)\n    tag_27:\n      pop\n        /* \"contracts/storageFactory.sol\":285:346  SimpleStorage newSimplestorageContracts = new SimpleStorage() */\n      swap1\n      pop\n        /* \"contracts/storageFactory.sol\":356:384  listOfSimpleStorageContracts */\n      0x00\n        /* \"contracts/storageFactory.sol\":390:415  newSimplestorageContracts */\n      dup2\n        /* \"contracts/storageFactory.sol\":356:416  listOfSimpleStorageContracts.push(newSimplestorageContracts) */\n      swap1\n      dup1\n      0x01\n      dup2\n      sload\n      add\n      dup1\n      dup3\n      sstore\n      dup1\n      swap2\n      pop\n      pop\n      0x01\n      swap1\n      sub\n      swap1\n      0x00\n      mstore\n      keccak256(0x00, 0x20)\n      add\n      0x00\n      swap1\n      swap2\n      swap1\n      swap2\n      swap1\n      swap2\n      0x0100\n      exp\n      dup2\n      sload\n      dup2\n      0xffffffffffffffffffffffffffffffffffffffff\n      mul\n      not\n      and\n      swap1\n      dup4\n      0xffffffffffffffffffffffffffffffffffffffff\n      and\n      mul\n      or\n      swap1\n      sstore\n      pop\n        /* \"contracts/storageFactory.sol\":275:423  {... */\n      pop\n        /* \"contracts/storageFactory.sol\":229:423  function createSimpleStorageContract() public {... */\n      jump\t// out\n        /* \"contracts/storageFactory.sol\":429:823  function sfStore(... */\n    tag_12:\n        /* \"contracts/storageFactory.sol\":620:647  SimpleStorage simpleStorage */\n      0x00\n        /* \"contracts/storageFactory.sol\":650:678  listOfSimpleStorageContracts */\n      0x00\n        /* \"contracts/storageFactory.sol\":692:711  _simpleStorageIndex */\n      dup4\n        /* \"contracts/storageFactory.sol\":650:721  listOfSimpleStorageContracts[... */\n      dup2\n      sload\n      dup2\n      lt\n      tag_30\n      jumpi\n      tag_31\n      tag_32\n      jump\t// in\n    tag_31:\n    tag_30:\n      swap1\n      0x00\n      mstore\n      keccak256(0x00, 0x20)\n      add\n      0x00\n      swap1\n      sload\n      swap1\n      0x0100\n      exp\n      swap1\n      div\n      0xffffffffffffffffffffffffffffffffffffffff\n      and\n        /* \"contracts/storageFactory.sol\":620:721  SimpleStorage simpleStorage = listOfSimpleStorageContracts[... */\n      swap1\n      pop\n        /* \"contracts/storageFactory.sol\":748:771  _newSimpleStorageNumber */\n      dup2\n        /* \"contracts/storageFactory.sol\":731:745  arrayOfNumbers */\n      0x01\n        /* \"contracts/storageFactory.sol\":731:771  arrayOfNumbers = _newSimpleStorageNumber */\n      swap1\n      dup1\n      mload\n      swap1\n      0x20\n      add\n      swap1\n      tag_34\n      swap3\n      swap2\n      swap1\n      tag_35\n      jump\t// in\n    tag_34:\n      pop\n        /* \"contracts/storageFactory.sol\":781:794  simpleStorage */\n      dup1\n        /* \"contracts/storageFactory.sol\":781:800  simpleStorage.store */\n      0xffffffffffffffffffffffffffffffffffffffff\n      and\n      0x06bd010d\n        /* \"contracts/storageFactory.sol\":801:815  arrayOfNumbers */\n      0x01\n        /* \"contracts/storageFactory.sol\":781:816  simpleStorage.store(arrayOfNumbers) */\n      mload(0x40)\n      dup3\n      0xffffffff\n      and\n      0xe0\n      shl\n      dup2\n      mstore\n      0x04\n      add\n      tag_36\n      swap2\n      swap1\n      tag_37\n      jump\t// in\n    tag_36:\n      0x00\n      mload(0x40)\n      dup1\n      dup4\n      sub\n      dup2\n      0x00\n      dup8\n      dup1\n      extcodesize\n      iszero\n      dup1\n      iszero\n      tag_38\n      jumpi\n      revert(0x00, 0x00)\n    tag_38:\n      pop\n      gas\n      call\n      iszero\n      dup1\n      iszero\n      tag_40\n      jumpi\n      returndatacopy(0x00, 0x00, returndatasize)\n      revert(0x00, returndatasize)\n    tag_40:\n      pop\n      pop\n      pop\n      pop\n        /* \"contracts/storageFactory.sol\":546:823  {... */\n      pop\n        /* \"contracts/storageFactory.sol\":429:823  function sfStore(... */\n      pop\n      pop\n      jump\t// out\n        /* \"contracts/storageFactory.sol\":828:1048  function sfGet(uint256 _simpleStorageIndex) public view returns (uint256[] memory) {... */\n    tag_16:\n        /* \"contracts/storageFactory.sol\":893:909  uint256[] memory */\n      0x60\n        /* \"contracts/storageFactory.sol\":921:948  SimpleStorage simpleStorage */\n      0x00\n        /* \"contracts/storageFactory.sol\":951:979  listOfSimpleStorageContracts */\n      0x00\n        /* \"contracts/storageFactory.sol\":980:999  _simpleStorageIndex */\n      dup4\n        /* \"contracts/storageFactory.sol\":951:1000  listOfSimpleStorageContracts[_simpleStorageIndex] */\n      dup2\n      sload\n      dup2\n      lt\n      tag_42\n      jumpi\n      tag_43\n      tag_32\n      jump\t// in\n    tag_43:\n    tag_42:\n      swap1\n      0x00\n      mstore\n      keccak256(0x00, 0x20)\n      add\n      0x00\n      swap1\n      sload\n      swap1\n      0x0100\n      exp\n      swap1\n      div\n      0xffffffffffffffffffffffffffffffffffffffff\n      and\n        /* \"contracts/storageFactory.sol\":921:1000  SimpleStorage simpleStorage = listOfSimpleStorageContracts[_simpleStorageIndex] */\n      swap1\n      pop\n        /* \"contracts/storageFactory.sol\":1017:1030  simpleStorage */\n      dup1\n        /* \"contracts/storageFactory.sol\":1017:1039  simpleStorage.retrieve */\n      0xffffffffffffffffffffffffffffffffffffffff\n      and\n      0x2e64cec1\n        /* \"contracts/storageFactory.sol\":1017:1041  simpleStorage.retrieve() */\n      mload(0x40)\n      dup2\n      0xffffffff\n      and\n      0xe0\n      shl\n      dup2\n      mstore\n      0x04\n      add\n      0x00\n      mload(0x40)\n      dup1\n      dup4\n      sub\n      dup2\n      dup7\n      gas\n      staticcall\n      iszero\n      dup1\n      iszero\n      tag_46\n      jumpi\n      returndatacopy(0x00, 0x00, returndatasize)\n      revert(0x00, returndatasize)\n    tag_46:\n      pop\n      pop\n      pop\n      pop\n      mload(0x40)\n      returndatasize\n      0x00\n      dup3\n      returndatacopy\n      returndatasize\n      not(0x1f)\n      0x1f\n      dup3\n      add\n      and\n      dup3\n      add\n      dup1\n      0x40\n      mstore\n      pop\n      dup2\n      add\n      swap1\n      tag_47\n      swap2\n      swap1\n      tag_48\n      jump\t// in\n    tag_47:\n        /* \"contracts/storageFactory.sol\":1010:1041  return simpleStorage.retrieve() */\n      swap2\n      pop\n      pop\n        /* \"contracts/storageFactory.sol\":828:1048  function sfGet(uint256 _simpleStorageIndex) public view returns (uint256[] memory) {... */\n      swap2\n      swap1\n      pop\n      jump\t// out\n        /* \"contracts/storageFactory.sol\":140:191  SimpleStorage[] public listOfSimpleStorageContracts */\n    tag_21:\n      0x00\n      dup2\n      dup2\n      sload\n      dup2\n      lt\n      tag_49\n      jumpi\n      0x00\n      dup1\n      revert\n    tag_49:\n      swap1\n      0x00\n      mstore\n      keccak256(0x00, 0x20)\n      add\n      0x00\n      swap2\n      pop\n      sload\n      swap1\n      0x0100\n      exp\n      swap1\n      div\n      0xffffffffffffffffffffffffffffffffffffffff\n      and\n      dup2\n      jump\t// out\n    tag_26:\n      dataSize(sub_0)\n      dup1\n      dataOffset(sub_0)\n      dup4\n      codecopy\n      add\n      swap1\n      jump\t// out\n    tag_35:\n      dup3\n      dup1\n      sload\n      dup3\n      dup3\n      sstore\n      swap1\n      0x00\n      mstore\n      keccak256(0x00, 0x20)\n      swap1\n      dup2\n      add\n      swap3\n      dup3\n      iszero\n      tag_51\n      jumpi\n      swap2\n      0x20\n      mul\n      dup3\n      add\n    tag_52:\n      dup3\n      dup2\n      gt\n      iszero\n      tag_53\n      jumpi\n      dup3\n      mload\n      dup3\n      sstore\n      swap2\n      0x20\n      add\n      swap2\n      swap1\n      0x01\n      add\n      swap1\n      jump(tag_52)\n    tag_53:\n    tag_51:\n      pop\n      swap1\n      pop\n      tag_54\n      swap2\n      swap1\n      tag_55\n      jump\t// in\n    tag_54:\n      pop\n      swap1\n      jump\t// out\n    tag_55:\n    tag_56:\n      dup1\n      dup3\n      gt\n      iszero\n      tag_57\n      jumpi\n      0x00\n      dup2\n      0x00\n      swap1\n      sstore\n      pop\n      0x01\n      add\n      jump(tag_56)\n    tag_57:\n      pop\n      swap1\n      jump\t// out\n        /* \"#utility.yul\":7:82   */\n    tag_58:\n        /* \"#utility.yul\":40:46   */\n      0x00\n        /* \"#utility.yul\":73:75   */\n      0x40\n        /* \"#utility.yul\":67:76   */\n      mload\n        /* \"#utility.yul\":57:76   */\n      swap1\n      pop\n        /* \"#utility.yul\":7:82   */\n      swap1\n      jump\t// out\n        /* \"#utility.yul\":88:205   */\n    tag_59:\n        /* \"#utility.yul\":197:198   */\n      0x00\n        /* \"#utility.yul\":194:195   */\n      0x00\n        /* \"#utility.yul\":187:199   */\n      revert\n        /* \"#utility.yul\":211:328   */\n    tag_60:\n        /* \"#utility.yul\":320:321   */\n      0x00\n        /* \"#utility.yul\":317:318   */\n      0x00\n        /* \"#utility.yul\":310:322   */\n      revert\n        /* \"#utility.yul\":334:411   */\n    tag_61:\n        /* \"#utility.yul\":371:378   */\n      0x00\n        /* \"#utility.yul\":400:405   */\n      dup2\n        /* \"#utility.yul\":389:405   */\n      swap1\n      pop\n        /* \"#utility.yul\":334:411   */\n      swap2\n      swap1\n      pop\n      jump\t// out\n        /* \"#utility.yul\":417:539   */\n    tag_62:\n        /* \"#utility.yul\":490:514   */\n      tag_103\n        /* \"#utility.yul\":508:513   */\n      dup2\n        /* \"#utility.yul\":490:514   */\n      tag_61\n      jump\t// in\n    tag_103:\n        /* \"#utility.yul\":483:488   */\n      dup2\n        /* \"#utility.yul\":480:515   */\n      eq\n        /* \"#utility.yul\":470:533   */\n      tag_104\n      jumpi\n        /* \"#utility.yul\":529:530   */\n      0x00\n        /* \"#utility.yul\":526:527   */\n      0x00\n        /* \"#utility.yul\":519:531   */\n      revert\n        /* \"#utility.yul\":470:533   */\n    tag_104:\n        /* \"#utility.yul\":417:539   */\n      pop\n      jump\t// out\n        /* \"#utility.yul\":545:684   */\n    tag_63:\n        /* \"#utility.yul\":591:596   */\n      0x00\n        /* \"#utility.yul\":629:635   */\n      dup2\n        /* \"#utility.yul\":616:636   */\n      calldataload\n        /* \"#utility.yul\":607:636   */\n      swap1\n      pop\n        /* \"#utility.yul\":645:678   */\n      tag_106\n        /* \"#utility.yul\":672:677   */\n      dup2\n        /* \"#utility.yul\":645:678   */\n      tag_62\n      jump\t// in\n    tag_106:\n        /* \"#utility.yul\":545:684   */\n      swap3\n      swap2\n      pop\n      pop\n      jump\t// out\n        /* \"#utility.yul\":690:807   */\n    tag_64:\n        /* \"#utility.yul\":799:800   */\n      0x00\n        /* \"#utility.yul\":796:797   */\n      0x00\n        /* \"#utility.yul\":789:801   */\n      revert\n        /* \"#utility.yul\":813:915   */\n    tag_65:\n        /* \"#utility.yul\":854:860   */\n      0x00\n        /* \"#utility.yul\":905:907   */\n      0x1f\n        /* \"#utility.yul\":901:908   */\n      not\n        /* \"#utility.yul\":896:898   */\n      0x1f\n        /* \"#utility.yul\":889:894   */\n      dup4\n        /* \"#utility.yul\":885:899   */\n      add\n        /* \"#utility.yul\":881:909   */\n      and\n        /* \"#utility.yul\":871:909   */\n      swap1\n      pop\n        /* \"#utility.yul\":813:915   */\n      swap2\n      swap1\n      pop\n      jump\t// out\n        /* \"#utility.yul\":921:1101   */\n    tag_66:\n        /* \"#utility.yul\":969:1046   */\n      0x4e487b7100000000000000000000000000000000000000000000000000000000\n        /* \"#utility.yul\":966:967   */\n      0x00\n        /* \"#utility.yul\":959:1047   */\n      mstore\n        /* \"#utility.yul\":1066:1070   */\n      0x41\n        /* \"#utility.yul\":1063:1064   */\n      0x04\n        /* \"#utility.yul\":1056:1071   */\n      mstore\n        /* \"#utility.yul\":1090:1094   */\n      0x24\n        /* \"#utility.yul\":1087:1088   */\n      0x00\n        /* \"#utility.yul\":1080:1095   */\n      revert\n        /* \"#utility.yul\":1107:1388   */\n    tag_67:\n        /* \"#utility.yul\":1190:1217   */\n      tag_111\n        /* \"#utility.yul\":1212:1216   */\n      dup3\n        /* \"#utility.yul\":1190:1217   */\n      tag_65\n      jump\t// in\n    tag_111:\n        /* \"#utility.yul\":1182:1188   */\n      dup2\n        /* \"#utility.yul\":1178:1218   */\n      add\n        /* \"#utility.yul\":1320:1326   */\n      dup2\n        /* \"#utility.yul\":1308:1318   */\n      dup2\n        /* \"#utility.yul\":1305:1327   */\n      lt\n        /* \"#utility.yul\":1284:1302   */\n      0xffffffffffffffff\n        /* \"#utility.yul\":1272:1282   */\n      dup3\n        /* \"#utility.yul\":1269:1303   */\n      gt\n        /* \"#utility.yul\":1266:1328   */\n      or\n        /* \"#utility.yul\":1263:1351   */\n      iszero\n      tag_112\n      jumpi\n        /* \"#utility.yul\":1331:1349   */\n      tag_113\n      tag_66\n      jump\t// in\n    tag_113:\n        /* \"#utility.yul\":1263:1351   */\n    tag_112:\n        /* \"#utility.yul\":1371:1381   */\n      dup1\n        /* \"#utility.yul\":1367:1369   */\n      0x40\n        /* \"#utility.yul\":1360:1382   */\n      mstore\n        /* \"#utility.yul\":1150:1388   */\n      pop\n        /* \"#utility.yul\":1107:1388   */\n      pop\n      pop\n      jump\t// out\n        /* \"#utility.yul\":1394:1523   */\n    tag_68:\n        /* \"#utility.yul\":1428:1434   */\n      0x00\n        /* \"#utility.yul\":1455:1475   */\n      tag_115\n      tag_58\n      jump\t// in\n    tag_115:\n        /* \"#utility.yul\":1445:1475   */\n      swap1\n      pop\n        /* \"#utility.yul\":1484:1517   */\n      tag_116\n        /* \"#utility.yul\":1512:1516   */\n      dup3\n        /* \"#utility.yul\":1504:1510   */\n      dup3\n        /* \"#utility.yul\":1484:1517   */\n      tag_67\n      jump\t// in\n    tag_116:\n        /* \"#utility.yul\":1394:1523   */\n      swap2\n      swap1\n      pop\n      jump\t// out\n        /* \"#utility.yul\":1529:1840   */\n    tag_69:\n        /* \"#utility.yul\":1606:1610   */\n      0x00\n        /* \"#utility.yul\":1696:1714   */\n      0xffffffffffffffff\n        /* \"#utility.yul\":1688:1694   */\n      dup3\n        /* \"#utility.yul\":1685:1715   */\n      gt\n        /* \"#utility.yul\":1682:1738   */\n      iszero\n      tag_118\n      jumpi\n        /* \"#utility.yul\":1718:1736   */\n      tag_119\n      tag_66\n      jump\t// in\n    tag_119:\n        /* \"#utility.yul\":1682:1738   */\n    tag_118:\n        /* \"#utility.yul\":1768:1772   */\n      0x20\n        /* \"#utility.yul\":1760:1766   */\n      dup3\n        /* \"#utility.yul\":1756:1773   */\n      mul\n        /* \"#utility.yul\":1748:1773   */\n      swap1\n      pop\n        /* \"#utility.yul\":1828:1832   */\n      0x20\n        /* \"#utility.yul\":1822:1826   */\n      dup2\n        /* \"#utility.yul\":1818:1833   */\n      add\n        /* \"#utility.yul\":1810:1833   */\n      swap1\n      pop\n        /* \"#utility.yul\":1529:1840   */\n      swap2\n      swap1\n      pop\n      jump\t// out\n        /* \"#utility.yul\":1846:1963   */\n    tag_70:\n        /* \"#utility.yul\":1955:1956   */\n      0x00\n        /* \"#utility.yul\":1952:1953   */\n      0x00\n        /* \"#utility.yul\":1945:1957   */\n      revert\n        /* \"#utility.yul\":1986:2696   */\n    tag_71:\n        /* \"#utility.yul\":2082:2087   */\n      0x00\n        /* \"#utility.yul\":2107:2188   */\n      tag_122\n        /* \"#utility.yul\":2123:2187   */\n      tag_123\n        /* \"#utility.yul\":2180:2186   */\n      dup5\n        /* \"#utility.yul\":2123:2187   */\n      tag_69\n      jump\t// in\n    tag_123:\n        /* \"#utility.yul\":2107:2188   */\n      tag_68\n      jump\t// in\n    tag_122:\n        /* \"#utility.yul\":2098:2188   */\n      swap1\n      pop\n        /* \"#utility.yul\":2208:2213   */\n      dup1\n        /* \"#utility.yul\":2237:2243   */\n      dup4\n        /* \"#utility.yul\":2230:2235   */\n      dup3\n        /* \"#utility.yul\":2223:2244   */\n      mstore\n        /* \"#utility.yul\":2271:2275   */\n      0x20\n        /* \"#utility.yul\":2264:2269   */\n      dup3\n        /* \"#utility.yul\":2260:2276   */\n      add\n        /* \"#utility.yul\":2253:2276   */\n      swap1\n      pop\n        /* \"#utility.yul\":2324:2328   */\n      0x20\n        /* \"#utility.yul\":2316:2322   */\n      dup5\n        /* \"#utility.yul\":2312:2329   */\n      mul\n        /* \"#utility.yul\":2304:2310   */\n      dup4\n        /* \"#utility.yul\":2300:2330   */\n      add\n        /* \"#utility.yul\":2353:2356   */\n      dup6\n        /* \"#utility.yul\":2345:2351   */\n      dup2\n        /* \"#utility.yul\":2342:2357   */\n      gt\n        /* \"#utility.yul\":2339:2461   */\n      iszero\n      tag_124\n      jumpi\n        /* \"#utility.yul\":2372:2451   */\n      tag_125\n      tag_70\n      jump\t// in\n    tag_125:\n        /* \"#utility.yul\":2339:2461   */\n    tag_124:\n        /* \"#utility.yul\":2487:2493   */\n      dup4\n        /* \"#utility.yul\":2470:2690   */\n    tag_126:\n        /* \"#utility.yul\":2504:2510   */\n      dup2\n        /* \"#utility.yul\":2499:2502   */\n      dup2\n        /* \"#utility.yul\":2496:2511   */\n      lt\n        /* \"#utility.yul\":2470:2690   */\n      iszero\n      tag_128\n      jumpi\n        /* \"#utility.yul\":2579:2582   */\n      dup1\n        /* \"#utility.yul\":2608:2645   */\n      tag_129\n        /* \"#utility.yul\":2641:2644   */\n      dup9\n        /* \"#utility.yul\":2629:2639   */\n      dup3\n        /* \"#utility.yul\":2608:2645   */\n      tag_63\n      jump\t// in\n    tag_129:\n        /* \"#utility.yul\":2603:2606   */\n      dup5\n        /* \"#utility.yul\":2596:2646   */\n      mstore\n        /* \"#utility.yul\":2675:2679   */\n      0x20\n        /* \"#utility.yul\":2670:2673   */\n      dup5\n        /* \"#utility.yul\":2666:2680   */\n      add\n        /* \"#utility.yul\":2659:2680   */\n      swap4\n      pop\n        /* \"#utility.yul\":2546:2690   */\n      pop\n        /* \"#utility.yul\":2530:2534   */\n      0x20\n        /* \"#utility.yul\":2525:2528   */\n      dup2\n        /* \"#utility.yul\":2521:2535   */\n      add\n        /* \"#utility.yul\":2514:2535   */\n      swap1\n      pop\n        /* \"#utility.yul\":2470:2690   */\n      jump(tag_126)\n    tag_128:\n        /* \"#utility.yul\":2474:2495   */\n      pop\n        /* \"#utility.yul\":2088:2696   */\n      pop\n      pop\n        /* \"#utility.yul\":1986:2696   */\n      swap4\n      swap3\n      pop\n      pop\n      pop\n      jump\t// out\n        /* \"#utility.yul\":2719:3089   */\n    tag_72:\n        /* \"#utility.yul\":2790:2795   */\n      0x00\n        /* \"#utility.yul\":2839:2842   */\n      dup3\n        /* \"#utility.yul\":2832:2836   */\n      0x1f\n        /* \"#utility.yul\":2824:2830   */\n      dup4\n        /* \"#utility.yul\":2820:2837   */\n      add\n        /* \"#utility.yul\":2816:2843   */\n      slt\n        /* \"#utility.yul\":2806:2928   */\n      tag_131\n      jumpi\n        /* \"#utility.yul\":2847:2926   */\n      tag_132\n      tag_64\n      jump\t// in\n    tag_132:\n        /* \"#utility.yul\":2806:2928   */\n    tag_131:\n        /* \"#utility.yul\":2964:2970   */\n      dup2\n        /* \"#utility.yul\":2951:2971   */\n      calldataload\n        /* \"#utility.yul\":2989:3083   */\n      tag_133\n        /* \"#utility.yul\":3079:3082   */\n      dup5\n        /* \"#utility.yul\":3071:3077   */\n      dup3\n        /* \"#utility.yul\":3064:3068   */\n      0x20\n        /* \"#utility.yul\":3056:3062   */\n      dup7\n        /* \"#utility.yul\":3052:3069   */\n      add\n        /* \"#utility.yul\":2989:3083   */\n      tag_71\n      jump\t// in\n    tag_133:\n        /* \"#utility.yul\":2980:3083   */\n      swap2\n      pop\n        /* \"#utility.yul\":2796:3089   */\n      pop\n        /* \"#utility.yul\":2719:3089   */\n      swap3\n      swap2\n      pop\n      pop\n      jump\t// out\n        /* \"#utility.yul\":3095:3779   */\n    tag_11:\n        /* \"#utility.yul\":3188:3194   */\n      0x00\n        /* \"#utility.yul\":3196:3202   */\n      0x00\n        /* \"#utility.yul\":3245:3247   */\n      0x40\n        /* \"#utility.yul\":3233:3242   */\n      dup4\n        /* \"#utility.yul\":3224:3231   */\n      dup6\n        /* \"#utility.yul\":3220:3243   */\n      sub\n        /* \"#utility.yul\":3216:3248   */\n      slt\n        /* \"#utility.yul\":3213:3332   */\n      iszero\n      tag_135\n      jumpi\n        /* \"#utility.yul\":3251:3330   */\n      tag_136\n      tag_59\n      jump\t// in\n    tag_136:\n        /* \"#utility.yul\":3213:3332   */\n    tag_135:\n        /* \"#utility.yul\":3371:3372   */\n      0x00\n        /* \"#utility.yul\":3396:3449   */\n      tag_137\n        /* \"#utility.yul\":3441:3448   */\n      dup6\n        /* \"#utility.yul\":3432:3438   */\n      dup3\n        /* \"#utility.yul\":3421:3430   */\n      dup7\n        /* \"#utility.yul\":3417:3439   */\n      add\n        /* \"#utility.yul\":3396:3449   */\n      tag_63\n      jump\t// in\n    tag_137:\n        /* \"#utility.yul\":3386:3449   */\n      swap3\n      pop\n        /* \"#utility.yul\":3342:3459   */\n      pop\n        /* \"#utility.yul\":3526:3528   */\n      0x20\n        /* \"#utility.yul\":3515:3524   */\n      dup4\n        /* \"#utility.yul\":3511:3529   */\n      add\n        /* \"#utility.yul\":3498:3530   */\n      calldataload\n        /* \"#utility.yul\":3557:3575   */\n      0xffffffffffffffff\n        /* \"#utility.yul\":3549:3555   */\n      dup2\n        /* \"#utility.yul\":3546:3576   */\n      gt\n        /* \"#utility.yul\":3543:3660   */\n      iszero\n      tag_138\n      jumpi\n        /* \"#utility.yul\":3579:3658   */\n      tag_139\n      tag_60\n      jump\t// in\n    tag_139:\n        /* \"#utility.yul\":3543:3660   */\n    tag_138:\n        /* \"#utility.yul\":3684:3762   */\n      tag_140\n        /* \"#utility.yul\":3754:3761   */\n      dup6\n        /* \"#utility.yul\":3745:3751   */\n      dup3\n        /* \"#utility.yul\":3734:3743   */\n      dup7\n        /* \"#utility.yul\":3730:3752   */\n      add\n        /* \"#utility.yul\":3684:3762   */\n      tag_72\n      jump\t// in\n    tag_140:\n        /* \"#utility.yul\":3674:3762   */\n      swap2\n      pop\n        /* \"#utility.yul\":3469:3772   */\n      pop\n        /* \"#utility.yul\":3095:3779   */\n      swap3\n      pop\n      swap3\n      swap1\n      pop\n      jump\t// out\n        /* \"#utility.yul\":3785:4114   */\n    tag_15:\n        /* \"#utility.yul\":3844:3850   */\n      0x00\n        /* \"#utility.yul\":3893:3895   */\n      0x20\n        /* \"#utility.yul\":3881:3890   */\n      dup3\n        /* \"#utility.yul\":3872:3879   */\n      dup5\n        /* \"#utility.yul\":3868:3891   */\n      sub\n        /* \"#utility.yul\":3864:3896   */\n      slt\n        /* \"#utility.yul\":3861:3980   */\n      iszero\n      tag_142\n      jumpi\n        /* \"#utility.yul\":3899:3978   */\n      tag_143\n      tag_59\n      jump\t// in\n    tag_143:\n        /* \"#utility.yul\":3861:3980   */\n    tag_142:\n        /* \"#utility.yul\":4019:4020   */\n      0x00\n        /* \"#utility.yul\":4044:4097   */\n      tag_144\n        /* \"#utility.yul\":4089:4096   */\n      dup5\n        /* \"#utility.yul\":4080:4086   */\n      dup3\n        /* \"#utility.yul\":4069:4078   */\n      dup6\n        /* \"#utility.yul\":4065:4087   */\n      add\n        /* \"#utility.yul\":4044:4097   */\n      tag_63\n      jump\t// in\n    tag_144:\n        /* \"#utility.yul\":4034:4097   */\n      swap2\n      pop\n        /* \"#utility.yul\":3990:4107   */\n      pop\n        /* \"#utility.yul\":3785:4114   */\n      swap3\n      swap2\n      pop\n      pop\n      jump\t// out\n        /* \"#utility.yul\":4120:4234   */\n    tag_73:\n        /* \"#utility.yul\":4187:4193   */\n      0x00\n        /* \"#utility.yul\":4221:4226   */\n      dup2\n        /* \"#utility.yul\":4215:4227   */\n      mload\n        /* \"#utility.yul\":4205:4227   */\n      swap1\n      pop\n        /* \"#utility.yul\":4120:4234   */\n      swap2\n      swap1\n      pop\n      jump\t// out\n        /* \"#utility.yul\":4240:4424   */\n    tag_74:\n        /* \"#utility.yul\":4339:4350   */\n      0x00\n        /* \"#utility.yul\":4373:4379   */\n      dup3\n        /* \"#utility.yul\":4368:4371   */\n      dup3\n        /* \"#utility.yul\":4361:4380   */\n      mstore\n        /* \"#utility.yul\":4413:4417   */\n      0x20\n        /* \"#utility.yul\":4408:4411   */\n      dup3\n        /* \"#utility.yul\":4404:4418   */\n      add\n        /* \"#utility.yul\":4389:4418   */\n      swap1\n      pop\n        /* \"#utility.yul\":4240:4424   */\n      swap3\n      swap2\n      pop\n      pop\n      jump\t// out\n        /* \"#utility.yul\":4430:4562   */\n    tag_75:\n        /* \"#utility.yul\":4497:4501   */\n      0x00\n        /* \"#utility.yul\":4520:4523   */\n      dup2\n        /* \"#utility.yul\":4512:4523   */\n      swap1\n      pop\n        /* \"#utility.yul\":4550:4554   */\n      0x20\n        /* \"#utility.yul\":4545:4548   */\n      dup3\n        /* \"#utility.yul\":4541:4555   */\n      add\n        /* \"#utility.yul\":4533:4555   */\n      swap1\n      pop\n        /* \"#utility.yul\":4430:4562   */\n      swap2\n      swap1\n      pop\n      jump\t// out\n        /* \"#utility.yul\":4568:4676   */\n    tag_76:\n        /* \"#utility.yul\":4645:4669   */\n      tag_149\n        /* \"#utility.yul\":4663:4668   */\n      dup2\n        /* \"#utility.yul\":4645:4669   */\n      tag_61\n      jump\t// in\n    tag_149:\n        /* \"#utility.yul\":4640:4643   */\n      dup3\n        /* \"#utility.yul\":4633:4670   */\n      mstore\n        /* \"#utility.yul\":4568:4676   */\n      pop\n      pop\n      jump\t// out\n        /* \"#utility.yul\":4682:4861   */\n    tag_77:\n        /* \"#utility.yul\":4751:4761   */\n      0x00\n        /* \"#utility.yul\":4772:4818   */\n      tag_151\n        /* \"#utility.yul\":4814:4817   */\n      dup4\n        /* \"#utility.yul\":4806:4812   */\n      dup4\n        /* \"#utility.yul\":4772:4818   */\n      tag_76\n      jump\t// in\n    tag_151:\n        /* \"#utility.yul\":4850:4854   */\n      0x20\n        /* \"#utility.yul\":4845:4848   */\n      dup4\n        /* \"#utility.yul\":4841:4855   */\n      add\n        /* \"#utility.yul\":4827:4855   */\n      swap1\n      pop\n        /* \"#utility.yul\":4682:4861   */\n      swap3\n      swap2\n      pop\n      pop\n      jump\t// out\n        /* \"#utility.yul\":4867:4980   */\n    tag_78:\n        /* \"#utility.yul\":4937:4941   */\n      0x00\n        /* \"#utility.yul\":4969:4973   */\n      0x20\n        /* \"#utility.yul\":4964:4967   */\n      dup3\n        /* \"#utility.yul\":4960:4974   */\n      add\n        /* \"#utility.yul\":4952:4974   */\n      swap1\n      pop\n        /* \"#utility.yul\":4867:4980   */\n      swap2\n      swap1\n      pop\n      jump\t// out\n        /* \"#utility.yul\":5016:5748   */\n    tag_79:\n        /* \"#utility.yul\":5135:5138   */\n      0x00\n        /* \"#utility.yul\":5164:5218   */\n      tag_154\n        /* \"#utility.yul\":5212:5217   */\n      dup3\n        /* \"#utility.yul\":5164:5218   */\n      tag_73\n      jump\t// in\n    tag_154:\n        /* \"#utility.yul\":5234:5320   */\n      tag_155\n        /* \"#utility.yul\":5313:5319   */\n      dup2\n        /* \"#utility.yul\":5308:5311   */\n      dup6\n        /* \"#utility.yul\":5234:5320   */\n      tag_74\n      jump\t// in\n    tag_155:\n        /* \"#utility.yul\":5227:5320   */\n      swap4\n      pop\n        /* \"#utility.yul\":5344:5400   */\n      tag_156\n        /* \"#utility.yul\":5394:5399   */\n      dup4\n        /* \"#utility.yul\":5344:5400   */\n      tag_75\n      jump\t// in\n    tag_156:\n        /* \"#utility.yul\":5423:5430   */\n      dup1\n        /* \"#utility.yul\":5454:5455   */\n      0x00\n        /* \"#utility.yul\":5439:5723   */\n    tag_157:\n        /* \"#utility.yul\":5464:5470   */\n      dup4\n        /* \"#utility.yul\":5461:5462   */\n      dup2\n        /* \"#utility.yul\":5458:5471   */\n      lt\n        /* \"#utility.yul\":5439:5723   */\n      iszero\n      tag_159\n      jumpi\n        /* \"#utility.yul\":5540:5546   */\n      dup2\n        /* \"#utility.yul\":5534:5547   */\n      mload\n        /* \"#utility.yul\":5567:5630   */\n      tag_160\n        /* \"#utility.yul\":5626:5629   */\n      dup9\n        /* \"#utility.yul\":5611:5624   */\n      dup3\n        /* \"#utility.yul\":5567:5630   */\n      tag_77\n      jump\t// in\n    tag_160:\n        /* \"#utility.yul\":5560:5630   */\n      swap8\n      pop\n        /* \"#utility.yul\":5653:5713   */\n      tag_161\n        /* \"#utility.yul\":5706:5712   */\n      dup4\n        /* \"#utility.yul\":5653:5713   */\n      tag_78\n      jump\t// in\n    tag_161:\n        /* \"#utility.yul\":5643:5713   */\n      swap3\n      pop\n        /* \"#utility.yul\":5499:5723   */\n      pop\n        /* \"#utility.yul\":5486:5487   */\n      0x01\n        /* \"#utility.yul\":5483:5484   */\n      dup2\n        /* \"#utility.yul\":5479:5488   */\n      add\n        /* \"#utility.yul\":5474:5488   */\n      swap1\n      pop\n        /* \"#utility.yul\":5439:5723   */\n      jump(tag_157)\n    tag_159:\n        /* \"#utility.yul\":5443:5457   */\n      pop\n        /* \"#utility.yul\":5739:5742   */\n      dup6\n        /* \"#utility.yul\":5732:5742   */\n      swap4\n      pop\n        /* \"#utility.yul\":5140:5748   */\n      pop\n      pop\n      pop\n        /* \"#utility.yul\":5016:5748   */\n      swap3\n      swap2\n      pop\n      pop\n      jump\t// out\n        /* \"#utility.yul\":5754:6127   */\n    tag_18:\n        /* \"#utility.yul\":5897:5901   */\n      0x00\n        /* \"#utility.yul\":5935:5937   */\n      0x20\n        /* \"#utility.yul\":5924:5933   */\n      dup3\n        /* \"#utility.yul\":5920:5938   */\n      add\n        /* \"#utility.yul\":5912:5938   */\n      swap1\n      pop\n        /* \"#utility.yul\":5984:5993   */\n      dup2\n        /* \"#utility.yul\":5978:5982   */\n      dup2\n        /* \"#utility.yul\":5974:5994   */\n      sub\n        /* \"#utility.yul\":5970:5971   */\n      0x00\n        /* \"#utility.yul\":5959:5968   */\n      dup4\n        /* \"#utility.yul\":5955:5972   */\n      add\n        /* \"#utility.yul\":5948:5995   */\n      mstore\n        /* \"#utility.yul\":6012:6120   */\n      tag_163\n        /* \"#utility.yul\":6115:6119   */\n      dup2\n        /* \"#utility.yul\":6106:6112   */\n      dup5\n        /* \"#utility.yul\":6012:6120   */\n      tag_79\n      jump\t// in\n    tag_163:\n        /* \"#utility.yul\":6004:6120   */\n      swap1\n      pop\n        /* \"#utility.yul\":5754:6127   */\n      swap3\n      swap2\n      pop\n      pop\n      jump\t// out\n        /* \"#utility.yul\":6133:6259   */\n    tag_80:\n        /* \"#utility.yul\":6170:6177   */\n      0x00\n        /* \"#utility.yul\":6210:6252   */\n      0xffffffffffffffffffffffffffffffffffffffff\n        /* \"#utility.yul\":6203:6208   */\n      dup3\n        /* \"#utility.yul\":6199:6253   */\n      and\n        /* \"#utility.yul\":6188:6253   */\n      swap1\n      pop\n        /* \"#utility.yul\":6133:6259   */\n      swap2\n      swap1\n      pop\n      jump\t// out\n        /* \"#utility.yul\":6265:6325   */\n    tag_81:\n        /* \"#utility.yul\":6293:6296   */\n      0x00\n        /* \"#utility.yul\":6314:6319   */\n      dup2\n        /* \"#utility.yul\":6307:6319   */\n      swap1\n      pop\n        /* \"#utility.yul\":6265:6325   */\n      swap2\n      swap1\n      pop\n      jump\t// out\n        /* \"#utility.yul\":6331:6473   */\n    tag_82:\n        /* \"#utility.yul\":6381:6390   */\n      0x00\n        /* \"#utility.yul\":6414:6467   */\n      tag_167\n        /* \"#utility.yul\":6432:6466   */\n      tag_168\n        /* \"#utility.yul\":6441:6465   */\n      tag_169\n        /* \"#utility.yul\":6459:6464   */\n      dup5\n        /* \"#utility.yul\":6441:6465   */\n      tag_80\n      jump\t// in\n    tag_169:\n        /* \"#utility.yul\":6432:6466   */\n      tag_81\n      jump\t// in\n    tag_168:\n        /* \"#utility.yul\":6414:6467   */\n      tag_80\n      jump\t// in\n    tag_167:\n        /* \"#utility.yul\":6401:6467   */\n      swap1\n      pop\n        /* \"#utility.yul\":6331:6473   */\n      swap2\n      swap1\n      pop\n      jump\t// out\n        /* \"#utility.yul\":6479:6605   */\n    tag_83:\n        /* \"#utility.yul\":6529:6538   */\n      0x00\n        /* \"#utility.yul\":6562:6599   */\n      tag_171\n        /* \"#utility.yul\":6593:6598   */\n      dup3\n        /* \"#utility.yul\":6562:6599   */\n      tag_82\n      jump\t// in\n    tag_171:\n        /* \"#utility.yul\":6549:6599   */\n      swap1\n      pop\n        /* \"#utility.yul\":6479:6605   */\n      swap2\n      swap1\n      pop\n      jump\t// out\n        /* \"#utility.yul\":6611:6757   */\n    tag_84:\n        /* \"#utility.yul\":6681:6690   */\n      0x00\n        /* \"#utility.yul\":6714:6751   */\n      tag_173\n        /* \"#utility.yul\":6745:6750   */\n      dup3\n        /* \"#utility.yul\":6714:6751   */\n      tag_83\n      jump\t// in\n    tag_173:\n        /* \"#utility.yul\":6701:6751   */\n      swap1\n      pop\n        /* \"#utility.yul\":6611:6757   */\n      swap2\n      swap1\n      pop\n      jump\t// out\n        /* \"#utility.yul\":6763:6934   */\n    tag_85:\n        /* \"#utility.yul\":6870:6927   */\n      tag_175\n        /* \"#utility.yul\":6921:6926   */\n      dup2\n        /* \"#utility.yul\":6870:6927   */\n      tag_84\n      jump\t// in\n    tag_175:\n        /* \"#utility.yul\":6865:6868   */\n      dup3\n        /* \"#utility.yul\":6858:6928   */\n      mstore\n        /* \"#utility.yul\":6763:6934   */\n      pop\n      pop\n      jump\t// out\n        /* \"#utility.yul\":6940:7202   */\n    tag_23:\n        /* \"#utility.yul\":7053:7057   */\n      0x00\n        /* \"#utility.yul\":7091:7093   */\n      0x20\n        /* \"#utility.yul\":7080:7089   */\n      dup3\n        /* \"#utility.yul\":7076:7094   */\n      add\n        /* \"#utility.yul\":7068:7094   */\n      swap1\n      pop\n        /* \"#utility.yul\":7104:7195   */\n      tag_177\n        /* \"#utility.yul\":7192:7193   */\n      0x00\n        /* \"#utility.yul\":7181:7190   */\n      dup4\n        /* \"#utility.yul\":7177:7194   */\n      add\n        /* \"#utility.yul\":7168:7174   */\n      dup5\n        /* \"#utility.yul\":7104:7195   */\n      tag_85\n      jump\t// in\n    tag_177:\n        /* \"#utility.yul\":6940:7202   */\n      swap3\n      swap2\n      pop\n      pop\n      jump\t// out\n        /* \"#utility.yul\":7208:7388   */\n    tag_32:\n        /* \"#utility.yul\":7256:7333   */\n      0x4e487b7100000000000000000000000000000000000000000000000000000000\n        /* \"#utility.yul\":7253:7254   */\n      0x00\n        /* \"#utility.yul\":7246:7334   */\n      mstore\n        /* \"#utility.yul\":7353:7357   */\n      0x32\n        /* \"#utility.yul\":7350:7351   */\n      0x04\n        /* \"#utility.yul\":7343:7358   */\n      mstore\n        /* \"#utility.yul\":7377:7381   */\n      0x24\n        /* \"#utility.yul\":7374:7375   */\n      0x00\n        /* \"#utility.yul\":7367:7382   */\n      revert\n        /* \"#utility.yul\":7394:7505   */\n    tag_86:\n        /* \"#utility.yul\":7458:7464   */\n      0x00\n        /* \"#utility.yul\":7492:7497   */\n      dup2\n        /* \"#utility.yul\":7486:7498   */\n      sload\n        /* \"#utility.yul\":7476:7498   */\n      swap1\n      pop\n        /* \"#utility.yul\":7394:7505   */\n      swap2\n      swap1\n      pop\n      jump\t// out\n        /* \"#utility.yul\":7511:7667   */\n    tag_87:\n        /* \"#utility.yul\":7575:7579   */\n      0x00\n        /* \"#utility.yul\":7598:7601   */\n      dup2\n        /* \"#utility.yul\":7590:7601   */\n      swap1\n      pop\n        /* \"#utility.yul\":7621:7624   */\n      dup2\n        /* \"#utility.yul\":7618:7619   */\n      0x00\n        /* \"#utility.yul\":7611:7625   */\n      mstore\n        /* \"#utility.yul\":7655:7659   */\n      0x20\n        /* \"#utility.yul\":7652:7653   */\n      0x00\n        /* \"#utility.yul\":7642:7660   */\n      keccak256\n        /* \"#utility.yul\":7634:7660   */\n      swap1\n      pop\n        /* \"#utility.yul\":7511:7667   */\n      swap2\n      swap1\n      pop\n      jump\t// out\n        /* \"#utility.yul\":7673:7775   */\n    tag_88:\n        /* \"#utility.yul\":7715:7723   */\n      0x00\n        /* \"#utility.yul\":7762:7767   */\n      dup2\n        /* \"#utility.yul\":7759:7760   */\n      0x00\n        /* \"#utility.yul\":7755:7768   */\n      shr\n        /* \"#utility.yul\":7734:7768   */\n      swap1\n      pop\n        /* \"#utility.yul\":7673:7775   */\n      swap2\n      swap1\n      pop\n      jump\t// out\n        /* \"#utility.yul\":7781:7871   */\n    tag_89:\n        /* \"#utility.yul\":7831:7838   */\n      0x00\n        /* \"#utility.yul\":7860:7865   */\n      dup2\n        /* \"#utility.yul\":7849:7865   */\n      swap1\n      pop\n        /* \"#utility.yul\":7781:7871   */\n      swap2\n      swap1\n      pop\n      jump\t// out\n        /* \"#utility.yul\":7877:8044   */\n    tag_90:\n        /* \"#utility.yul\":7947:7952   */\n      0x00\n        /* \"#utility.yul\":7972:8038   */\n      tag_184\n        /* \"#utility.yul\":8003:8037   */\n      tag_185\n        /* \"#utility.yul\":8026:8036   */\n      dup4\n        /* \"#utility.yul\":8003:8037   */\n      tag_88\n      jump\t// in\n    tag_185:\n        /* \"#utility.yul\":7972:8038   */\n      tag_89\n      jump\t// in\n    tag_184:\n        /* \"#utility.yul\":7963:8038   */\n      swap1\n      pop\n        /* \"#utility.yul\":7877:8044   */\n      swap2\n      swap1\n      pop\n      jump\t// out\n        /* \"#utility.yul\":8050:8195   */\n    tag_91:\n        /* \"#utility.yul\":8105:8110   */\n      0x00\n        /* \"#utility.yul\":8130:8188   */\n      tag_187\n        /* \"#utility.yul\":8182:8186   */\n      dup3\n        /* \"#utility.yul\":8176:8187   */\n      sload\n        /* \"#utility.yul\":8130:8188   */\n      tag_90\n      jump\t// in\n    tag_187:\n        /* \"#utility.yul\":8121:8188   */\n      swap1\n      pop\n        /* \"#utility.yul\":8050:8195   */\n      swap2\n      swap1\n      pop\n      jump\t// out\n        /* \"#utility.yul\":8201:8311   */\n    tag_92:\n        /* \"#utility.yul\":8268:8272   */\n      0x00\n        /* \"#utility.yul\":8300:8304   */\n      0x01\n        /* \"#utility.yul\":8295:8298   */\n      dup3\n        /* \"#utility.yul\":8291:8305   */\n      add\n        /* \"#utility.yul\":8283:8305   */\n      swap1\n      pop\n        /* \"#utility.yul\":8201:8311   */\n      swap2\n      swap1\n      pop\n      jump\t// out\n        /* \"#utility.yul\":8347:9098   */\n    tag_93:\n        /* \"#utility.yul\":8463:8466   */\n      0x00\n        /* \"#utility.yul\":8492:8543   */\n      tag_190\n        /* \"#utility.yul\":8537:8542   */\n      dup3\n        /* \"#utility.yul\":8492:8543   */\n      tag_86\n      jump\t// in\n    tag_190:\n        /* \"#utility.yul\":8559:8645   */\n      tag_191\n        /* \"#utility.yul\":8638:8644   */\n      dup2\n        /* \"#utility.yul\":8633:8636   */\n      dup6\n        /* \"#utility.yul\":8559:8645   */\n      tag_74\n      jump\t// in\n    tag_191:\n        /* \"#utility.yul\":8552:8645   */\n      swap4\n      pop\n        /* \"#utility.yul\":8669:8722   */\n      tag_192\n        /* \"#utility.yul\":8716:8721   */\n      dup4\n        /* \"#utility.yul\":8669:8722   */\n      tag_87\n      jump\t// in\n    tag_192:\n        /* \"#utility.yul\":8745:8752   */\n      dup1\n        /* \"#utility.yul\":8776:8777   */\n      0x00\n        /* \"#utility.yul\":8761:9073   */\n    tag_193:\n        /* \"#utility.yul\":8786:8792   */\n      dup4\n        /* \"#utility.yul\":8783:8784   */\n      dup2\n        /* \"#utility.yul\":8780:8793   */\n      lt\n        /* \"#utility.yul\":8761:9073   */\n      iszero\n      tag_195\n      jumpi\n        /* \"#utility.yul\":8856:8900   */\n      tag_196\n        /* \"#utility.yul\":8893:8899   */\n      dup3\n        /* \"#utility.yul\":8856:8900   */\n      tag_91\n      jump\t// in\n    tag_196:\n        /* \"#utility.yul\":8920:8983   */\n      tag_197\n        /* \"#utility.yul\":8979:8982   */\n      dup9\n        /* \"#utility.yul\":8964:8977   */\n      dup3\n        /* \"#utility.yul\":8920:8983   */\n      tag_77\n      jump\t// in\n    tag_197:\n        /* \"#utility.yul\":8913:8983   */\n      swap8\n      pop\n        /* \"#utility.yul\":9006:9063   */\n      tag_198\n        /* \"#utility.yul\":9056:9062   */\n      dup4\n        /* \"#utility.yul\":9006:9063   */\n      tag_92\n      jump\t// in\n    tag_198:\n        /* \"#utility.yul\":8996:9063   */\n      swap3\n      pop\n        /* \"#utility.yul\":8821:9073   */\n      pop\n        /* \"#utility.yul\":8808:8809   */\n      0x01\n        /* \"#utility.yul\":8805:8806   */\n      dup2\n        /* \"#utility.yul\":8801:8810   */\n      add\n        /* \"#utility.yul\":8796:8810   */\n      swap1\n      pop\n        /* \"#utility.yul\":8761:9073   */\n      jump(tag_193)\n    tag_195:\n        /* \"#utility.yul\":8765:8779   */\n      pop\n        /* \"#utility.yul\":9089:9092   */\n      dup6\n        /* \"#utility.yul\":9082:9092   */\n      swap4\n      pop\n        /* \"#utility.yul\":8468:9098   */\n      pop\n      pop\n      pop\n        /* \"#utility.yul\":8347:9098   */\n      swap3\n      swap2\n      pop\n      pop\n      jump\t// out\n        /* \"#utility.yul\":9104:9471   */\n    tag_37:\n        /* \"#utility.yul\":9244:9248   */\n      0x00\n        /* \"#utility.yul\":9282:9284   */\n      0x20\n        /* \"#utility.yul\":9271:9280   */\n      dup3\n        /* \"#utility.yul\":9267:9285   */\n      add\n        /* \"#utility.yul\":9259:9285   */\n      swap1\n      pop\n        /* \"#utility.yul\":9331:9340   */\n      dup2\n        /* \"#utility.yul\":9325:9329   */\n      dup2\n        /* \"#utility.yul\":9321:9341   */\n      sub\n        /* \"#utility.yul\":9317:9318   */\n      0x00\n        /* \"#utility.yul\":9306:9315   */\n      dup4\n        /* \"#utility.yul\":9302:9319   */\n      add\n        /* \"#utility.yul\":9295:9342   */\n      mstore\n        /* \"#utility.yul\":9359:9464   */\n      tag_200\n        /* \"#utility.yul\":9459:9463   */\n      dup2\n        /* \"#utility.yul\":9450:9456   */\n      dup5\n        /* \"#utility.yul\":9359:9464   */\n      tag_93\n      jump\t// in\n    tag_200:\n        /* \"#utility.yul\":9351:9464   */\n      swap1\n      pop\n        /* \"#utility.yul\":9104:9471   */\n      swap3\n      swap2\n      pop\n      pop\n      jump\t// out\n        /* \"#utility.yul\":9477:9620   */\n    tag_94:\n        /* \"#utility.yul\":9534:9539   */\n      0x00\n        /* \"#utility.yul\":9565:9571   */\n      dup2\n        /* \"#utility.yul\":9559:9572   */\n      mload\n        /* \"#utility.yul\":9550:9572   */\n      swap1\n      pop\n        /* \"#utility.yul\":9581:9614   */\n      tag_202\n        /* \"#utility.yul\":9608:9613   */\n      dup2\n        /* \"#utility.yul\":9581:9614   */\n      tag_62\n      jump\t// in\n    tag_202:\n        /* \"#utility.yul\":9477:9620   */\n      swap3\n      swap2\n      pop\n      pop\n      jump\t// out\n        /* \"#utility.yul\":9643:10375   */\n    tag_95:\n        /* \"#utility.yul\":9750:9755   */\n      0x00\n        /* \"#utility.yul\":9775:9856   */\n      tag_204\n        /* \"#utility.yul\":9791:9855   */\n      tag_205\n        /* \"#utility.yul\":9848:9854   */\n      dup5\n        /* \"#utility.yul\":9791:9855   */\n      tag_69\n      jump\t// in\n    tag_205:\n        /* \"#utility.yul\":9775:9856   */\n      tag_68\n      jump\t// in\n    tag_204:\n        /* \"#utility.yul\":9766:9856   */\n      swap1\n      pop\n        /* \"#utility.yul\":9876:9881   */\n      dup1\n        /* \"#utility.yul\":9905:9911   */\n      dup4\n        /* \"#utility.yul\":9898:9903   */\n      dup3\n        /* \"#utility.yul\":9891:9912   */\n      mstore\n        /* \"#utility.yul\":9939:9943   */\n      0x20\n        /* \"#utility.yul\":9932:9937   */\n      dup3\n        /* \"#utility.yul\":9928:9944   */\n      add\n        /* \"#utility.yul\":9921:9944   */\n      swap1\n      pop\n        /* \"#utility.yul\":9992:9996   */\n      0x20\n        /* \"#utility.yul\":9984:9990   */\n      dup5\n        /* \"#utility.yul\":9980:9997   */\n      mul\n        /* \"#utility.yul\":9972:9978   */\n      dup4\n        /* \"#utility.yul\":9968:9998   */\n      add\n        /* \"#utility.yul\":10021:10024   */\n      dup6\n        /* \"#utility.yul\":10013:10019   */\n      dup2\n        /* \"#utility.yul\":10010:10025   */\n      gt\n        /* \"#utility.yul\":10007:10129   */\n      iszero\n      tag_206\n      jumpi\n        /* \"#utility.yul\":10040:10119   */\n      tag_207\n      tag_70\n      jump\t// in\n    tag_207:\n        /* \"#utility.yul\":10007:10129   */\n    tag_206:\n        /* \"#utility.yul\":10155:10161   */\n      dup4\n        /* \"#utility.yul\":10138:10369   */\n    tag_208:\n        /* \"#utility.yul\":10172:10178   */\n      dup2\n        /* \"#utility.yul\":10167:10170   */\n      dup2\n        /* \"#utility.yul\":10164:10179   */\n      lt\n        /* \"#utility.yul\":10138:10369   */\n      iszero\n      tag_210\n      jumpi\n        /* \"#utility.yul\":10247:10250   */\n      dup1\n        /* \"#utility.yul\":10276:10324   */\n      tag_211\n        /* \"#utility.yul\":10320:10323   */\n      dup9\n        /* \"#utility.yul\":10308:10318   */\n      dup3\n        /* \"#utility.yul\":10276:10324   */\n      tag_94\n      jump\t// in\n    tag_211:\n        /* \"#utility.yul\":10271:10274   */\n      dup5\n        /* \"#utility.yul\":10264:10325   */\n      mstore\n        /* \"#utility.yul\":10354:10358   */\n      0x20\n        /* \"#utility.yul\":10349:10352   */\n      dup5\n        /* \"#utility.yul\":10345:10359   */\n      add\n        /* \"#utility.yul\":10338:10359   */\n      swap4\n      pop\n        /* \"#utility.yul\":10214:10369   */\n      pop\n        /* \"#utility.yul\":10198:10202   */\n      0x20\n        /* \"#utility.yul\":10193:10196   */\n      dup2\n        /* \"#utility.yul\":10189:10203   */\n      add\n        /* \"#utility.yul\":10182:10203   */\n      swap1\n      pop\n        /* \"#utility.yul\":10138:10369   */\n      jump(tag_208)\n    tag_210:\n        /* \"#utility.yul\":10142:10163   */\n      pop\n        /* \"#utility.yul\":9756:10375   */\n      pop\n      pop\n        /* \"#utility.yul\":9643:10375   */\n      swap4\n      swap3\n      pop\n      pop\n      pop\n      jump\t// out\n        /* \"#utility.yul\":10398:10783   */\n    tag_96:\n        /* \"#utility.yul\":10480:10485   */\n      0x00\n        /* \"#utility.yul\":10529:10532   */\n      dup3\n        /* \"#utility.yul\":10522:10526   */\n      0x1f\n        /* \"#utility.yul\":10514:10520   */\n      dup4\n        /* \"#utility.yul\":10510:10527   */\n      add\n        /* \"#utility.yul\":10506:10533   */\n      slt\n        /* \"#utility.yul\":10496:10618   */\n      tag_213\n      jumpi\n        /* \"#utility.yul\":10537:10616   */\n      tag_214\n      tag_64\n      jump\t// in\n    tag_214:\n        /* \"#utility.yul\":10496:10618   */\n    tag_213:\n        /* \"#utility.yul\":10647:10653   */\n      dup2\n        /* \"#utility.yul\":10641:10654   */\n      mload\n        /* \"#utility.yul\":10672:10777   */\n      tag_215\n        /* \"#utility.yul\":10773:10776   */\n      dup5\n        /* \"#utility.yul\":10765:10771   */\n      dup3\n        /* \"#utility.yul\":10758:10762   */\n      0x20\n        /* \"#utility.yul\":10750:10756   */\n      dup7\n        /* \"#utility.yul\":10746:10763   */\n      add\n        /* \"#utility.yul\":10672:10777   */\n      tag_95\n      jump\t// in\n    tag_215:\n        /* \"#utility.yul\":10663:10777   */\n      swap2\n      pop\n        /* \"#utility.yul\":10486:10783   */\n      pop\n        /* \"#utility.yul\":10398:10783   */\n      swap3\n      swap2\n      pop\n      pop\n      jump\t// out\n        /* \"#utility.yul\":10789:11343   */\n    tag_48:\n        /* \"#utility.yul\":10884:10890   */\n      0x00\n        /* \"#utility.yul\":10933:10935   */\n      0x20\n        /* \"#utility.yul\":10921:10930   */\n      dup3\n        /* \"#utility.yul\":10912:10919   */\n      dup5\n        /* \"#utility.yul\":10908:10931   */\n      sub\n        /* \"#utility.yul\":10904:10936   */\n      slt\n        /* \"#utility.yul\":10901:11020   */\n      iszero\n      tag_217\n      jumpi\n        /* \"#utility.yul\":10939:11018   */\n      tag_218\n      tag_59\n      jump\t// in\n    tag_218:\n        /* \"#utility.yul\":10901:11020   */\n    tag_217:\n        /* \"#utility.yul\":11080:11081   */\n      0x00\n        /* \"#utility.yul\":11069:11078   */\n      dup3\n        /* \"#utility.yul\":11065:11082   */\n      add\n        /* \"#utility.yul\":11059:11083   */\n      mload\n        /* \"#utility.yul\":11110:11128   */\n      0xffffffffffffffff\n        /* \"#utility.yul\":11102:11108   */\n      dup2\n        /* \"#utility.yul\":11099:11129   */\n      gt\n        /* \"#utility.yul\":11096:11213   */\n      iszero\n      tag_219\n      jumpi\n        /* \"#utility.yul\":11132:11211   */\n      tag_220\n      tag_60\n      jump\t// in\n    tag_220:\n        /* \"#utility.yul\":11096:11213   */\n    tag_219:\n        /* \"#utility.yul\":11237:11326   */\n      tag_221\n        /* \"#utility.yul\":11318:11325   */\n      dup5\n        /* \"#utility.yul\":11309:11315   */\n      dup3\n        /* \"#utility.yul\":11298:11307   */\n      dup6\n        /* \"#utility.yul\":11294:11316   */\n      add\n        /* \"#utility.yul\":11237:11326   */\n      tag_96\n      jump\t// in\n    tag_221:\n        /* \"#utility.yul\":11227:11326   */\n      swap2\n      pop\n        /* \"#utility.yul\":11030:11336   */\n      pop\n        /* \"#utility.yul\":10789:11343   */\n      swap3\n      swap2\n      pop\n      pop\n      jump\t// out\n    stop\n\n    sub_0: assembly {\n            /* \"contracts/simpleStorage.sol\":84:918  contract SimpleStorage {... */\n          mstore(0x40, 0x80)\n          callvalue\n          dup1\n          iszero\n          tag_1\n          jumpi\n          revert(0x00, 0x00)\n        tag_1:\n          pop\n          dataSize(sub_0)\n          dup1\n          dataOffset(sub_0)\n          0x00\n          codecopy\n          0x00\n          return\n        stop\n\n        sub_0: assembly {\n                /* \"contracts/simpleStorage.sol\":84:918  contract SimpleStorage {... */\n              mstore(0x40, 0x80)\n              callvalue\n              dup1\n              iszero\n              tag_1\n              jumpi\n              revert(0x00, 0x00)\n            tag_1:\n              pop\n              jumpi(tag_2, lt(calldatasize, 0x04))\n              shr(0xe0, calldataload(0x00))\n              dup1\n              0x06bd010d\n              eq\n              tag_3\n              jumpi\n              dup1\n              0x2e64cec1\n              eq\n              tag_4\n              jumpi\n              dup1\n              0x5b54633c\n              eq\n              tag_5\n              jumpi\n              dup1\n              0x8bab8dd5\n              eq\n              tag_6\n              jumpi\n              dup1\n              0x9e7a13ad\n              eq\n              tag_7\n              jumpi\n            tag_2:\n              revert(0x00, 0x00)\n                /* \"contracts/simpleStorage.sol\":446:555  function store(uint256[] memory _favoriteNumber) public {... */\n            tag_3:\n              tag_8\n              0x04\n              dup1\n              calldatasize\n              sub\n              dup2\n              add\n              swap1\n              tag_9\n              swap2\n              swap1\n              tag_10\n              jump\t// in\n            tag_9:\n              tag_11\n              jump\t// in\n            tag_8:\n              stop\n                /* \"contracts/simpleStorage.sol\":582:682  function retrieve() public view returns(uint256[] memory) {... */\n            tag_4:\n              tag_12\n              tag_13\n              jump\t// in\n            tag_12:\n              mload(0x40)\n              tag_14\n              swap2\n              swap1\n              tag_15\n              jump\t// in\n            tag_14:\n              mload(0x40)\n              dup1\n              swap2\n              sub\n              swap1\n              return\n                /* \"contracts/simpleStorage.sol\":724:915  function addPersons(string memory _name, uint256 _favoriteNumber) public {... */\n            tag_5:\n              tag_16\n              0x04\n              dup1\n              calldatasize\n              sub\n              dup2\n              add\n              swap1\n              tag_17\n              swap2\n              swap1\n              tag_18\n              jump\t// in\n            tag_17:\n              tag_19\n              jump\t// in\n            tag_16:\n              stop\n                /* \"contracts/simpleStorage.sol\":383:437  mapping(string => uint256) public nameToFavoriteNumber */\n            tag_6:\n              tag_20\n              0x04\n              dup1\n              calldatasize\n              sub\n              dup2\n              add\n              swap1\n              tag_21\n              swap2\n              swap1\n              tag_22\n              jump\t// in\n            tag_21:\n              tag_23\n              jump\t// in\n            tag_20:\n              mload(0x40)\n              tag_24\n              swap2\n              swap1\n              tag_25\n              jump\t// in\n            tag_24:\n              mload(0x40)\n              dup1\n              swap2\n              sub\n              swap1\n              return\n                /* \"contracts/simpleStorage.sol\":322:344  person[] public people */\n            tag_7:\n              tag_26\n              0x04\n              dup1\n              calldatasize\n              sub\n              dup2\n              add\n              swap1\n              tag_27\n              swap2\n              swap1\n              tag_28\n              jump\t// in\n            tag_27:\n              tag_29\n              jump\t// in\n            tag_26:\n              mload(0x40)\n              tag_30\n              swap3\n              swap2\n              swap1\n              tag_31\n              jump\t// in\n            tag_30:\n              mload(0x40)\n              dup1\n              swap2\n              sub\n              swap1\n              return\n                /* \"contracts/simpleStorage.sol\":446:555  function store(uint256[] memory _favoriteNumber) public {... */\n            tag_11:\n                /* \"contracts/simpleStorage.sol\":532:547  _favoriteNumber */\n              dup1\n                /* \"contracts/simpleStorage.sol\":513:529  myFavoriteNumber */\n              0x00\n                /* \"contracts/simpleStorage.sol\":513:547  myFavoriteNumber = _favoriteNumber */\n              swap1\n              dup1\n              mload\n              swap1\n              0x20\n              add\n              swap1\n              tag_33\n              swap3\n              swap2\n              swap1\n              tag_34\n              jump\t// in\n            tag_33:\n              pop\n                /* \"contracts/simpleStorage.sol\":446:555  function store(uint256[] memory _favoriteNumber) public {... */\n              pop\n              jump\t// out\n                /* \"contracts/simpleStorage.sol\":582:682  function retrieve() public view returns(uint256[] memory) {... */\n            tag_13:\n                /* \"contracts/simpleStorage.sol\":622:638  uint256[] memory */\n              0x60\n                /* \"contracts/simpleStorage.sol\":658:674  myFavoriteNumber */\n              0x00\n                /* \"contracts/simpleStorage.sol\":651:674  return myFavoriteNumber */\n              dup1\n              sload\n              dup1\n              0x20\n              mul\n              0x20\n              add\n              mload(0x40)\n              swap1\n              dup2\n              add\n              0x40\n              mstore\n              dup1\n              swap3\n              swap2\n              swap1\n              dup2\n              dup2\n              mstore\n              0x20\n              add\n              dup3\n              dup1\n              sload\n              dup1\n              iszero\n              tag_36\n              jumpi\n              0x20\n              mul\n              dup3\n              add\n              swap2\n              swap1\n              0x00\n              mstore\n              keccak256(0x00, 0x20)\n              swap1\n            tag_37:\n              dup2\n              sload\n              dup2\n              mstore\n              0x20\n              add\n              swap1\n              0x01\n              add\n              swap1\n              dup1\n              dup4\n              gt\n              tag_37\n              jumpi\n            tag_36:\n              pop\n              pop\n              pop\n              pop\n              pop\n              swap1\n              pop\n                /* \"contracts/simpleStorage.sol\":582:682  function retrieve() public view returns(uint256[] memory) {... */\n              swap1\n              jump\t// out\n                /* \"contracts/simpleStorage.sol\":724:915  function addPersons(string memory _name, uint256 _favoriteNumber) public {... */\n            tag_19:\n                /* \"contracts/simpleStorage.sol\":808:814  people */\n              0x01\n                /* \"contracts/simpleStorage.sol\":820:850  person(_favoriteNumber, _name) */\n              mload(0x40)\n              dup1\n              0x40\n              add\n              0x40\n              mstore\n              dup1\n                /* \"contracts/simpleStorage.sol\":827:842  _favoriteNumber */\n              dup4\n                /* \"contracts/simpleStorage.sol\":820:850  person(_favoriteNumber, _name) */\n              dup2\n              mstore\n              0x20\n              add\n                /* \"contracts/simpleStorage.sol\":844:849  _name */\n              dup5\n                /* \"contracts/simpleStorage.sol\":820:850  person(_favoriteNumber, _name) */\n              dup2\n              mstore\n              pop\n                /* \"contracts/simpleStorage.sol\":808:851  people.push(person(_favoriteNumber, _name)) */\n              swap1\n              dup1\n              0x01\n              dup2\n              sload\n              add\n              dup1\n              dup3\n              sstore\n              dup1\n              swap2\n              pop\n              pop\n              0x01\n              swap1\n              sub\n              swap1\n              0x00\n              mstore\n              keccak256(0x00, 0x20)\n              swap1\n              0x02\n              mul\n              add\n              0x00\n              swap1\n              swap2\n              swap1\n              swap2\n              swap1\n              swap2\n              pop\n              0x00\n              dup3\n              add\n              mload\n              dup2\n              0x00\n              add\n              sstore\n              0x20\n              dup3\n              add\n              mload\n              dup2\n              0x01\n              add\n              swap1\n              dup2\n              tag_40\n              swap2\n              swap1\n              tag_41\n              jump\t// in\n            tag_40:\n              pop\n              pop\n              pop\n                /* \"contracts/simpleStorage.sol\":892:907  _favoriteNumber */\n              dup1\n                /* \"contracts/simpleStorage.sol\":862:882  nameToFavoriteNumber */\n              0x02\n                /* \"contracts/simpleStorage.sol\":883:888  _name */\n              dup4\n                /* \"contracts/simpleStorage.sol\":862:889  nameToFavoriteNumber[_name] */\n              mload(0x40)\n              tag_42\n              swap2\n              swap1\n              tag_43\n              jump\t// in\n            tag_42:\n              swap1\n              dup2\n              mstore\n              0x20\n              add\n              mload(0x40)\n              dup1\n              swap2\n              sub\n              swap1\n              keccak256\n                /* \"contracts/simpleStorage.sol\":862:907  nameToFavoriteNumber[_name] = _favoriteNumber */\n              dup2\n              swap1\n              sstore\n              pop\n                /* \"contracts/simpleStorage.sol\":724:915  function addPersons(string memory _name, uint256 _favoriteNumber) public {... */\n              pop\n              pop\n              jump\t// out\n                /* \"contracts/simpleStorage.sol\":383:437  mapping(string => uint256) public nameToFavoriteNumber */\n            tag_23:\n              0x02\n              dup2\n              dup1\n              mload\n              0x20\n              dup2\n              add\n              dup3\n              add\n              dup1\n              mload\n              dup5\n              dup3\n              mstore\n              0x20\n              dup4\n              add\n              0x20\n              dup6\n              add\n              keccak256\n              dup2\n              dup4\n              mstore\n              dup1\n              swap6\n              pop\n              pop\n              pop\n              pop\n              pop\n              pop\n              0x00\n              swap2\n              pop\n              swap1\n              pop\n              sload\n              dup2\n              jump\t// out\n                /* \"contracts/simpleStorage.sol\":322:344  person[] public people */\n            tag_29:\n              0x01\n              dup2\n              dup2\n              sload\n              dup2\n              lt\n              tag_44\n              jumpi\n              0x00\n              dup1\n              revert\n            tag_44:\n              swap1\n              0x00\n              mstore\n              keccak256(0x00, 0x20)\n              swap1\n              0x02\n              mul\n              add\n              0x00\n              swap2\n              pop\n              swap1\n              pop\n              dup1\n              0x00\n              add\n              sload\n              swap1\n              dup1\n              0x01\n              add\n              dup1\n              sload\n              tag_46\n              swap1\n              tag_47\n              jump\t// in\n            tag_46:\n              dup1\n              0x1f\n              add\n              0x20\n              dup1\n              swap2\n              div\n              mul\n              0x20\n              add\n              mload(0x40)\n              swap1\n              dup2\n              add\n              0x40\n              mstore\n              dup1\n              swap3\n              swap2\n              swap1\n              dup2\n              dup2\n              mstore\n              0x20\n              add\n              dup3\n              dup1\n              sload\n              tag_48\n              swap1\n              tag_47\n              jump\t// in\n            tag_48:\n              dup1\n              iszero\n              tag_49\n              jumpi\n              dup1\n              0x1f\n              lt\n              tag_50\n              jumpi\n              0x0100\n              dup1\n              dup4\n              sload\n              div\n              mul\n              dup4\n              mstore\n              swap2\n              0x20\n              add\n              swap2\n              jump(tag_49)\n            tag_50:\n              dup3\n              add\n              swap2\n              swap1\n              0x00\n              mstore\n              keccak256(0x00, 0x20)\n              swap1\n            tag_51:\n              dup2\n              sload\n              dup2\n              mstore\n              swap1\n              0x01\n              add\n              swap1\n              0x20\n              add\n              dup1\n              dup4\n              gt\n              tag_51\n              jumpi\n              dup3\n              swap1\n              sub\n              0x1f\n              and\n              dup3\n              add\n              swap2\n            tag_49:\n              pop\n              pop\n              pop\n              pop\n              pop\n              swap1\n              pop\n              dup3\n              jump\t// out\n            tag_34:\n              dup3\n              dup1\n              sload\n              dup3\n              dup3\n              sstore\n              swap1\n              0x00\n              mstore\n              keccak256(0x00, 0x20)\n              swap1\n              dup2\n              add\n              swap3\n              dup3\n              iszero\n              tag_52\n              jumpi\n              swap2\n              0x20\n              mul\n              dup3\n              add\n            tag_53:\n              dup3\n              dup2\n              gt\n              iszero\n              tag_54\n              jumpi\n              dup3\n              mload\n              dup3\n              sstore\n              swap2\n              0x20\n              add\n              swap2\n              swap1\n              0x01\n              add\n              swap1\n              jump(tag_53)\n            tag_54:\n            tag_52:\n              pop\n              swap1\n              pop\n              tag_55\n              swap2\n              swap1\n              tag_56\n              jump\t// in\n            tag_55:\n              pop\n              swap1\n              jump\t// out\n            tag_56:\n            tag_57:\n              dup1\n              dup3\n              gt\n              iszero\n              tag_58\n              jumpi\n              0x00\n              dup2\n              0x00\n              swap1\n              sstore\n              pop\n              0x01\n              add\n              jump(tag_57)\n            tag_58:\n              pop\n              swap1\n              jump\t// out\n                /* \"#utility.yul\":7:82   */\n            tag_59:\n                /* \"#utility.yul\":40:46   */\n              0x00\n                /* \"#utility.yul\":73:75   */\n              0x40\n                /* \"#utility.yul\":67:76   */\n              mload\n                /* \"#utility.yul\":57:76   */\n              swap1\n              pop\n                /* \"#utility.yul\":7:82   */\n              swap1\n              jump\t// out\n                /* \"#utility.yul\":88:205   */\n            tag_60:\n                /* \"#utility.yul\":197:198   */\n              0x00\n                /* \"#utility.yul\":194:195   */\n              0x00\n                /* \"#utility.yul\":187:199   */\n              revert\n                /* \"#utility.yul\":211:328   */\n            tag_61:\n                /* \"#utility.yul\":320:321   */\n              0x00\n                /* \"#utility.yul\":317:318   */\n              0x00\n                /* \"#utility.yul\":310:322   */\n              revert\n                /* \"#utility.yul\":334:451   */\n            tag_62:\n                /* \"#utility.yul\":443:444   */\n              0x00\n                /* \"#utility.yul\":440:441   */\n              0x00\n                /* \"#utility.yul\":433:445   */\n              revert\n                /* \"#utility.yul\":457:559   */\n            tag_63:\n                /* \"#utility.yul\":498:504   */\n              0x00\n                /* \"#utility.yul\":549:551   */\n              0x1f\n                /* \"#utility.yul\":545:552   */\n              not\n                /* \"#utility.yul\":540:542   */\n              0x1f\n                /* \"#utility.yul\":533:538   */\n              dup4\n                /* \"#utility.yul\":529:543   */\n              add\n                /* \"#utility.yul\":525:553   */\n              and\n                /* \"#utility.yul\":515:553   */\n              swap1\n              pop\n                /* \"#utility.yul\":457:559   */\n              swap2\n              swap1\n              pop\n              jump\t// out\n                /* \"#utility.yul\":565:745   */\n            tag_64:\n                /* \"#utility.yul\":613:690   */\n              0x4e487b7100000000000000000000000000000000000000000000000000000000\n                /* \"#utility.yul\":610:611   */\n              0x00\n                /* \"#utility.yul\":603:691   */\n              mstore\n                /* \"#utility.yul\":710:714   */\n              0x41\n                /* \"#utility.yul\":707:708   */\n              0x04\n                /* \"#utility.yul\":700:715   */\n              mstore\n                /* \"#utility.yul\":734:738   */\n              0x24\n                /* \"#utility.yul\":731:732   */\n              0x00\n                /* \"#utility.yul\":724:739   */\n              revert\n                /* \"#utility.yul\":751:1032   */\n            tag_65:\n                /* \"#utility.yul\":834:861   */\n              tag_117\n                /* \"#utility.yul\":856:860   */\n              dup3\n                /* \"#utility.yul\":834:861   */\n              tag_63\n              jump\t// in\n            tag_117:\n                /* \"#utility.yul\":826:832   */\n              dup2\n                /* \"#utility.yul\":822:862   */\n              add\n                /* \"#utility.yul\":964:970   */\n              dup2\n                /* \"#utility.yul\":952:962   */\n              dup2\n                /* \"#utility.yul\":949:971   */\n              lt\n                /* \"#utility.yul\":928:946   */\n              0xffffffffffffffff\n                /* \"#utility.yul\":916:926   */\n              dup3\n                /* \"#utility.yul\":913:947   */\n              gt\n                /* \"#utility.yul\":910:972   */\n              or\n                /* \"#utility.yul\":907:995   */\n              iszero\n              tag_118\n              jumpi\n                /* \"#utility.yul\":975:993   */\n              tag_119\n              tag_64\n              jump\t// in\n            tag_119:\n                /* \"#utility.yul\":907:995   */\n            tag_118:\n                /* \"#utility.yul\":1015:1025   */\n              dup1\n                /* \"#utility.yul\":1011:1013   */\n              0x40\n                /* \"#utility.yul\":1004:1026   */\n              mstore\n                /* \"#utility.yul\":794:1032   */\n              pop\n                /* \"#utility.yul\":751:1032   */\n              pop\n              pop\n              jump\t// out\n                /* \"#utility.yul\":1038:1167   */\n            tag_66:\n                /* \"#utility.yul\":1072:1078   */\n              0x00\n                /* \"#utility.yul\":1099:1119   */\n              tag_121\n              tag_59\n              jump\t// in\n            tag_121:\n                /* \"#utility.yul\":1089:1119   */\n              swap1\n              pop\n                /* \"#utility.yul\":1128:1161   */\n              tag_122\n                /* \"#utility.yul\":1156:1160   */\n              dup3\n                /* \"#utility.yul\":1148:1154   */\n              dup3\n                /* \"#utility.yul\":1128:1161   */\n              tag_65\n              jump\t// in\n            tag_122:\n                /* \"#utility.yul\":1038:1167   */\n              swap2\n              swap1\n              pop\n              jump\t// out\n                /* \"#utility.yul\":1173:1484   */\n            tag_67:\n                /* \"#utility.yul\":1250:1254   */\n              0x00\n                /* \"#utility.yul\":1340:1358   */\n              0xffffffffffffffff\n                /* \"#utility.yul\":1332:1338   */\n              dup3\n                /* \"#utility.yul\":1329:1359   */\n              gt\n                /* \"#utility.yul\":1326:1382   */\n              iszero\n              tag_124\n              jumpi\n                /* \"#utility.yul\":1362:1380   */\n              tag_125\n              tag_64\n              jump\t// in\n            tag_125:\n                /* \"#utility.yul\":1326:1382   */\n            tag_124:\n                /* \"#utility.yul\":1412:1416   */\n              0x20\n                /* \"#utility.yul\":1404:1410   */\n              dup3\n                /* \"#utility.yul\":1400:1417   */\n              mul\n                /* \"#utility.yul\":1392:1417   */\n              swap1\n              pop\n                /* \"#utility.yul\":1472:1476   */\n              0x20\n                /* \"#utility.yul\":1466:1470   */\n              dup2\n                /* \"#utility.yul\":1462:1477   */\n              add\n                /* \"#utility.yul\":1454:1477   */\n              swap1\n              pop\n                /* \"#utility.yul\":1173:1484   */\n              swap2\n              swap1\n              pop\n              jump\t// out\n                /* \"#utility.yul\":1490:1607   */\n            tag_68:\n                /* \"#utility.yul\":1599:1600   */\n              0x00\n                /* \"#utility.yul\":1596:1597   */\n              0x00\n                /* \"#utility.yul\":1589:1601   */\n              revert\n                /* \"#utility.yul\":1613:1690   */\n            tag_69:\n                /* \"#utility.yul\":1650:1657   */\n              0x00\n                /* \"#utility.yul\":1679:1684   */\n              dup2\n                /* \"#utility.yul\":1668:1684   */\n              swap1\n              pop\n                /* \"#utility.yul\":1613:1690   */\n              swap2\n              swap1\n              pop\n              jump\t// out\n                /* \"#utility.yul\":1696:1818   */\n            tag_70:\n                /* \"#utility.yul\":1769:1793   */\n              tag_129\n                /* \"#utility.yul\":1787:1792   */\n              dup2\n                /* \"#utility.yul\":1769:1793   */\n              tag_69\n              jump\t// in\n            tag_129:\n                /* \"#utility.yul\":1762:1767   */\n              dup2\n                /* \"#utility.yul\":1759:1794   */\n              eq\n                /* \"#utility.yul\":1749:1812   */\n              tag_130\n              jumpi\n                /* \"#utility.yul\":1808:1809   */\n              0x00\n                /* \"#utility.yul\":1805:1806   */\n              0x00\n                /* \"#utility.yul\":1798:1810   */\n              revert\n                /* \"#utility.yul\":1749:1812   */\n            tag_130:\n                /* \"#utility.yul\":1696:1818   */\n              pop\n              jump\t// out\n                /* \"#utility.yul\":1824:1963   */\n            tag_71:\n                /* \"#utility.yul\":1870:1875   */\n              0x00\n                /* \"#utility.yul\":1908:1914   */\n              dup2\n                /* \"#utility.yul\":1895:1915   */\n              calldataload\n                /* \"#utility.yul\":1886:1915   */\n              swap1\n              pop\n                /* \"#utility.yul\":1924:1957   */\n              tag_132\n                /* \"#utility.yul\":1951:1956   */\n              dup2\n                /* \"#utility.yul\":1924:1957   */\n              tag_70\n              jump\t// in\n            tag_132:\n                /* \"#utility.yul\":1824:1963   */\n              swap3\n              swap2\n              pop\n              pop\n              jump\t// out\n                /* \"#utility.yul\":1986:2696   */\n            tag_72:\n                /* \"#utility.yul\":2082:2087   */\n              0x00\n                /* \"#utility.yul\":2107:2188   */\n              tag_134\n                /* \"#utility.yul\":2123:2187   */\n              tag_135\n                /* \"#utility.yul\":2180:2186   */\n              dup5\n                /* \"#utility.yul\":2123:2187   */\n              tag_67\n              jump\t// in\n            tag_135:\n                /* \"#utility.yul\":2107:2188   */\n              tag_66\n              jump\t// in\n            tag_134:\n                /* \"#utility.yul\":2098:2188   */\n              swap1\n              pop\n                /* \"#utility.yul\":2208:2213   */\n              dup1\n                /* \"#utility.yul\":2237:2243   */\n              dup4\n                /* \"#utility.yul\":2230:2235   */\n              dup3\n                /* \"#utility.yul\":2223:2244   */\n              mstore\n                /* \"#utility.yul\":2271:2275   */\n              0x20\n                /* \"#utility.yul\":2264:2269   */\n              dup3\n                /* \"#utility.yul\":2260:2276   */\n              add\n                /* \"#utility.yul\":2253:2276   */\n              swap1\n              pop\n                /* \"#utility.yul\":2324:2328   */\n              0x20\n                /* \"#utility.yul\":2316:2322   */\n              dup5\n                /* \"#utility.yul\":2312:2329   */\n              mul\n                /* \"#utility.yul\":2304:2310   */\n              dup4\n                /* \"#utility.yul\":2300:2330   */\n              add\n                /* \"#utility.yul\":2353:2356   */\n              dup6\n                /* \"#utility.yul\":2345:2351   */\n              dup2\n                /* \"#utility.yul\":2342:2357   */\n              gt\n                /* \"#utility.yul\":2339:2461   */\n              iszero\n              tag_136\n              jumpi\n                /* \"#utility.yul\":2372:2451   */\n              tag_137\n              tag_68\n              jump\t// in\n            tag_137:\n                /* \"#utility.yul\":2339:2461   */\n            tag_136:\n                /* \"#utility.yul\":2487:2493   */\n              dup4\n                /* \"#utility.yul\":2470:2690   */\n            tag_138:\n                /* \"#utility.yul\":2504:2510   */\n              dup2\n                /* \"#utility.yul\":2499:2502   */\n              dup2\n                /* \"#utility.yul\":2496:2511   */\n              lt\n                /* \"#utility.yul\":2470:2690   */\n              iszero\n              tag_140\n              jumpi\n                /* \"#utility.yul\":2579:2582   */\n              dup1\n                /* \"#utility.yul\":2608:2645   */\n              tag_141\n                /* \"#utility.yul\":2641:2644   */\n              dup9\n                /* \"#utility.yul\":2629:2639   */\n              dup3\n                /* \"#utility.yul\":2608:2645   */\n              tag_71\n              jump\t// in\n            tag_141:\n                /* \"#utility.yul\":2603:2606   */\n              dup5\n                /* \"#utility.yul\":2596:2646   */\n              mstore\n                /* \"#utility.yul\":2675:2679   */\n              0x20\n                /* \"#utility.yul\":2670:2673   */\n              dup5\n                /* \"#utility.yul\":2666:2680   */\n              add\n                /* \"#utility.yul\":2659:2680   */\n              swap4\n              pop\n                /* \"#utility.yul\":2546:2690   */\n              pop\n                /* \"#utility.yul\":2530:2534   */\n              0x20\n                /* \"#utility.yul\":2525:2528   */\n              dup2\n                /* \"#utility.yul\":2521:2535   */\n              add\n                /* \"#utility.yul\":2514:2535   */\n              swap1\n              pop\n                /* \"#utility.yul\":2470:2690   */\n              jump(tag_138)\n            tag_140:\n                /* \"#utility.yul\":2474:2495   */\n              pop\n                /* \"#utility.yul\":2088:2696   */\n              pop\n              pop\n                /* \"#utility.yul\":1986:2696   */\n              swap4\n              swap3\n              pop\n              pop\n              pop\n              jump\t// out\n                /* \"#utility.yul\":2719:3089   */\n            tag_73:\n                /* \"#utility.yul\":2790:2795   */\n              0x00\n                /* \"#utility.yul\":2839:2842   */\n              dup3\n                /* \"#utility.yul\":2832:2836   */\n              0x1f\n                /* \"#utility.yul\":2824:2830   */\n              dup4\n                /* \"#utility.yul\":2820:2837   */\n              add\n                /* \"#utility.yul\":2816:2843   */\n              slt\n                /* \"#utility.yul\":2806:2928   */\n              tag_143\n              jumpi\n                /* \"#utility.yul\":2847:2926   */\n              tag_144\n              tag_62\n              jump\t// in\n            tag_144:\n                /* \"#utility.yul\":2806:2928   */\n            tag_143:\n                /* \"#utility.yul\":2964:2970   */\n              dup2\n                /* \"#utility.yul\":2951:2971   */\n              calldataload\n                /* \"#utility.yul\":2989:3083   */\n              tag_145\n                /* \"#utility.yul\":3079:3082   */\n              dup5\n                /* \"#utility.yul\":3071:3077   */\n              dup3\n                /* \"#utility.yul\":3064:3068   */\n              0x20\n                /* \"#utility.yul\":3056:3062   */\n              dup7\n                /* \"#utility.yul\":3052:3069   */\n              add\n                /* \"#utility.yul\":2989:3083   */\n              tag_72\n              jump\t// in\n            tag_145:\n                /* \"#utility.yul\":2980:3083   */\n              swap2\n              pop\n                /* \"#utility.yul\":2796:3089   */\n              pop\n                /* \"#utility.yul\":2719:3089   */\n              swap3\n              swap2\n              pop\n              pop\n              jump\t// out\n                /* \"#utility.yul\":3095:3634   */\n            tag_10:\n                /* \"#utility.yul\":3179:3185   */\n              0x00\n                /* \"#utility.yul\":3228:3230   */\n              0x20\n                /* \"#utility.yul\":3216:3225   */\n              dup3\n                /* \"#utility.yul\":3207:3214   */\n              dup5\n                /* \"#utility.yul\":3203:3226   */\n              sub\n                /* \"#utility.yul\":3199:3231   */\n              slt\n                /* \"#utility.yul\":3196:3315   */\n              iszero\n              tag_147\n              jumpi\n                /* \"#utility.yul\":3234:3313   */\n              tag_148\n              tag_60\n              jump\t// in\n            tag_148:\n                /* \"#utility.yul\":3196:3315   */\n            tag_147:\n                /* \"#utility.yul\":3382:3383   */\n              0x00\n                /* \"#utility.yul\":3371:3380   */\n              dup3\n                /* \"#utility.yul\":3367:3384   */\n              add\n                /* \"#utility.yul\":3354:3385   */\n              calldataload\n                /* \"#utility.yul\":3412:3430   */\n              0xffffffffffffffff\n                /* \"#utility.yul\":3404:3410   */\n              dup2\n                /* \"#utility.yul\":3401:3431   */\n              gt\n                /* \"#utility.yul\":3398:3515   */\n              iszero\n              tag_149\n              jumpi\n                /* \"#utility.yul\":3434:3513   */\n              tag_150\n              tag_61\n              jump\t// in\n            tag_150:\n                /* \"#utility.yul\":3398:3515   */\n            tag_149:\n                /* \"#utility.yul\":3539:3617   */\n              tag_151\n                /* \"#utility.yul\":3609:3616   */\n              dup5\n                /* \"#utility.yul\":3600:3606   */\n              dup3\n                /* \"#utility.yul\":3589:3598   */\n              dup6\n                /* \"#utility.yul\":3585:3607   */\n              add\n                /* \"#utility.yul\":3539:3617   */\n              tag_73\n              jump\t// in\n            tag_151:\n                /* \"#utility.yul\":3529:3617   */\n              swap2\n              pop\n                /* \"#utility.yul\":3325:3627   */\n              pop\n                /* \"#utility.yul\":3095:3634   */\n              swap3\n              swap2\n              pop\n              pop\n              jump\t// out\n                /* \"#utility.yul\":3640:3754   */\n            tag_74:\n                /* \"#utility.yul\":3707:3713   */\n              0x00\n                /* \"#utility.yul\":3741:3746   */\n              dup2\n                /* \"#utility.yul\":3735:3747   */\n              mload\n                /* \"#utility.yul\":3725:3747   */\n              swap1\n              pop\n                /* \"#utility.yul\":3640:3754   */\n              swap2\n              swap1\n              pop\n              jump\t// out\n                /* \"#utility.yul\":3760:3944   */\n            tag_75:\n                /* \"#utility.yul\":3859:3870   */\n              0x00\n                /* \"#utility.yul\":3893:3899   */\n              dup3\n                /* \"#utility.yul\":3888:3891   */\n              dup3\n                /* \"#utility.yul\":3881:3900   */\n              mstore\n                /* \"#utility.yul\":3933:3937   */\n              0x20\n                /* \"#utility.yul\":3928:3931   */\n              dup3\n                /* \"#utility.yul\":3924:3938   */\n              add\n                /* \"#utility.yul\":3909:3938   */\n              swap1\n              pop\n                /* \"#utility.yul\":3760:3944   */\n              swap3\n              swap2\n              pop\n              pop\n              jump\t// out\n                /* \"#utility.yul\":3950:4082   */\n            tag_76:\n                /* \"#utility.yul\":4017:4021   */\n              0x00\n                /* \"#utility.yul\":4040:4043   */\n              dup2\n                /* \"#utility.yul\":4032:4043   */\n              swap1\n              pop\n                /* \"#utility.yul\":4070:4074   */\n              0x20\n                /* \"#utility.yul\":4065:4068   */\n              dup3\n                /* \"#utility.yul\":4061:4075   */\n              add\n                /* \"#utility.yul\":4053:4075   */\n              swap1\n              pop\n                /* \"#utility.yul\":3950:4082   */\n              swap2\n              swap1\n              pop\n              jump\t// out\n                /* \"#utility.yul\":4088:4196   */\n            tag_77:\n                /* \"#utility.yul\":4165:4189   */\n              tag_156\n                /* \"#utility.yul\":4183:4188   */\n              dup2\n                /* \"#utility.yul\":4165:4189   */\n              tag_69\n              jump\t// in\n            tag_156:\n                /* \"#utility.yul\":4160:4163   */\n              dup3\n                /* \"#utility.yul\":4153:4190   */\n              mstore\n                /* \"#utility.yul\":4088:4196   */\n              pop\n              pop\n              jump\t// out\n                /* \"#utility.yul\":4202:4381   */\n            tag_78:\n                /* \"#utility.yul\":4271:4281   */\n              0x00\n                /* \"#utility.yul\":4292:4338   */\n              tag_158\n                /* \"#utility.yul\":4334:4337   */\n              dup4\n                /* \"#utility.yul\":4326:4332   */\n              dup4\n                /* \"#utility.yul\":4292:4338   */\n              tag_77\n              jump\t// in\n            tag_158:\n                /* \"#utility.yul\":4370:4374   */\n              0x20\n                /* \"#utility.yul\":4365:4368   */\n              dup4\n                /* \"#utility.yul\":4361:4375   */\n              add\n                /* \"#utility.yul\":4347:4375   */\n              swap1\n              pop\n                /* \"#utility.yul\":4202:4381   */\n              swap3\n              swap2\n              pop\n              pop\n              jump\t// out\n                /* \"#utility.yul\":4387:4500   */\n            tag_79:\n                /* \"#utility.yul\":4457:4461   */\n              0x00\n                /* \"#utility.yul\":4489:4493   */\n              0x20\n                /* \"#utility.yul\":4484:4487   */\n              dup3\n                /* \"#utility.yul\":4480:4494   */\n              add\n                /* \"#utility.yul\":4472:4494   */\n              swap1\n              pop\n                /* \"#utility.yul\":4387:4500   */\n              swap2\n              swap1\n              pop\n              jump\t// out\n                /* \"#utility.yul\":4536:5268   */\n            tag_80:\n                /* \"#utility.yul\":4655:4658   */\n              0x00\n                /* \"#utility.yul\":4684:4738   */\n              tag_161\n                /* \"#utility.yul\":4732:4737   */\n              dup3\n                /* \"#utility.yul\":4684:4738   */\n              tag_74\n              jump\t// in\n            tag_161:\n                /* \"#utility.yul\":4754:4840   */\n              tag_162\n                /* \"#utility.yul\":4833:4839   */\n              dup2\n                /* \"#utility.yul\":4828:4831   */\n              dup6\n                /* \"#utility.yul\":4754:4840   */\n              tag_75\n              jump\t// in\n            tag_162:\n                /* \"#utility.yul\":4747:4840   */\n              swap4\n              pop\n                /* \"#utility.yul\":4864:4920   */\n              tag_163\n                /* \"#utility.yul\":4914:4919   */\n              dup4\n                /* \"#utility.yul\":4864:4920   */\n              tag_76\n              jump\t// in\n            tag_163:\n                /* \"#utility.yul\":4943:4950   */\n              dup1\n                /* \"#utility.yul\":4974:4975   */\n              0x00\n                /* \"#utility.yul\":4959:5243   */\n            tag_164:\n                /* \"#utility.yul\":4984:4990   */\n              dup4\n                /* \"#utility.yul\":4981:4982   */\n              dup2\n                /* \"#utility.yul\":4978:4991   */\n              lt\n                /* \"#utility.yul\":4959:5243   */\n              iszero\n              tag_166\n              jumpi\n                /* \"#utility.yul\":5060:5066   */\n              dup2\n                /* \"#utility.yul\":5054:5067   */\n              mload\n                /* \"#utility.yul\":5087:5150   */\n              tag_167\n                /* \"#utility.yul\":5146:5149   */\n              dup9\n                /* \"#utility.yul\":5131:5144   */\n              dup3\n                /* \"#utility.yul\":5087:5150   */\n              tag_78\n              jump\t// in\n            tag_167:\n                /* \"#utility.yul\":5080:5150   */\n              swap8\n              pop\n                /* \"#utility.yul\":5173:5233   */\n              tag_168\n                /* \"#utility.yul\":5226:5232   */\n              dup4\n                /* \"#utility.yul\":5173:5233   */\n              tag_79\n              jump\t// in\n            tag_168:\n                /* \"#utility.yul\":5163:5233   */\n              swap3\n              pop\n                /* \"#utility.yul\":5019:5243   */\n              pop\n                /* \"#utility.yul\":5006:5007   */\n              0x01\n                /* \"#utility.yul\":5003:5004   */\n              dup2\n                /* \"#utility.yul\":4999:5008   */\n              add\n                /* \"#utility.yul\":4994:5008   */\n              swap1\n              pop\n                /* \"#utility.yul\":4959:5243   */\n              jump(tag_164)\n            tag_166:\n                /* \"#utility.yul\":4963:4977   */\n              pop\n                /* \"#utility.yul\":5259:5262   */\n              dup6\n                /* \"#utility.yul\":5252:5262   */\n              swap4\n              pop\n                /* \"#utility.yul\":4660:5268   */\n              pop\n              pop\n              pop\n                /* \"#utility.yul\":4536:5268   */\n              swap3\n              swap2\n              pop\n              pop\n              jump\t// out\n                /* \"#utility.yul\":5274:5647   */\n            tag_15:\n                /* \"#utility.yul\":5417:5421   */\n              0x00\n                /* \"#utility.yul\":5455:5457   */\n              0x20\n                /* \"#utility.yul\":5444:5453   */\n              dup3\n                /* \"#utility.yul\":5440:5458   */\n              add\n                /* \"#utility.yul\":5432:5458   */\n              swap1\n              pop\n                /* \"#utility.yul\":5504:5513   */\n              dup2\n                /* \"#utility.yul\":5498:5502   */\n              dup2\n                /* \"#utility.yul\":5494:5514   */\n              sub\n                /* \"#utility.yul\":5490:5491   */\n              0x00\n                /* \"#utility.yul\":5479:5488   */\n              dup4\n                /* \"#utility.yul\":5475:5492   */\n              add\n                /* \"#utility.yul\":5468:5515   */\n              mstore\n                /* \"#utility.yul\":5532:5640   */\n              tag_170\n                /* \"#utility.yul\":5635:5639   */\n              dup2\n                /* \"#utility.yul\":5626:5632   */\n              dup5\n                /* \"#utility.yul\":5532:5640   */\n              tag_80\n              jump\t// in\n            tag_170:\n                /* \"#utility.yul\":5524:5640   */\n              swap1\n              pop\n                /* \"#utility.yul\":5274:5647   */\n              swap3\n              swap2\n              pop\n              pop\n              jump\t// out\n                /* \"#utility.yul\":5653:5770   */\n            tag_81:\n                /* \"#utility.yul\":5762:5763   */\n              0x00\n                /* \"#utility.yul\":5759:5760   */\n              0x00\n                /* \"#utility.yul\":5752:5764   */\n              revert\n                /* \"#utility.yul\":5776:6084   */\n            tag_82:\n                /* \"#utility.yul\":5838:5842   */\n              0x00\n                /* \"#utility.yul\":5928:5946   */\n              0xffffffffffffffff\n                /* \"#utility.yul\":5920:5926   */\n              dup3\n                /* \"#utility.yul\":5917:5947   */\n              gt\n                /* \"#utility.yul\":5914:5970   */\n              iszero\n              tag_173\n              jumpi\n                /* \"#utility.yul\":5950:5968   */\n              tag_174\n              tag_64\n              jump\t// in\n            tag_174:\n                /* \"#utility.yul\":5914:5970   */\n            tag_173:\n                /* \"#utility.yul\":5988:6017   */\n              tag_175\n                /* \"#utility.yul\":6010:6016   */\n              dup3\n                /* \"#utility.yul\":5988:6017   */\n              tag_63\n              jump\t// in\n            tag_175:\n                /* \"#utility.yul\":5980:6017   */\n              swap1\n              pop\n                /* \"#utility.yul\":6072:6076   */\n              0x20\n                /* \"#utility.yul\":6066:6070   */\n              dup2\n                /* \"#utility.yul\":6062:6077   */\n              add\n                /* \"#utility.yul\":6054:6077   */\n              swap1\n              pop\n                /* \"#utility.yul\":5776:6084   */\n              swap2\n              swap1\n              pop\n              jump\t// out\n                /* \"#utility.yul\":6090:6238   */\n            tag_83:\n                /* \"#utility.yul\":6188:6194   */\n              dup3\n                /* \"#utility.yul\":6183:6186   */\n              dup2\n                /* \"#utility.yul\":6178:6181   */\n              dup4\n                /* \"#utility.yul\":6165:6195   */\n              calldatacopy\n                /* \"#utility.yul\":6229:6230   */\n              0x00\n                /* \"#utility.yul\":6220:6226   */\n              dup4\n                /* \"#utility.yul\":6215:6218   */\n              dup4\n                /* \"#utility.yul\":6211:6227   */\n              add\n                /* \"#utility.yul\":6204:6231   */\n              mstore\n                /* \"#utility.yul\":6090:6238   */\n              pop\n              pop\n              pop\n              jump\t// out\n                /* \"#utility.yul\":6244:6669   */\n            tag_84:\n                /* \"#utility.yul\":6322:6327   */\n              0x00\n                /* \"#utility.yul\":6347:6413   */\n              tag_178\n                /* \"#utility.yul\":6363:6412   */\n              tag_179\n                /* \"#utility.yul\":6405:6411   */\n              dup5\n                /* \"#utility.yul\":6363:6412   */\n              tag_82\n              jump\t// in\n            tag_179:\n                /* \"#utility.yul\":6347:6413   */\n              tag_66\n              jump\t// in\n            tag_178:\n                /* \"#utility.yul\":6338:6413   */\n              swap1\n              pop\n                /* \"#utility.yul\":6436:6442   */\n              dup3\n                /* \"#utility.yul\":6429:6434   */\n              dup2\n                /* \"#utility.yul\":6422:6443   */\n              mstore\n                /* \"#utility.yul\":6474:6478   */\n              0x20\n                /* \"#utility.yul\":6467:6472   */\n              dup2\n                /* \"#utility.yul\":6463:6479   */\n              add\n                /* \"#utility.yul\":6512:6515   */\n              dup5\n                /* \"#utility.yul\":6503:6509   */\n              dup5\n                /* \"#utility.yul\":6498:6501   */\n              dup5\n                /* \"#utility.yul\":6494:6510   */\n              add\n                /* \"#utility.yul\":6491:6516   */\n              gt\n                /* \"#utility.yul\":6488:6600   */\n              iszero\n              tag_180\n              jumpi\n                /* \"#utility.yul\":6519:6598   */\n              tag_181\n              tag_81\n              jump\t// in\n            tag_181:\n                /* \"#utility.yul\":6488:6600   */\n            tag_180:\n                /* \"#utility.yul\":6609:6663   */\n              tag_182\n                /* \"#utility.yul\":6656:6662   */\n              dup5\n                /* \"#utility.yul\":6651:6654   */\n              dup3\n                /* \"#utility.yul\":6646:6649   */\n              dup6\n                /* \"#utility.yul\":6609:6663   */\n              tag_83\n              jump\t// in\n            tag_182:\n                /* \"#utility.yul\":6328:6669   */\n              pop\n                /* \"#utility.yul\":6244:6669   */\n              swap4\n              swap3\n              pop\n              pop\n              pop\n              jump\t// out\n                /* \"#utility.yul\":6689:7029   */\n            tag_85:\n                /* \"#utility.yul\":6745:6750   */\n              0x00\n                /* \"#utility.yul\":6794:6797   */\n              dup3\n                /* \"#utility.yul\":6787:6791   */\n              0x1f\n                /* \"#utility.yul\":6779:6785   */\n              dup4\n                /* \"#utility.yul\":6775:6792   */\n              add\n                /* \"#utility.yul\":6771:6798   */\n              slt\n                /* \"#utility.yul\":6761:6883   */\n              tag_184\n              jumpi\n                /* \"#utility.yul\":6802:6881   */\n              tag_185\n              tag_62\n              jump\t// in\n            tag_185:\n                /* \"#utility.yul\":6761:6883   */\n            tag_184:\n                /* \"#utility.yul\":6919:6925   */\n              dup2\n                /* \"#utility.yul\":6906:6926   */\n              calldataload\n                /* \"#utility.yul\":6944:7023   */\n              tag_186\n                /* \"#utility.yul\":7019:7022   */\n              dup5\n                /* \"#utility.yul\":7011:7017   */\n              dup3\n                /* \"#utility.yul\":7004:7008   */\n              0x20\n                /* \"#utility.yul\":6996:7002   */\n              dup7\n                /* \"#utility.yul\":6992:7009   */\n              add\n                /* \"#utility.yul\":6944:7023   */\n              tag_84\n              jump\t// in\n            tag_186:\n                /* \"#utility.yul\":6935:7023   */\n              swap2\n              pop\n                /* \"#utility.yul\":6751:7029   */\n              pop\n                /* \"#utility.yul\":6689:7029   */\n              swap3\n              swap2\n              pop\n              pop\n              jump\t// out\n                /* \"#utility.yul\":7035:7689   */\n            tag_18:\n                /* \"#utility.yul\":7113:7119   */\n              0x00\n                /* \"#utility.yul\":7121:7127   */\n              0x00\n                /* \"#utility.yul\":7170:7172   */\n              0x40\n                /* \"#utility.yul\":7158:7167   */\n              dup4\n                /* \"#utility.yul\":7149:7156   */\n              dup6\n                /* \"#utility.yul\":7145:7168   */\n              sub\n                /* \"#utility.yul\":7141:7173   */\n              slt\n                /* \"#utility.yul\":7138:7257   */\n              iszero\n              tag_188\n              jumpi\n                /* \"#utility.yul\":7176:7255   */\n              tag_189\n              tag_60\n              jump\t// in\n            tag_189:\n                /* \"#utility.yul\":7138:7257   */\n            tag_188:\n                /* \"#utility.yul\":7324:7325   */\n              0x00\n                /* \"#utility.yul\":7313:7322   */\n              dup4\n                /* \"#utility.yul\":7309:7326   */\n              add\n                /* \"#utility.yul\":7296:7327   */\n              calldataload\n                /* \"#utility.yul\":7354:7372   */\n              0xffffffffffffffff\n                /* \"#utility.yul\":7346:7352   */\n              dup2\n                /* \"#utility.yul\":7343:7373   */\n              gt\n                /* \"#utility.yul\":7340:7457   */\n              iszero\n              tag_190\n              jumpi\n                /* \"#utility.yul\":7376:7455   */\n              tag_191\n              tag_61\n              jump\t// in\n            tag_191:\n                /* \"#utility.yul\":7340:7457   */\n            tag_190:\n                /* \"#utility.yul\":7481:7544   */\n              tag_192\n                /* \"#utility.yul\":7536:7543   */\n              dup6\n                /* \"#utility.yul\":7527:7533   */\n              dup3\n                /* \"#utility.yul\":7516:7525   */\n              dup7\n                /* \"#utility.yul\":7512:7534   */\n              add\n                /* \"#utility.yul\":7481:7544   */\n              tag_85\n              jump\t// in\n            tag_192:\n                /* \"#utility.yul\":7471:7544   */\n              swap3\n              pop\n                /* \"#utility.yul\":7267:7554   */\n              pop\n                /* \"#utility.yul\":7593:7595   */\n              0x20\n                /* \"#utility.yul\":7619:7672   */\n              tag_193\n                /* \"#utility.yul\":7664:7671   */\n              dup6\n                /* \"#utility.yul\":7655:7661   */\n              dup3\n                /* \"#utility.yul\":7644:7653   */\n              dup7\n                /* \"#utility.yul\":7640:7662   */\n              add\n                /* \"#utility.yul\":7619:7672   */\n              tag_71\n              jump\t// in\n            tag_193:\n                /* \"#utility.yul\":7609:7672   */\n              swap2\n              pop\n                /* \"#utility.yul\":7564:7682   */\n              pop\n                /* \"#utility.yul\":7035:7689   */\n              swap3\n              pop\n              swap3\n              swap1\n              pop\n              jump\t// out\n                /* \"#utility.yul\":7695:8204   */\n            tag_22:\n                /* \"#utility.yul\":7764:7770   */\n              0x00\n                /* \"#utility.yul\":7813:7815   */\n              0x20\n                /* \"#utility.yul\":7801:7810   */\n              dup3\n                /* \"#utility.yul\":7792:7799   */\n              dup5\n                /* \"#utility.yul\":7788:7811   */\n              sub\n                /* \"#utility.yul\":7784:7816   */\n              slt\n                /* \"#utility.yul\":7781:7900   */\n              iszero\n              tag_195\n              jumpi\n                /* \"#utility.yul\":7819:7898   */\n              tag_196\n              tag_60\n              jump\t// in\n            tag_196:\n                /* \"#utility.yul\":7781:7900   */\n            tag_195:\n                /* \"#utility.yul\":7967:7968   */\n              0x00\n                /* \"#utility.yul\":7956:7965   */\n              dup3\n                /* \"#utility.yul\":7952:7969   */\n              add\n                /* \"#utility.yul\":7939:7970   */\n              calldataload\n                /* \"#utility.yul\":7997:8015   */\n              0xffffffffffffffff\n                /* \"#utility.yul\":7989:7995   */\n              dup2\n                /* \"#utility.yul\":7986:8016   */\n              gt\n                /* \"#utility.yul\":7983:8100   */\n              iszero\n              tag_197\n              jumpi\n                /* \"#utility.yul\":8019:8098   */\n              tag_198\n              tag_61\n              jump\t// in\n            tag_198:\n                /* \"#utility.yul\":7983:8100   */\n            tag_197:\n                /* \"#utility.yul\":8124:8187   */\n              tag_199\n                /* \"#utility.yul\":8179:8186   */\n              dup5\n                /* \"#utility.yul\":8170:8176   */\n              dup3\n                /* \"#utility.yul\":8159:8168   */\n              dup6\n                /* \"#utility.yul\":8155:8177   */\n              add\n                /* \"#utility.yul\":8124:8187   */\n              tag_85\n              jump\t// in\n            tag_199:\n                /* \"#utility.yul\":8114:8187   */\n              swap2\n              pop\n                /* \"#utility.yul\":7910:8197   */\n              pop\n                /* \"#utility.yul\":7695:8204   */\n              swap3\n              swap2\n              pop\n              pop\n              jump\t// out\n                /* \"#utility.yul\":8210:8328   */\n            tag_86:\n                /* \"#utility.yul\":8297:8321   */\n              tag_201\n                /* \"#utility.yul\":8315:8320   */\n              dup2\n                /* \"#utility.yul\":8297:8321   */\n              tag_69\n              jump\t// in\n            tag_201:\n                /* \"#utility.yul\":8292:8295   */\n              dup3\n                /* \"#utility.yul\":8285:8322   */\n              mstore\n                /* \"#utility.yul\":8210:8328   */\n              pop\n              pop\n              jump\t// out\n                /* \"#utility.yul\":8334:8556   */\n            tag_25:\n                /* \"#utility.yul\":8427:8431   */\n              0x00\n                /* \"#utility.yul\":8465:8467   */\n              0x20\n                /* \"#utility.yul\":8454:8463   */\n              dup3\n                /* \"#utility.yul\":8450:8468   */\n              add\n                /* \"#utility.yul\":8442:8468   */\n              swap1\n              pop\n                /* \"#utility.yul\":8478:8549   */\n              tag_203\n                /* \"#utility.yul\":8546:8547   */\n              0x00\n                /* \"#utility.yul\":8535:8544   */\n              dup4\n                /* \"#utility.yul\":8531:8548   */\n              add\n                /* \"#utility.yul\":8522:8528   */\n              dup5\n                /* \"#utility.yul\":8478:8549   */\n              tag_86\n              jump\t// in\n            tag_203:\n                /* \"#utility.yul\":8334:8556   */\n              swap3\n              swap2\n              pop\n              pop\n              jump\t// out\n                /* \"#utility.yul\":8562:8891   */\n            tag_28:\n                /* \"#utility.yul\":8621:8627   */\n              0x00\n                /* \"#utility.yul\":8670:8672   */\n              0x20\n                /* \"#utility.yul\":8658:8667   */\n              dup3\n                /* \"#utility.yul\":8649:8656   */\n              dup5\n                /* \"#utility.yul\":8645:8668   */\n              sub\n                /* \"#utility.yul\":8641:8673   */\n              slt\n                /* \"#utility.yul\":8638:8757   */\n              iszero\n              tag_205\n              jumpi\n                /* \"#utility.yul\":8676:8755   */\n              tag_206\n              tag_60\n              jump\t// in\n            tag_206:\n                /* \"#utility.yul\":8638:8757   */\n            tag_205:\n                /* \"#utility.yul\":8796:8797   */\n              0x00\n                /* \"#utility.yul\":8821:8874   */\n              tag_207\n                /* \"#utility.yul\":8866:8873   */\n              dup5\n                /* \"#utility.yul\":8857:8863   */\n              dup3\n                /* \"#utility.yul\":8846:8855   */\n              dup6\n                /* \"#utility.yul\":8842:8864   */\n              add\n                /* \"#utility.yul\":8821:8874   */\n              tag_71\n              jump\t// in\n            tag_207:\n                /* \"#utility.yul\":8811:8874   */\n              swap2\n              pop\n                /* \"#utility.yul\":8767:8884   */\n              pop\n                /* \"#utility.yul\":8562:8891   */\n              swap3\n              swap2\n              pop\n              pop\n              jump\t// out\n                /* \"#utility.yul\":8897:8996   */\n            tag_87:\n                /* \"#utility.yul\":8949:8955   */\n              0x00\n                /* \"#utility.yul\":8983:8988   */\n              dup2\n                /* \"#utility.yul\":8977:8989   */\n              mload\n                /* \"#utility.yul\":8967:8989   */\n              swap1\n              pop\n                /* \"#utility.yul\":8897:8996   */\n              swap2\n              swap1\n              pop\n              jump\t// out\n                /* \"#utility.yul\":9002:9171   */\n            tag_88:\n                /* \"#utility.yul\":9086:9097   */\n              0x00\n                /* \"#utility.yul\":9120:9126   */\n              dup3\n                /* \"#utility.yul\":9115:9118   */\n              dup3\n                /* \"#utility.yul\":9108:9127   */\n              mstore\n                /* \"#utility.yul\":9160:9164   */\n              0x20\n                /* \"#utility.yul\":9155:9158   */\n              dup3\n                /* \"#utility.yul\":9151:9165   */\n              add\n                /* \"#utility.yul\":9136:9165   */\n              swap1\n              pop\n                /* \"#utility.yul\":9002:9171   */\n              swap3\n              swap2\n              pop\n              pop\n              jump\t// out\n                /* \"#utility.yul\":9177:9316   */\n            tag_89:\n                /* \"#utility.yul\":9266:9272   */\n              dup3\n                /* \"#utility.yul\":9261:9264   */\n              dup2\n                /* \"#utility.yul\":9256:9259   */\n              dup4\n                /* \"#utility.yul\":9250:9273   */\n              mcopy\n                /* \"#utility.yul\":9307:9308   */\n              0x00\n                /* \"#utility.yul\":9298:9304   */\n              dup4\n                /* \"#utility.yul\":9293:9296   */\n              dup4\n                /* \"#utility.yul\":9289:9305   */\n              add\n                /* \"#utility.yul\":9282:9309   */\n              mstore\n                /* \"#utility.yul\":9177:9316   */\n              pop\n              pop\n              pop\n              jump\t// out\n                /* \"#utility.yul\":9322:9699   */\n            tag_90:\n                /* \"#utility.yul\":9410:9413   */\n              0x00\n                /* \"#utility.yul\":9438:9477   */\n              tag_212\n                /* \"#utility.yul\":9471:9476   */\n              dup3\n                /* \"#utility.yul\":9438:9477   */\n              tag_87\n              jump\t// in\n            tag_212:\n                /* \"#utility.yul\":9493:9564   */\n              tag_213\n                /* \"#utility.yul\":9557:9563   */\n              dup2\n                /* \"#utility.yul\":9552:9555   */\n              dup6\n                /* \"#utility.yul\":9493:9564   */\n              tag_88\n              jump\t// in\n            tag_213:\n                /* \"#utility.yul\":9486:9564   */\n              swap4\n              pop\n                /* \"#utility.yul\":9573:9638   */\n              tag_214\n                /* \"#utility.yul\":9631:9637   */\n              dup2\n                /* \"#utility.yul\":9626:9629   */\n              dup6\n                /* \"#utility.yul\":9619:9623   */\n              0x20\n                /* \"#utility.yul\":9612:9617   */\n              dup7\n                /* \"#utility.yul\":9608:9624   */\n              add\n                /* \"#utility.yul\":9573:9638   */\n              tag_89\n              jump\t// in\n            tag_214:\n                /* \"#utility.yul\":9663:9692   */\n              tag_215\n                /* \"#utility.yul\":9685:9691   */\n              dup2\n                /* \"#utility.yul\":9663:9692   */\n              tag_63\n              jump\t// in\n            tag_215:\n                /* \"#utility.yul\":9658:9661   */\n              dup5\n                /* \"#utility.yul\":9654:9693   */\n              add\n                /* \"#utility.yul\":9647:9693   */\n              swap2\n              pop\n                /* \"#utility.yul\":9414:9699   */\n              pop\n                /* \"#utility.yul\":9322:9699   */\n              swap3\n              swap2\n              pop\n              pop\n              jump\t// out\n                /* \"#utility.yul\":9705:10128   */\n            tag_31:\n                /* \"#utility.yul\":9846:9850   */\n              0x00\n                /* \"#utility.yul\":9884:9886   */\n              0x40\n                /* \"#utility.yul\":9873:9882   */\n              dup3\n                /* \"#utility.yul\":9869:9887   */\n              add\n                /* \"#utility.yul\":9861:9887   */\n              swap1\n              pop\n                /* \"#utility.yul\":9897:9968   */\n              tag_217\n                /* \"#utility.yul\":9965:9966   */\n              0x00\n                /* \"#utility.yul\":9954:9963   */\n              dup4\n                /* \"#utility.yul\":9950:9967   */\n              add\n                /* \"#utility.yul\":9941:9947   */\n              dup6\n                /* \"#utility.yul\":9897:9968   */\n              tag_86\n              jump\t// in\n            tag_217:\n                /* \"#utility.yul\":10015:10024   */\n              dup2\n                /* \"#utility.yul\":10009:10013   */\n              dup2\n                /* \"#utility.yul\":10005:10025   */\n              sub\n                /* \"#utility.yul\":10000:10002   */\n              0x20\n                /* \"#utility.yul\":9989:9998   */\n              dup4\n                /* \"#utility.yul\":9985:10003   */\n              add\n                /* \"#utility.yul\":9978:10026   */\n              mstore\n                /* \"#utility.yul\":10043:10121   */\n              tag_218\n                /* \"#utility.yul\":10116:10120   */\n              dup2\n                /* \"#utility.yul\":10107:10113   */\n              dup5\n                /* \"#utility.yul\":10043:10121   */\n              tag_90\n              jump\t// in\n            tag_218:\n                /* \"#utility.yul\":10035:10121   */\n              swap1\n              pop\n                /* \"#utility.yul\":9705:10128   */\n              swap4\n              swap3\n              pop\n              pop\n              pop\n              jump\t// out\n                /* \"#utility.yul\":10134:10314   */\n            tag_91:\n                /* \"#utility.yul\":10182:10259   */\n              0x4e487b7100000000000000000000000000000000000000000000000000000000\n                /* \"#utility.yul\":10179:10180   */\n              0x00\n                /* \"#utility.yul\":10172:10260   */\n              mstore\n                /* \"#utility.yul\":10279:10283   */\n              0x22\n                /* \"#utility.yul\":10276:10277   */\n              0x04\n                /* \"#utility.yul\":10269:10284   */\n              mstore\n                /* \"#utility.yul\":10303:10307   */\n              0x24\n                /* \"#utility.yul\":10300:10301   */\n              0x00\n                /* \"#utility.yul\":10293:10308   */\n              revert\n                /* \"#utility.yul\":10320:10640   */\n            tag_47:\n                /* \"#utility.yul\":10364:10370   */\n              0x00\n                /* \"#utility.yul\":10401:10402   */\n              0x02\n                /* \"#utility.yul\":10395:10399   */\n              dup3\n                /* \"#utility.yul\":10391:10403   */\n              div\n                /* \"#utility.yul\":10381:10403   */\n              swap1\n              pop\n                /* \"#utility.yul\":10448:10449   */\n              0x01\n                /* \"#utility.yul\":10442:10446   */\n              dup3\n                /* \"#utility.yul\":10438:10450   */\n              and\n                /* \"#utility.yul\":10469:10487   */\n              dup1\n                /* \"#utility.yul\":10459:10540   */\n              tag_221\n              jumpi\n                /* \"#utility.yul\":10525:10529   */\n              0x7f\n                /* \"#utility.yul\":10517:10523   */\n              dup3\n                /* \"#utility.yul\":10513:10530   */\n              and\n                /* \"#utility.yul\":10503:10530   */\n              swap2\n              pop\n                /* \"#utility.yul\":10459:10540   */\n            tag_221:\n                /* \"#utility.yul\":10587:10589   */\n              0x20\n                /* \"#utility.yul\":10579:10585   */\n              dup3\n                /* \"#utility.yul\":10576:10590   */\n              lt\n                /* \"#utility.yul\":10556:10574   */\n              dup2\n                /* \"#utility.yul\":10553:10591   */\n              sub\n                /* \"#utility.yul\":10550:10634   */\n              tag_222\n              jumpi\n                /* \"#utility.yul\":10606:10624   */\n              tag_223\n              tag_91\n              jump\t// in\n            tag_223:\n                /* \"#utility.yul\":10550:10634   */\n            tag_222:\n                /* \"#utility.yul\":10371:10640   */\n              pop\n                /* \"#utility.yul\":10320:10640   */\n              swap2\n              swap1\n              pop\n              jump\t// out\n                /* \"#utility.yul\":10646:10787   */\n            tag_92:\n                /* \"#utility.yul\":10695:10699   */\n              0x00\n                /* \"#utility.yul\":10718:10721   */\n              dup2\n                /* \"#utility.yul\":10710:10721   */\n              swap1\n              pop\n                /* \"#utility.yul\":10741:10744   */\n              dup2\n                /* \"#utility.yul\":10738:10739   */\n              0x00\n                /* \"#utility.yul\":10731:10745   */\n              mstore\n                /* \"#utility.yul\":10775:10779   */\n              0x20\n                /* \"#utility.yul\":10772:10773   */\n              0x00\n                /* \"#utility.yul\":10762:10780   */\n              keccak256\n                /* \"#utility.yul\":10754:10780   */\n              swap1\n              pop\n                /* \"#utility.yul\":10646:10787   */\n              swap2\n              swap1\n              pop\n              jump\t// out\n                /* \"#utility.yul\":10793:10886   */\n            tag_93:\n                /* \"#utility.yul\":10830:10836   */\n              0x00\n                /* \"#utility.yul\":10877:10879   */\n              0x20\n                /* \"#utility.yul\":10872:10874   */\n              0x1f\n                /* \"#utility.yul\":10865:10870   */\n              dup4\n                /* \"#utility.yul\":10861:10875   */\n              add\n                /* \"#utility.yul\":10857:10880   */\n              div\n                /* \"#utility.yul\":10847:10880   */\n              swap1\n              pop\n                /* \"#utility.yul\":10793:10886   */\n              swap2\n              swap1\n              pop\n              jump\t// out\n                /* \"#utility.yul\":10892:10999   */\n            tag_94:\n                /* \"#utility.yul\":10936:10944   */\n              0x00\n                /* \"#utility.yul\":10986:10991   */\n              dup3\n                /* \"#utility.yul\":10980:10984   */\n              dup3\n                /* \"#utility.yul\":10976:10992   */\n              shl\n                /* \"#utility.yul\":10955:10992   */\n              swap1\n              pop\n                /* \"#utility.yul\":10892:10999   */\n              swap3\n              swap2\n              pop\n              pop\n              jump\t// out\n                /* \"#utility.yul\":11005:11398   */\n            tag_95:\n                /* \"#utility.yul\":11074:11080   */\n              0x00\n                /* \"#utility.yul\":11124:11125   */\n              0x08\n                /* \"#utility.yul\":11112:11122   */\n              dup4\n                /* \"#utility.yul\":11108:11126   */\n              mul\n                /* \"#utility.yul\":11147:11244   */\n              tag_228\n                /* \"#utility.yul\":11177:11243   */\n              0xffffffffffffffffffffffffffffffffffffffffffffffffffffffffffffffff\n                /* \"#utility.yul\":11166:11175   */\n              dup3\n                /* \"#utility.yul\":11147:11244   */\n              tag_94\n              jump\t// in\n            tag_228:\n                /* \"#utility.yul\":11265:11304   */\n              tag_229\n                /* \"#utility.yul\":11295:11303   */\n              dup7\n                /* \"#utility.yul\":11284:11293   */\n              dup4\n                /* \"#utility.yul\":11265:11304   */\n              tag_94\n              jump\t// in\n            tag_229:\n                /* \"#utility.yul\":11253:11304   */\n              swap6\n              pop\n                /* \"#utility.yul\":11337:11341   */\n              dup1\n                /* \"#utility.yul\":11333:11342   */\n              not\n                /* \"#utility.yul\":11326:11331   */\n              dup5\n                /* \"#utility.yul\":11322:11343   */\n              and\n                /* \"#utility.yul\":11313:11343   */\n              swap4\n              pop\n                /* \"#utility.yul\":11386:11390   */\n              dup1\n                /* \"#utility.yul\":11376:11384   */\n              dup7\n                /* \"#utility.yul\":11372:11391   */\n              and\n                /* \"#utility.yul\":11365:11370   */\n              dup5\n                /* \"#utility.yul\":11362:11392   */\n              or\n                /* \"#utility.yul\":11352:11392   */\n              swap3\n              pop\n                /* \"#utility.yul\":11081:11398   */\n              pop\n              pop\n                /* \"#utility.yul\":11005:11398   */\n              swap4\n              swap3\n              pop\n              pop\n              pop\n              jump\t// out\n                /* \"#utility.yul\":11404:11464   */\n            tag_96:\n                /* \"#utility.yul\":11432:11435   */\n              0x00\n                /* \"#utility.yul\":11453:11458   */\n              dup2\n                /* \"#utility.yul\":11446:11458   */\n              swap1\n              pop\n                /* \"#utility.yul\":11404:11464   */\n              swap2\n              swap1\n              pop\n              jump\t// out\n                /* \"#utility.yul\":11470:11612   */\n            tag_97:\n                /* \"#utility.yul\":11520:11529   */\n              0x00\n                /* \"#utility.yul\":11553:11606   */\n              tag_232\n                /* \"#utility.yul\":11571:11605   */\n              tag_233\n                /* \"#utility.yul\":11580:11604   */\n              tag_234\n                /* \"#utility.yul\":11598:11603   */\n              dup5\n                /* \"#utility.yul\":11580:11604   */\n              tag_69\n              jump\t// in\n            tag_234:\n                /* \"#utility.yul\":11571:11605   */\n              tag_96\n              jump\t// in\n            tag_233:\n                /* \"#utility.yul\":11553:11606   */\n              tag_69\n              jump\t// in\n            tag_232:\n                /* \"#utility.yul\":11540:11606   */\n              swap1\n              pop\n                /* \"#utility.yul\":11470:11612   */\n              swap2\n              swap1\n              pop\n              jump\t// out\n                /* \"#utility.yul\":11618:11693   */\n            tag_98:\n                /* \"#utility.yul\":11661:11664   */\n              0x00\n                /* \"#utility.yul\":11682:11687   */\n              dup2\n                /* \"#utility.yul\":11675:11687   */\n              swap1\n              pop\n                /* \"#utility.yul\":11618:11693   */\n              swap2\n              swap1\n              pop\n              jump\t// out\n                /* \"#utility.yul\":11699:11968   */\n            tag_99:\n                /* \"#utility.yul\":11809:11848   */\n              tag_237\n                /* \"#utility.yul\":11840:11847   */\n              dup4\n                /* \"#utility.yul\":11809:11848   */\n              tag_97\n              jump\t// in\n            tag_237:\n                /* \"#utility.yul\":11870:11961   */\n              tag_238\n                /* \"#utility.yul\":11919:11960   */\n              tag_239\n                /* \"#utility.yul\":11943:11959   */\n              dup3\n                /* \"#utility.yul\":11919:11960   */\n              tag_98\n              jump\t// in\n            tag_239:\n                /* \"#utility.yul\":11911:11917   */\n              dup5\n                /* \"#utility.yul\":11904:11908   */\n              dup5\n                /* \"#utility.yul\":11898:11909   */\n              sload\n                /* \"#utility.yul\":11870:11961   */\n              tag_95\n              jump\t// in\n            tag_238:\n                /* \"#utility.yul\":11864:11868   */\n              dup3\n                /* \"#utility.yul\":11857:11962   */\n              sstore\n                /* \"#utility.yul\":11775:11968   */\n              pop\n                /* \"#utility.yul\":11699:11968   */\n              pop\n              pop\n              pop\n              jump\t// out\n                /* \"#utility.yul\":11974:12047   */\n            tag_100:\n                /* \"#utility.yul\":12019:12022   */\n              0x00\n                /* \"#utility.yul\":12040:12041   */\n              0x00\n                /* \"#utility.yul\":12033:12041   */\n              swap1\n              pop\n                /* \"#utility.yul\":11974:12047   */\n              swap1\n              jump\t// out\n                /* \"#utility.yul\":12053:12242   */\n            tag_101:\n                /* \"#utility.yul\":12130:12162   */\n              tag_242\n              tag_100\n              jump\t// in\n            tag_242:\n                /* \"#utility.yul\":12171:12236   */\n              tag_243\n                /* \"#utility.yul\":12229:12235   */\n              dup2\n                /* \"#utility.yul\":12221:12227   */\n              dup5\n                /* \"#utility.yul\":12215:12219   */\n              dup5\n                /* \"#utility.yul\":12171:12236   */\n              tag_99\n              jump\t// in\n            tag_243:\n                /* \"#utility.yul\":12106:12242   */\n              pop\n                /* \"#utility.yul\":12053:12242   */\n              pop\n              pop\n              jump\t// out\n                /* \"#utility.yul\":12248:12434   */\n            tag_102:\n                /* \"#utility.yul\":12308:12428   */\n            tag_245:\n                /* \"#utility.yul\":12325:12328   */\n              dup2\n                /* \"#utility.yul\":12318:12323   */\n              dup2\n                /* \"#utility.yul\":12315:12329   */\n              lt\n                /* \"#utility.yul\":12308:12428   */\n              iszero\n              tag_247\n              jumpi\n                /* \"#utility.yul\":12379:12418   */\n              tag_248\n                /* \"#utility.yul\":12416:12417   */\n              0x00\n                /* \"#utility.yul\":12409:12414   */\n              dup3\n                /* \"#utility.yul\":12379:12418   */\n              tag_101\n              jump\t// in\n            tag_248:\n                /* \"#utility.yul\":12352:12353   */\n              0x01\n                /* \"#utility.yul\":12345:12350   */\n              dup2\n                /* \"#utility.yul\":12341:12354   */\n              add\n                /* \"#utility.yul\":12332:12354   */\n              swap1\n              pop\n                /* \"#utility.yul\":12308:12428   */\n              jump(tag_245)\n            tag_247:\n                /* \"#utility.yul\":12248:12434   */\n              pop\n              pop\n              jump\t// out\n                /* \"#utility.yul\":12440:12983   */\n            tag_103:\n                /* \"#utility.yul\":12541:12543   */\n              0x1f\n                /* \"#utility.yul\":12536:12539   */\n              dup3\n                /* \"#utility.yul\":12533:12544   */\n              gt\n                /* \"#utility.yul\":12530:12976   */\n              iszero\n              tag_250\n              jumpi\n                /* \"#utility.yul\":12575:12613   */\n              tag_251\n                /* \"#utility.yul\":12607:12612   */\n              dup2\n                /* \"#utility.yul\":12575:12613   */\n              tag_92\n              jump\t// in\n            tag_251:\n                /* \"#utility.yul\":12659:12688   */\n              tag_252\n                /* \"#utility.yul\":12677:12687   */\n              dup5\n                /* \"#utility.yul\":12659:12688   */\n              tag_93\n              jump\t// in\n            tag_252:\n                /* \"#utility.yul\":12649:12657   */\n              dup2\n                /* \"#utility.yul\":12645:12689   */\n              add\n                /* \"#utility.yul\":12842:12844   */\n              0x20\n                /* \"#utility.yul\":12830:12840   */\n              dup6\n                /* \"#utility.yul\":12827:12845   */\n              lt\n                /* \"#utility.yul\":12824:12873   */\n              iszero\n              tag_253\n              jumpi\n                /* \"#utility.yul\":12863:12871   */\n              dup2\n                /* \"#utility.yul\":12848:12871   */\n              swap1\n              pop\n                /* \"#utility.yul\":12824:12873   */\n            tag_253:\n                /* \"#utility.yul\":12886:12966   */\n              tag_254\n                /* \"#utility.yul\":12942:12964   */\n              tag_255\n                /* \"#utility.yul\":12960:12963   */\n              dup6\n                /* \"#utility.yul\":12942:12964   */\n              tag_93\n              jump\t// in\n            tag_255:\n                /* \"#utility.yul\":12932:12940   */\n              dup4\n                /* \"#utility.yul\":12928:12965   */\n              add\n                /* \"#utility.yul\":12915:12926   */\n              dup3\n                /* \"#utility.yul\":12886:12966   */\n              tag_102\n              jump\t// in\n            tag_254:\n                /* \"#utility.yul\":12545:12976   */\n              pop\n              pop\n                /* \"#utility.yul\":12530:12976   */\n            tag_250:\n                /* \"#utility.yul\":12440:12983   */\n              pop\n              pop\n              pop\n              jump\t// out\n                /* \"#utility.yul\":12989:13106   */\n            tag_104:\n                /* \"#utility.yul\":13043:13051   */\n              0x00\n                /* \"#utility.yul\":13093:13098   */\n              dup3\n                /* \"#utility.yul\":13087:13091   */\n              dup3\n                /* \"#utility.yul\":13083:13099   */\n              shr\n                /* \"#utility.yul\":13062:13099   */\n              swap1\n              pop\n                /* \"#utility.yul\":12989:13106   */\n              swap3\n              swap2\n              pop\n              pop\n              jump\t// out\n                /* \"#utility.yul\":13112:13281   */\n            tag_105:\n                /* \"#utility.yul\":13156:13162   */\n              0x00\n                /* \"#utility.yul\":13189:13240   */\n              tag_258\n                /* \"#utility.yul\":13237:13238   */\n              0x00\n                /* \"#utility.yul\":13233:13239   */\n              not\n                /* \"#utility.yul\":13225:13230   */\n              dup5\n                /* \"#utility.yul\":13222:13223   */\n              0x08\n                /* \"#utility.yul\":13218:13231   */\n              mul\n                /* \"#utility.yul\":13189:13240   */\n              tag_104\n              jump\t// in\n            tag_258:\n                /* \"#utility.yul\":13185:13241   */\n              not\n                /* \"#utility.yul\":13270:13274   */\n              dup1\n                /* \"#utility.yul\":13264:13268   */\n              dup4\n                /* \"#utility.yul\":13260:13275   */\n              and\n                /* \"#utility.yul\":13250:13275   */\n              swap2\n              pop\n                /* \"#utility.yul\":13163:13281   */\n              pop\n                /* \"#utility.yul\":13112:13281   */\n              swap3\n              swap2\n              pop\n              pop\n              jump\t// out\n                /* \"#utility.yul\":13286:13581   */\n            tag_106:\n                /* \"#utility.yul\":13362:13366   */\n              0x00\n                /* \"#utility.yul\":13508:13537   */\n              tag_260\n                /* \"#utility.yul\":13533:13536   */\n              dup4\n                /* \"#utility.yul\":13527:13531   */\n              dup4\n                /* \"#utility.yul\":13508:13537   */\n              tag_105\n              jump\t// in\n            tag_260:\n                /* \"#utility.yul\":13500:13537   */\n              swap2\n              pop\n                /* \"#utility.yul\":13570:13573   */\n              dup3\n                /* \"#utility.yul\":13567:13568   */\n              0x02\n                /* \"#utility.yul\":13563:13574   */\n              mul\n                /* \"#utility.yul\":13557:13561   */\n              dup3\n                /* \"#utility.yul\":13554:13575   */\n              or\n                /* \"#utility.yul\":13546:13575   */\n              swap1\n              pop\n                /* \"#utility.yul\":13286:13581   */\n              swap3\n              swap2\n              pop\n              pop\n              jump\t// out\n                /* \"#utility.yul\":13586:14981   */\n            tag_41:\n                /* \"#utility.yul\":13703:13740   */\n              tag_262\n                /* \"#utility.yul\":13736:13739   */\n              dup3\n                /* \"#utility.yul\":13703:13740   */\n              tag_87\n              jump\t// in\n            tag_262:\n                /* \"#utility.yul\":13805:13823   */\n              0xffffffffffffffff\n                /* \"#utility.yul\":13797:13803   */\n              dup2\n                /* \"#utility.yul\":13794:13824   */\n              gt\n                /* \"#utility.yul\":13791:13847   */\n              iszero\n              tag_263\n              jumpi\n                /* \"#utility.yul\":13827:13845   */\n              tag_264\n              tag_64\n              jump\t// in\n            tag_264:\n                /* \"#utility.yul\":13791:13847   */\n            tag_263:\n                /* \"#utility.yul\":13871:13909   */\n              tag_265\n                /* \"#utility.yul\":13903:13907   */\n              dup3\n                /* \"#utility.yul\":13897:13908   */\n              sload\n                /* \"#utility.yul\":13871:13909   */\n              tag_47\n              jump\t// in\n            tag_265:\n                /* \"#utility.yul\":13956:14023   */\n              tag_266\n                /* \"#utility.yul\":14016:14022   */\n              dup3\n                /* \"#utility.yul\":14008:14014   */\n              dup3\n                /* \"#utility.yul\":14002:14006   */\n              dup6\n                /* \"#utility.yul\":13956:14023   */\n              tag_103\n              jump\t// in\n            tag_266:\n                /* \"#utility.yul\":14050:14051   */\n              0x00\n                /* \"#utility.yul\":14074:14078   */\n              0x20\n                /* \"#utility.yul\":14061:14078   */\n              swap1\n              pop\n                /* \"#utility.yul\":14106:14108   */\n              0x1f\n                /* \"#utility.yul\":14098:14104   */\n              dup4\n                /* \"#utility.yul\":14095:14109   */\n              gt\n                /* \"#utility.yul\":14123:14124   */\n              0x01\n                /* \"#utility.yul\":14118:14736   */\n              dup2\n              eq\n              tag_268\n              jumpi\n                /* \"#utility.yul\":14780:14781   */\n              0x00\n                /* \"#utility.yul\":14797:14803   */\n              dup5\n                /* \"#utility.yul\":14794:14871   */\n              iszero\n              tag_269\n              jumpi\n                /* \"#utility.yul\":14846:14855   */\n              dup3\n                /* \"#utility.yul\":14841:14844   */\n              dup8\n                /* \"#utility.yul\":14837:14856   */\n              add\n                /* \"#utility.yul\":14831:14857   */\n              mload\n                /* \"#utility.yul\":14822:14857   */\n              swap1\n              pop\n                /* \"#utility.yul\":14794:14871   */\n            tag_269:\n                /* \"#utility.yul\":14897:14964   */\n              tag_270\n                /* \"#utility.yul\":14957:14963   */\n              dup6\n                /* \"#utility.yul\":14950:14955   */\n              dup3\n                /* \"#utility.yul\":14897:14964   */\n              tag_106\n              jump\t// in\n            tag_270:\n                /* \"#utility.yul\":14891:14895   */\n              dup7\n                /* \"#utility.yul\":14884:14965   */\n              sstore\n                /* \"#utility.yul\":14753:14975   */\n              pop\n                /* \"#utility.yul\":14088:14975   */\n              jump(tag_267)\n                /* \"#utility.yul\":14118:14736   */\n            tag_268:\n                /* \"#utility.yul\":14170:14174   */\n              0x1f\n                /* \"#utility.yul\":14166:14175   */\n              not\n                /* \"#utility.yul\":14158:14164   */\n              dup5\n                /* \"#utility.yul\":14154:14176   */\n              and\n                /* \"#utility.yul\":14204:14241   */\n              tag_271\n                /* \"#utility.yul\":14236:14240   */\n              dup7\n                /* \"#utility.yul\":14204:14241   */\n              tag_92\n              jump\t// in\n            tag_271:\n                /* \"#utility.yul\":14263:14264   */\n              0x00\n                /* \"#utility.yul\":14277:14485   */\n            tag_272:\n                /* \"#utility.yul\":14291:14298   */\n              dup3\n                /* \"#utility.yul\":14288:14289   */\n              dup2\n                /* \"#utility.yul\":14285:14299   */\n              lt\n                /* \"#utility.yul\":14277:14485   */\n              iszero\n              tag_274\n              jumpi\n                /* \"#utility.yul\":14370:14379   */\n              dup5\n                /* \"#utility.yul\":14365:14368   */\n              dup10\n                /* \"#utility.yul\":14361:14380   */\n              add\n                /* \"#utility.yul\":14355:14381   */\n              mload\n                /* \"#utility.yul\":14347:14353   */\n              dup3\n                /* \"#utility.yul\":14340:14382   */\n              sstore\n                /* \"#utility.yul\":14421:14422   */\n              0x01\n                /* \"#utility.yul\":14413:14419   */\n              dup3\n                /* \"#utility.yul\":14409:14423   */\n              add\n                /* \"#utility.yul\":14399:14423   */\n              swap2\n              pop\n                /* \"#utility.yul\":14468:14470   */\n              0x20\n                /* \"#utility.yul\":14457:14466   */\n              dup6\n                /* \"#utility.yul\":14453:14471   */\n              add\n                /* \"#utility.yul\":14440:14471   */\n              swap5\n              pop\n                /* \"#utility.yul\":14314:14318   */\n              0x20\n                /* \"#utility.yul\":14311:14312   */\n              dup2\n                /* \"#utility.yul\":14307:14319   */\n              add\n                /* \"#utility.yul\":14302:14319   */\n              swap1\n              pop\n                /* \"#utility.yul\":14277:14485   */\n              jump(tag_272)\n            tag_274:\n                /* \"#utility.yul\":14513:14519   */\n              dup7\n                /* \"#utility.yul\":14504:14511   */\n              dup4\n                /* \"#utility.yul\":14501:14520   */\n              lt\n                /* \"#utility.yul\":14498:14677   */\n              iszero\n              tag_275\n              jumpi\n                /* \"#utility.yul\":14571:14580   */\n              dup5\n                /* \"#utility.yul\":14566:14569   */\n              dup10\n                /* \"#utility.yul\":14562:14581   */\n              add\n                /* \"#utility.yul\":14556:14582   */\n              mload\n                /* \"#utility.yul\":14614:14662   */\n              tag_276\n                /* \"#utility.yul\":14656:14660   */\n              0x1f\n                /* \"#utility.yul\":14648:14654   */\n              dup10\n                /* \"#utility.yul\":14644:14661   */\n              and\n                /* \"#utility.yul\":14633:14642   */\n              dup3\n                /* \"#utility.yul\":14614:14662   */\n              tag_105\n              jump\t// in\n            tag_276:\n                /* \"#utility.yul\":14606:14612   */\n              dup4\n                /* \"#utility.yul\":14599:14663   */\n              sstore\n                /* \"#utility.yul\":14521:14677   */\n              pop\n                /* \"#utility.yul\":14498:14677   */\n            tag_275:\n                /* \"#utility.yul\":14723:14724   */\n              0x01\n                /* \"#utility.yul\":14719:14720   */\n              0x02\n                /* \"#utility.yul\":14711:14717   */\n              dup9\n                /* \"#utility.yul\":14707:14721   */\n              mul\n                /* \"#utility.yul\":14703:14725   */\n              add\n                /* \"#utility.yul\":14697:14701   */\n              dup9\n                /* \"#utility.yul\":14690:14726   */\n              sstore\n                /* \"#utility.yul\":14125:14736   */\n              pop\n              pop\n              pop\n                /* \"#utility.yul\":14088:14975   */\n            tag_267:\n              pop\n                /* \"#utility.yul\":13678:14981   */\n              pop\n              pop\n              pop\n                /* \"#utility.yul\":13586:14981   */\n              pop\n              pop\n              jump\t// out\n                /* \"#utility.yul\":14987:15135   */\n            tag_107:\n                /* \"#utility.yul\":15089:15100   */\n              0x00\n                /* \"#utility.yul\":15126:15129   */\n              dup2\n                /* \"#utility.yul\":15111:15129   */\n              swap1\n              pop\n                /* \"#utility.yul\":14987:15135   */\n              swap3\n              swap2\n              pop\n              pop\n              jump\t// out\n                /* \"#utility.yul\":15141:15531   */\n            tag_108:\n                /* \"#utility.yul\":15247:15250   */\n              0x00\n                /* \"#utility.yul\":15275:15314   */\n              tag_279\n                /* \"#utility.yul\":15308:15313   */\n              dup3\n                /* \"#utility.yul\":15275:15314   */\n              tag_87\n              jump\t// in\n            tag_279:\n                /* \"#utility.yul\":15330:15419   */\n              tag_280\n                /* \"#utility.yul\":15412:15418   */\n              dup2\n                /* \"#utility.yul\":15407:15410   */\n              dup6\n                /* \"#utility.yul\":15330:15419   */\n              tag_107\n              jump\t// in\n            tag_280:\n                /* \"#utility.yul\":15323:15419   */\n              swap4\n              pop\n                /* \"#utility.yul\":15428:15493   */\n              tag_281\n                /* \"#utility.yul\":15486:15492   */\n              dup2\n                /* \"#utility.yul\":15481:15484   */\n              dup6\n                /* \"#utility.yul\":15474:15478   */\n              0x20\n                /* \"#utility.yul\":15467:15472   */\n              dup7\n                /* \"#utility.yul\":15463:15479   */\n              add\n                /* \"#utility.yul\":15428:15493   */\n              tag_89\n              jump\t// in\n            tag_281:\n                /* \"#utility.yul\":15518:15524   */\n              dup1\n                /* \"#utility.yul\":15513:15516   */\n              dup5\n                /* \"#utility.yul\":15509:15525   */\n              add\n                /* \"#utility.yul\":15502:15525   */\n              swap2\n              pop\n                /* \"#utility.yul\":15251:15531   */\n              pop\n                /* \"#utility.yul\":15141:15531   */\n              swap3\n              swap2\n              pop\n              pop\n              jump\t// out\n                /* \"#utility.yul\":15537:15812   */\n            tag_43:\n                /* \"#utility.yul\":15669:15672   */\n              0x00\n                /* \"#utility.yul\":15691:15786   */\n              tag_283\n                /* \"#utility.yul\":15782:15785   */\n              dup3\n                /* \"#utility.yul\":15773:15779   */\n              dup5\n                /* \"#utility.yul\":15691:15786   */\n              tag_108\n              jump\t// in\n            tag_283:\n                /* \"#utility.yul\":15684:15786   */\n              swap2\n              pop\n                /* \"#utility.yul\":15803:15806   */\n              dup2\n                /* \"#utility.yul\":15796:15806   */\n              swap1\n              pop\n                /* \"#utility.yul\":15537:15812   */\n              swap3\n              swap2\n              pop\n              pop\n              jump\t// out\n\n            auxdata: 0xa2646970667358221220890e9fe7e8eec71fdf1ce7151194b2a64f39c13632bd863c9b32f3489d20736564736f6c634300081e0033\n        }\n    }\n\n    auxdata: 0xa2646970667358221220141b3a607c737fa911f0b1e98bb92d7f4d45e19695dd2063c612eb0da52a3f2764736f6c634300081e0033\n}\n",
				"bytecode": {
					"linkReferences": {},
					"object": "6080604052348015600e575f5ffd5b506114e18061001c5f395ff3fe608060405234801561000f575f5ffd5b506004361061004a575f3560e01c80631dda65411461004e5780634a999e6714610058578063c5f19c2014610074578063f39f3035146100a4575b5f5ffd5b6100566100d4565b005b610072600480360381019061006d9190610519565b61015f565b005b61008e60048036038101906100899190610573565b610220565b60405161009b9190610655565b60405180910390f35b6100be60048036038101906100b99190610573565b6102d8565b6040516100cb91906106ef565b60405180910390f35b5f6040516100e190610312565b604051809103905ff0801580156100fa573d5f5f3e3d5ffd5b5090505f81908060018154018082558091505060019003905f5260205f20015f9091909190916101000a81548173ffffffffffffffffffffffffffffffffffffffff021916908373ffffffffffffffffffffffffffffffffffffffff16021790555050565b5f5f838154811061017357610172610708565b5b905f5260205f20015f9054906101000a900473ffffffffffffffffffffffffffffffffffffffff16905081600190805190602001906101b392919061031f565b508073ffffffffffffffffffffffffffffffffffffffff166306bd010d60016040518263ffffffff1660e01b81526004016101ee91906107ff565b5f604051808303815f87803b158015610205575f5ffd5b505af1158015610217573d5f5f3e3d5ffd5b50505050505050565b60605f5f838154811061023657610235610708565b5b905f5260205f20015f9054906101000a900473ffffffffffffffffffffffffffffffffffffffff1690508073ffffffffffffffffffffffffffffffffffffffff16632e64cec16040518163ffffffff1660e01b81526004015f60405180830381865afa1580156102a8573d5f5f3e3d5ffd5b505050506040513d5f823e3d601f19601f820116820180604052508101906102d091906108c8565b915050919050565b5f81815481106102e6575f80fd5b905f5260205f20015f915054906101000a900473ffffffffffffffffffffffffffffffffffffffff1681565b610b9c8061091083390190565b828054828255905f5260205f20908101928215610359579160200282015b8281111561035857825182559160200191906001019061033d565b5b509050610366919061036a565b5090565b5b80821115610381575f815f90555060010161036b565b5090565b5f604051905090565b5f5ffd5b5f5ffd5b5f819050919050565b6103a881610396565b81146103b2575f5ffd5b50565b5f813590506103c38161039f565b92915050565b5f5ffd5b5f601f19601f8301169050919050565b7f4e487b71000000000000000000000000000000000000000000000000000000005f52604160045260245ffd5b610413826103cd565b810181811067ffffffffffffffff82111715610432576104316103dd565b5b80604052505050565b5f610444610385565b9050610450828261040a565b919050565b5f67ffffffffffffffff82111561046f5761046e6103dd565b5b602082029050602081019050919050565b5f5ffd5b5f61049661049184610455565b61043b565b905080838252602082019050602084028301858111156104b9576104b8610480565b5b835b818110156104e257806104ce88826103b5565b8452602084019350506020810190506104bb565b5050509392505050565b5f82601f830112610500576104ff6103c9565b5b8135610510848260208601610484565b91505092915050565b5f5f6040838503121561052f5761052e61038e565b5b5f61053c858286016103b5565b925050602083013567ffffffffffffffff81111561055d5761055c610392565b5b610569858286016104ec565b9150509250929050565b5f602082840312156105885761058761038e565b5b5f610595848285016103b5565b91505092915050565b5f81519050919050565b5f82825260208201905092915050565b5f819050602082019050919050565b6105d081610396565b82525050565b5f6105e183836105c7565b60208301905092915050565b5f602082019050919050565b5f6106038261059e565b61060d81856105a8565b9350610618836105b8565b805f5b8381101561064857815161062f88826105d6565b975061063a836105ed565b92505060018101905061061b565b5085935050505092915050565b5f6020820190508181035f83015261066d81846105f9565b905092915050565b5f73ffffffffffffffffffffffffffffffffffffffff82169050919050565b5f819050919050565b5f6106b76106b26106ad84610675565b610694565b610675565b9050919050565b5f6106c88261069d565b9050919050565b5f6106d9826106be565b9050919050565b6106e9816106cf565b82525050565b5f6020820190506107025f8301846106e0565b92915050565b7f4e487b71000000000000000000000000000000000000000000000000000000005f52603260045260245ffd5b5f81549050919050565b5f819050815f5260205f209050919050565b5f815f1c9050919050565b5f819050919050565b5f61077761077283610751565b61075c565b9050919050565b5f6107898254610765565b9050919050565b5f600182019050919050565b5f6107a682610735565b6107b081856105a8565b93506107bb8361073f565b805f5b838110156107f2576107cf8261077e565b6107d988826105d6565b97506107e483610790565b9250506001810190506107be565b5085935050505092915050565b5f6020820190508181035f830152610817818461079c565b905092915050565b5f8151905061082d8161039f565b92915050565b5f61084561084084610455565b61043b565b9050808382526020820190506020840283018581111561086857610867610480565b5b835b81811015610891578061087d888261081f565b84526020840193505060208101905061086a565b5050509392505050565b5f82601f8301126108af576108ae6103c9565b5b81516108bf848260208601610833565b91505092915050565b5f602082840312156108dd576108dc61038e565b5b5f82015167ffffffffffffffff8111156108fa576108f9610392565b5b6109068482850161089b565b9150509291505056fe6080604052348015600e575f5ffd5b50610b808061001c5f395ff3fe608060405234801561000f575f5ffd5b5060043610610055575f3560e01c806306bd010d146100595780632e64cec1146100755780635b54633c146100935780638bab8dd5146100af5780639e7a13ad146100df575b5f5ffd5b610073600480360381019061006e91906104de565b610110565b005b61007d610129565b60405161008a91906105dc565b60405180910390f35b6100ad60048036038101906100a891906106ac565b61017e565b005b6100c960048036038101906100c49190610706565b610202565b6040516100d6919061075c565b60405180910390f35b6100f960048036038101906100f49190610775565b61022f565b604051610107929190610800565b60405180910390f35b805f90805190602001906101259291906102e4565b5050565b60605f80548060200260200160405190810160405280929190818152602001828054801561017457602002820191905f5260205f20905b815481526020019060010190808311610160575b5050505050905090565b6001604051806040016040528083815260200184815250908060018154018082558091505060019003905f5260205f2090600202015f909190919091505f820151815f015560208201518160010190816101d89190610a2b565b505050806002836040516101ec9190610b34565b9081526020016040518091039020819055505050565b6002818051602081018201805184825260208301602085012081835280955050505050505f915090505481565b6001818154811061023e575f80fd5b905f5260205f2090600202015f91509050805f0154908060010180546102639061085b565b80601f016020809104026020016040519081016040528092919081815260200182805461028f9061085b565b80156102da5780601f106102b1576101008083540402835291602001916102da565b820191905f5260205f20905b8154815290600101906020018083116102bd57829003601f168201915b5050505050905082565b828054828255905f5260205f2090810192821561031e579160200282015b8281111561031d578251825591602001919060010190610302565b5b50905061032b919061032f565b5090565b5b80821115610346575f815f905550600101610330565b5090565b5f604051905090565b5f5ffd5b5f5ffd5b5f5ffd5b5f601f19601f8301169050919050565b7f4e487b71000000000000000000000000000000000000000000000000000000005f52604160045260245ffd5b6103a58261035f565b810181811067ffffffffffffffff821117156103c4576103c361036f565b5b80604052505050565b5f6103d661034a565b90506103e2828261039c565b919050565b5f67ffffffffffffffff8211156104015761040061036f565b5b602082029050602081019050919050565b5f5ffd5b5f819050919050565b61042881610416565b8114610432575f5ffd5b50565b5f813590506104438161041f565b92915050565b5f61045b610456846103e7565b6103cd565b9050808382526020820190506020840283018581111561047e5761047d610412565b5b835b818110156104a757806104938882610435565b845260208401935050602081019050610480565b5050509392505050565b5f82601f8301126104c5576104c461035b565b5b81356104d5848260208601610449565b91505092915050565b5f602082840312156104f3576104f2610353565b5b5f82013567ffffffffffffffff8111156105105761050f610357565b5b61051c848285016104b1565b91505092915050565b5f81519050919050565b5f82825260208201905092915050565b5f819050602082019050919050565b61055781610416565b82525050565b5f610568838361054e565b60208301905092915050565b5f602082019050919050565b5f61058a82610525565b610594818561052f565b935061059f8361053f565b805f5b838110156105cf5781516105b6888261055d565b97506105c183610574565b9250506001810190506105a2565b5085935050505092915050565b5f6020820190508181035f8301526105f48184610580565b905092915050565b5f5ffd5b5f67ffffffffffffffff82111561061a5761061961036f565b5b6106238261035f565b9050602081019050919050565b828183375f83830152505050565b5f61065061064b84610600565b6103cd565b90508281526020810184848401111561066c5761066b6105fc565b5b610677848285610630565b509392505050565b5f82601f8301126106935761069261035b565b5b81356106a384826020860161063e565b91505092915050565b5f5f604083850312156106c2576106c1610353565b5b5f83013567ffffffffffffffff8111156106df576106de610357565b5b6106eb8582860161067f565b92505060206106fc85828601610435565b9150509250929050565b5f6020828403121561071b5761071a610353565b5b5f82013567ffffffffffffffff81111561073857610737610357565b5b6107448482850161067f565b91505092915050565b61075681610416565b82525050565b5f60208201905061076f5f83018461074d565b92915050565b5f6020828403121561078a57610789610353565b5b5f61079784828501610435565b91505092915050565b5f81519050919050565b5f82825260208201905092915050565b8281835e5f83830152505050565b5f6107d2826107a0565b6107dc81856107aa565b93506107ec8185602086016107ba565b6107f58161035f565b840191505092915050565b5f6040820190506108135f83018561074d565b818103602083015261082581846107c8565b90509392505050565b7f4e487b71000000000000000000000000000000000000000000000000000000005f52602260045260245ffd5b5f600282049050600182168061087257607f821691505b6020821081036108855761088461082e565b5b50919050565b5f819050815f5260205f209050919050565b5f6020601f8301049050919050565b5f82821b905092915050565b5f600883026108e77fffffffffffffffffffffffffffffffffffffffffffffffffffffffffffffffff826108ac565b6108f186836108ac565b95508019841693508086168417925050509392505050565b5f819050919050565b5f61092c61092761092284610416565b610909565b610416565b9050919050565b5f819050919050565b61094583610912565b61095961095182610933565b8484546108b8565b825550505050565b5f5f905090565b610970610961565b61097b81848461093c565b505050565b5b8181101561099e576109935f82610968565b600181019050610981565b5050565b601f8211156109e3576109b48161088b565b6109bd8461089d565b810160208510156109cc578190505b6109e06109d88561089d565b830182610980565b50505b505050565b5f82821c905092915050565b5f610a035f19846008026109e8565b1980831691505092915050565b5f610a1b83836109f4565b9150826002028217905092915050565b610a34826107a0565b67ffffffffffffffff811115610a4d57610a4c61036f565b5b610a57825461085b565b610a628282856109a2565b5f60209050601f831160018114610a93575f8415610a81578287015190505b610a8b8582610a10565b865550610af2565b601f198416610aa18661088b565b5f5b82811015610ac857848901518255600182019150602085019450602081019050610aa3565b86831015610ae55784890151610ae1601f8916826109f4565b8355505b6001600288020188555050505b505050505050565b5f81905092915050565b5f610b0e826107a0565b610b188185610afa565b9350610b288185602086016107ba565b80840191505092915050565b5f610b3f8284610b04565b91508190509291505056fea2646970667358221220890e9fe7e8eec71fdf1ce7151194b2a64f39c13632bd863c9b32f3489d20736564736f6c634300081e0033a2646970667358221220141b3a607c737fa911f0b1e98bb92d7f4d45e19695dd2063c612eb0da52a3f2764736f6c634300081e0033",
					"opcodes": "PUSH1 0x80 PUSH1 0x40 MSTORE CALLVALUE DUP1 ISZERO PUSH1 0xE JUMPI PUSH0 PUSH0 REVERT JUMPDEST POP PUSH2 0x14E1 DUP1 PUSH2 0x1C PUSH0 CODECOPY PUSH0 RETURN INVALID PUSH1 0x80 PUSH1 0x40 MSTORE CALLVALUE DUP1 ISZERO PUSH2 0xF JUMPI PUSH0 PUSH0 REVERT JUMPDEST POP PUSH1 0x4 CALLDATASIZE LT PUSH2 0x4A JUMPI PUSH0 CALLDATALOAD PUSH1 0xE0 SHR DUP1 PUSH4 0x1DDA6541 EQ PUSH2 0x4E JUMPI DUP1 PUSH4 0x4A999E67 EQ PUSH2 0x58 JUMPI DUP1 PUSH4 0xC5F19C20 EQ PUSH2 0x74 JUMPI DUP1 PUSH4 0xF39F3035 EQ PUSH2 0xA4 JUMPI JUMPDEST PUSH0 PUSH0 REVERT JUMPDEST PUSH2 0x56 PUSH2 0xD4 JUMP JUMPDEST STOP JUMPDEST PUSH2 0x72 PUSH1 0x4 DUP1 CALLDATASIZE SUB DUP2 ADD SWAP1 PUSH2 0x6D SWAP2 SWAP1 PUSH2 0x519 JUMP JUMPDEST PUSH2 0x15F JUMP JUMPDEST STOP JUMPDEST PUSH2 0x8E PUSH1 0x4 DUP1 CALLDATASIZE SUB DUP2 ADD SWAP1 PUSH2 0x89 SWAP2 SWAP1 PUSH2 0x573 JUMP JUMPDEST PUSH2 0x220 JUMP JUMPDEST PUSH1 0x40 MLOAD PUSH2 0x9B SWAP2 SWAP1 PUSH2 0x655 JUMP JUMPDEST PUSH1 0x40 MLOAD DUP1 SWAP2 SUB SWAP1 RETURN JUMPDEST PUSH2 0xBE PUSH1 0x4 DUP1 CALLDATASIZE SUB DUP2 ADD SWAP1 PUSH2 0xB9 SWAP2 SWAP1 PUSH2 0x573 JUMP JUMPDEST PUSH2 0x2D8 JUMP JUMPDEST PUSH1 0x40 MLOAD PUSH2 0xCB SWAP2 SWAP1 PUSH2 0x6EF JUMP JUMPDEST PUSH1 0x40 MLOAD DUP1 SWAP2 SUB SWAP1 RETURN JUMPDEST PUSH0 PUSH1 0x40 MLOAD PUSH2 0xE1 SWAP1 PUSH2 0x312 JUMP JUMPDEST PUSH1 0x40 MLOAD DUP1 SWAP2 SUB SWAP1 PUSH0 CREATE DUP1 ISZERO DUP1 ISZERO PUSH2 0xFA JUMPI RETURNDATASIZE PUSH0 PUSH0 RETURNDATACOPY RETURNDATASIZE PUSH0 REVERT JUMPDEST POP SWAP1 POP PUSH0 DUP2 SWAP1 DUP1 PUSH1 0x1 DUP2 SLOAD ADD DUP1 DUP3 SSTORE DUP1 SWAP2 POP POP PUSH1 0x1 SWAP1 SUB SWAP1 PUSH0 MSTORE PUSH1 0x20 PUSH0 KECCAK256 ADD PUSH0 SWAP1 SWAP2 SWAP1 SWAP2 SWAP1 SWAP2 PUSH2 0x100 EXP DUP2 SLOAD DUP2 PUSH20 0xFFFFFFFFFFFFFFFFFFFFFFFFFFFFFFFFFFFFFFFF MUL NOT AND SWAP1 DUP4 PUSH20 0xFFFFFFFFFFFFFFFFFFFFFFFFFFFFFFFFFFFFFFFF AND MUL OR SWAP1 SSTORE POP POP JUMP JUMPDEST PUSH0 PUSH0 DUP4 DUP2 SLOAD DUP2 LT PUSH2 0x173 JUMPI PUSH2 0x172 PUSH2 0x708 JUMP JUMPDEST JUMPDEST SWAP1 PUSH0 MSTORE PUSH1 0x20 PUSH0 KECCAK256 ADD PUSH0 SWAP1 SLOAD SWAP1 PUSH2 0x100 EXP SWAP1 DIV PUSH20 0xFFFFFFFFFFFFFFFFFFFFFFFFFFFFFFFFFFFFFFFF AND SWAP1 POP DUP2 PUSH1 0x1 SWAP1 DUP1 MLOAD SWAP1 PUSH1 0x20 ADD SWAP1 PUSH2 0x1B3 SWAP3 SWAP2 SWAP1 PUSH2 0x31F JUMP JUMPDEST POP DUP1 PUSH20 0xFFFFFFFFFFFFFFFFFFFFFFFFFFFFFFFFFFFFFFFF AND PUSH4 0x6BD010D PUSH1 0x1 PUSH1 0x40 MLOAD DUP3 PUSH4 0xFFFFFFFF AND PUSH1 0xE0 SHL DUP2 MSTORE PUSH1 0x4 ADD PUSH2 0x1EE SWAP2 SWAP1 PUSH2 0x7FF JUMP JUMPDEST PUSH0 PUSH1 0x40 MLOAD DUP1 DUP4 SUB DUP2 PUSH0 DUP8 DUP1 EXTCODESIZE ISZERO DUP1 ISZERO PUSH2 0x205 JUMPI PUSH0 PUSH0 REVERT JUMPDEST POP GAS CALL ISZERO DUP1 ISZERO PUSH2 0x217 JUMPI RETURNDATASIZE PUSH0 PUSH0 RETURNDATACOPY RETURNDATASIZE PUSH0 REVERT JUMPDEST POP POP POP POP POP POP POP JUMP JUMPDEST PUSH1 0x60 PUSH0 PUSH0 DUP4 DUP2 SLOAD DUP2 LT PUSH2 0x236 JUMPI PUSH2 0x235 PUSH2 0x708 JUMP JUMPDEST JUMPDEST SWAP1 PUSH0 MSTORE PUSH1 0x20 PUSH0 KECCAK256 ADD PUSH0 SWAP1 SLOAD SWAP1 PUSH2 0x100 EXP SWAP1 DIV PUSH20 0xFFFFFFFFFFFFFFFFFFFFFFFFFFFFFFFFFFFFFFFF AND SWAP1 POP DUP1 PUSH20 0xFFFFFFFFFFFFFFFFFFFFFFFFFFFFFFFFFFFFFFFF AND PUSH4 0x2E64CEC1 PUSH1 0x40 MLOAD DUP2 PUSH4 0xFFFFFFFF AND PUSH1 0xE0 SHL DUP2 MSTORE PUSH1 0x4 ADD PUSH0 PUSH1 0x40 MLOAD DUP1 DUP4 SUB DUP2 DUP7 GAS STATICCALL ISZERO DUP1 ISZERO PUSH2 0x2A8 JUMPI RETURNDATASIZE PUSH0 PUSH0 RETURNDATACOPY RETURNDATASIZE PUSH0 REVERT JUMPDEST POP POP POP POP PUSH1 0x40 MLOAD RETURNDATASIZE PUSH0 DUP3 RETURNDATACOPY RETURNDATASIZE PUSH1 0x1F NOT PUSH1 0x1F DUP3 ADD AND DUP3 ADD DUP1 PUSH1 0x40 MSTORE POP DUP2 ADD SWAP1 PUSH2 0x2D0 SWAP2 SWAP1 PUSH2 0x8C8 JUMP JUMPDEST SWAP2 POP POP SWAP2 SWAP1 POP JUMP JUMPDEST PUSH0 DUP2 DUP2 SLOAD DUP2 LT PUSH2 0x2E6 JUMPI PUSH0 DUP1 REVERT JUMPDEST SWAP1 PUSH0 MSTORE PUSH1 0x20 PUSH0 KECCAK256 ADD PUSH0 SWAP2 POP SLOAD SWAP1 PUSH2 0x100 EXP SWAP1 DIV PUSH20 0xFFFFFFFFFFFFFFFFFFFFFFFFFFFFFFFFFFFFFFFF AND DUP2 JUMP JUMPDEST PUSH2 0xB9C DUP1 PUSH2 0x910 DUP4 CODECOPY ADD SWAP1 JUMP JUMPDEST DUP3 DUP1 SLOAD DUP3 DUP3 SSTORE SWAP1 PUSH0 MSTORE PUSH1 0x20 PUSH0 KECCAK256 SWAP1 DUP2 ADD SWAP3 DUP3 ISZERO PUSH2 0x359 JUMPI SWAP2 PUSH1 0x20 MUL DUP3 ADD JUMPDEST DUP3 DUP2 GT ISZERO PUSH2 0x358 JUMPI DUP3 MLOAD DUP3 SSTORE SWAP2 PUSH1 0x20 ADD SWAP2 SWAP1 PUSH1 0x1 ADD SWAP1 PUSH2 0x33D JUMP JUMPDEST JUMPDEST POP SWAP1 POP PUSH2 0x366 SWAP2 SWAP1 PUSH2 0x36A JUMP JUMPDEST POP SWAP1 JUMP JUMPDEST JUMPDEST DUP1 DUP3 GT ISZERO PUSH2 0x381 JUMPI PUSH0 DUP2 PUSH0 SWAP1 SSTORE POP PUSH1 0x1 ADD PUSH2 0x36B JUMP JUMPDEST POP SWAP1 JUMP JUMPDEST PUSH0 PUSH1 0x40 MLOAD SWAP1 POP SWAP1 JUMP JUMPDEST PUSH0 PUSH0 REVERT JUMPDEST PUSH0 PUSH0 REVERT JUMPDEST PUSH0 DUP2 SWAP1 POP SWAP2 SWAP1 POP JUMP JUMPDEST PUSH2 0x3A8 DUP2 PUSH2 0x396 JUMP JUMPDEST DUP2 EQ PUSH2 0x3B2 JUMPI PUSH0 PUSH0 REVERT JUMPDEST POP JUMP JUMPDEST PUSH0 DUP2 CALLDATALOAD SWAP1 POP PUSH2 0x3C3 DUP2 PUSH2 0x39F JUMP JUMPDEST SWAP3 SWAP2 POP POP JUMP JUMPDEST PUSH0 PUSH0 REVERT JUMPDEST PUSH0 PUSH1 0x1F NOT PUSH1 0x1F DUP4 ADD AND SWAP1 POP SWAP2 SWAP1 POP JUMP JUMPDEST PUSH32 0x4E487B7100000000000000000000000000000000000000000000000000000000 PUSH0 MSTORE PUSH1 0x41 PUSH1 0x4 MSTORE PUSH1 0x24 PUSH0 REVERT JUMPDEST PUSH2 0x413 DUP3 PUSH2 0x3CD JUMP JUMPDEST DUP2 ADD DUP2 DUP2 LT PUSH8 0xFFFFFFFFFFFFFFFF DUP3 GT OR ISZERO PUSH2 0x432 JUMPI PUSH2 0x431 PUSH2 0x3DD JUMP JUMPDEST JUMPDEST DUP1 PUSH1 0x40 MSTORE POP POP POP JUMP JUMPDEST PUSH0 PUSH2 0x444 PUSH2 0x385 JUMP JUMPDEST SWAP1 POP PUSH2 0x450 DUP3 DUP3 PUSH2 0x40A JUMP JUMPDEST SWAP2 SWAP1 POP JUMP JUMPDEST PUSH0 PUSH8 0xFFFFFFFFFFFFFFFF DUP3 GT ISZERO PUSH2 0x46F JUMPI PUSH2 0x46E PUSH2 0x3DD JUMP JUMPDEST JUMPDEST PUSH1 0x20 DUP3 MUL SWAP1 POP PUSH1 0x20 DUP2 ADD SWAP1 POP SWAP2 SWAP1 POP JUMP JUMPDEST PUSH0 PUSH0 REVERT JUMPDEST PUSH0 PUSH2 0x496 PUSH2 0x491 DUP5 PUSH2 0x455 JUMP JUMPDEST PUSH2 0x43B JUMP JUMPDEST SWAP1 POP DUP1 DUP4 DUP3 MSTORE PUSH1 0x20 DUP3 ADD SWAP1 POP PUSH1 0x20 DUP5 MUL DUP4 ADD DUP6 DUP2 GT ISZERO PUSH2 0x4B9 JUMPI PUSH2 0x4B8 PUSH2 0x480 JUMP JUMPDEST JUMPDEST DUP4 JUMPDEST DUP2 DUP2 LT ISZERO PUSH2 0x4E2 JUMPI DUP1 PUSH2 0x4CE DUP9 DUP3 PUSH2 0x3B5 JUMP JUMPDEST DUP5 MSTORE PUSH1 0x20 DUP5 ADD SWAP4 POP POP PUSH1 0x20 DUP2 ADD SWAP1 POP PUSH2 0x4BB JUMP JUMPDEST POP POP POP SWAP4 SWAP3 POP POP POP JUMP JUMPDEST PUSH0 DUP3 PUSH1 0x1F DUP4 ADD SLT PUSH2 0x500 JUMPI PUSH2 0x4FF PUSH2 0x3C9 JUMP JUMPDEST JUMPDEST DUP2 CALLDATALOAD PUSH2 0x510 DUP5 DUP3 PUSH1 0x20 DUP7 ADD PUSH2 0x484 JUMP JUMPDEST SWAP2 POP POP SWAP3 SWAP2 POP POP JUMP JUMPDEST PUSH0 PUSH0 PUSH1 0x40 DUP4 DUP6 SUB SLT ISZERO PUSH2 0x52F JUMPI PUSH2 0x52E PUSH2 0x38E JUMP JUMPDEST JUMPDEST PUSH0 PUSH2 0x53C DUP6 DUP3 DUP7 ADD PUSH2 0x3B5 JUMP JUMPDEST SWAP3 POP POP PUSH1 0x20 DUP4 ADD CALLDATALOAD PUSH8 0xFFFFFFFFFFFFFFFF DUP2 GT ISZERO PUSH2 0x55D JUMPI PUSH2 0x55C PUSH2 0x392 JUMP JUMPDEST JUMPDEST PUSH2 0x569 DUP6 DUP3 DUP7 ADD PUSH2 0x4EC JUMP JUMPDEST SWAP2 POP POP SWAP3 POP SWAP3 SWAP1 POP JUMP JUMPDEST PUSH0 PUSH1 0x20 DUP3 DUP5 SUB SLT ISZERO PUSH2 0x588 JUMPI PUSH2 0x587 PUSH2 0x38E JUMP JUMPDEST JUMPDEST PUSH0 PUSH2 0x595 DUP5 DUP3 DUP6 ADD PUSH2 0x3B5 JUMP JUMPDEST SWAP2 POP POP SWAP3 SWAP2 POP POP JUMP JUMPDEST PUSH0 DUP2 MLOAD SWAP1 POP SWAP2 SWAP1 POP JUMP JUMPDEST PUSH0 DUP3 DUP3 MSTORE PUSH1 0x20 DUP3 ADD SWAP1 POP SWAP3 SWAP2 POP POP JUMP JUMPDEST PUSH0 DUP2 SWAP1 POP PUSH1 0x20 DUP3 ADD SWAP1 POP SWAP2 SWAP1 POP JUMP JUMPDEST PUSH2 0x5D0 DUP2 PUSH2 0x396 JUMP JUMPDEST DUP3 MSTORE POP POP JUMP JUMPDEST PUSH0 PUSH2 0x5E1 DUP4 DUP4 PUSH2 0x5C7 JUMP JUMPDEST PUSH1 0x20 DUP4 ADD SWAP1 POP SWAP3 SWAP2 POP POP JUMP JUMPDEST PUSH0 PUSH1 0x20 DUP3 ADD SWAP1 POP SWAP2 SWAP1 POP JUMP JUMPDEST PUSH0 PUSH2 0x603 DUP3 PUSH2 0x59E JUMP JUMPDEST PUSH2 0x60D DUP2 DUP6 PUSH2 0x5A8 JUMP JUMPDEST SWAP4 POP PUSH2 0x618 DUP4 PUSH2 0x5B8 JUMP JUMPDEST DUP1 PUSH0 JUMPDEST DUP4 DUP2 LT ISZERO PUSH2 0x648 JUMPI DUP2 MLOAD PUSH2 0x62F DUP9 DUP3 PUSH2 0x5D6 JUMP JUMPDEST SWAP8 POP PUSH2 0x63A DUP4 PUSH2 0x5ED JUMP JUMPDEST SWAP3 POP POP PUSH1 0x1 DUP2 ADD SWAP1 POP PUSH2 0x61B JUMP JUMPDEST POP DUP6 SWAP4 POP POP POP POP SWAP3 SWAP2 POP POP JUMP JUMPDEST PUSH0 PUSH1 0x20 DUP3 ADD SWAP1 POP DUP2 DUP2 SUB PUSH0 DUP4 ADD MSTORE PUSH2 0x66D DUP2 DUP5 PUSH2 0x5F9 JUMP JUMPDEST SWAP1 POP SWAP3 SWAP2 POP POP JUMP JUMPDEST PUSH0 PUSH20 0xFFFFFFFFFFFFFFFFFFFFFFFFFFFFFFFFFFFFFFFF DUP3 AND SWAP1 POP SWAP2 SWAP1 POP JUMP JUMPDEST PUSH0 DUP2 SWAP1 POP SWAP2 SWAP1 POP JUMP JUMPDEST PUSH0 PUSH2 0x6B7 PUSH2 0x6B2 PUSH2 0x6AD DUP5 PUSH2 0x675 JUMP JUMPDEST PUSH2 0x694 JUMP JUMPDEST PUSH2 0x675 JUMP JUMPDEST SWAP1 POP SWAP2 SWAP1 POP JUMP JUMPDEST PUSH0 PUSH2 0x6C8 DUP3 PUSH2 0x69D JUMP JUMPDEST SWAP1 POP SWAP2 SWAP1 POP JUMP JUMPDEST PUSH0 PUSH2 0x6D9 DUP3 PUSH2 0x6BE JUMP JUMPDEST SWAP1 POP SWAP2 SWAP1 POP JUMP JUMPDEST PUSH2 0x6E9 DUP2 PUSH2 0x6CF JUMP JUMPDEST DUP3 MSTORE POP POP JUMP JUMPDEST PUSH0 PUSH1 0x20 DUP3 ADD SWAP1 POP PUSH2 0x702 PUSH0 DUP4 ADD DUP5 PUSH2 0x6E0 JUMP JUMPDEST SWAP3 SWAP2 POP POP JUMP JUMPDEST PUSH32 0x4E487B7100000000000000000000000000000000000000000000000000000000 PUSH0 MSTORE PUSH1 0x32 PUSH1 0x4 MSTORE PUSH1 0x24 PUSH0 REVERT JUMPDEST PUSH0 DUP2 SLOAD SWAP1 POP SWAP2 SWAP1 POP JUMP JUMPDEST PUSH0 DUP2 SWAP1 POP DUP2 PUSH0 MSTORE PUSH1 0x20 PUSH0 KECCAK256 SWAP1 POP SWAP2 SWAP1 POP JUMP JUMPDEST PUSH0 DUP2 PUSH0 SHR SWAP1 POP SWAP2 SWAP1 POP JUMP JUMPDEST PUSH0 DUP2 SWAP1 POP SWAP2 SWAP1 POP JUMP JUMPDEST PUSH0 PUSH2 0x777 PUSH2 0x772 DUP4 PUSH2 0x751 JUMP JUMPDEST PUSH2 0x75C JUMP JUMPDEST SWAP1 POP SWAP2 SWAP1 POP JUMP JUMPDEST PUSH0 PUSH2 0x789 DUP3 SLOAD PUSH2 0x765 JUMP JUMPDEST SWAP1 POP SWAP2 SWAP1 POP JUMP JUMPDEST PUSH0 PUSH1 0x1 DUP3 ADD SWAP1 POP SWAP2 SWAP1 POP JUMP JUMPDEST PUSH0 PUSH2 0x7A6 DUP3 PUSH2 0x735 JUMP JUMPDEST PUSH2 0x7B0 DUP2 DUP6 PUSH2 0x5A8 JUMP JUMPDEST SWAP4 POP PUSH2 0x7BB DUP4 PUSH2 0x73F JUMP JUMPDEST DUP1 PUSH0 JUMPDEST DUP4 DUP2 LT ISZERO PUSH2 0x7F2 JUMPI PUSH2 0x7CF DUP3 PUSH2 0x77E JUMP JUMPDEST PUSH2 0x7D9 DUP9 DUP3 PUSH2 0x5D6 JUMP JUMPDEST SWAP8 POP PUSH2 0x7E4 DUP4 PUSH2 0x790 JUMP JUMPDEST SWAP3 POP POP PUSH1 0x1 DUP2 ADD SWAP1 POP PUSH2 0x7BE JUMP JUMPDEST POP DUP6 SWAP4 POP POP POP POP SWAP3 SWAP2 POP POP JUMP JUMPDEST PUSH0 PUSH1 0x20 DUP3 ADD SWAP1 POP DUP2 DUP2 SUB PUSH0 DUP4 ADD MSTORE PUSH2 0x817 DUP2 DUP5 PUSH2 0x79C JUMP JUMPDEST SWAP1 POP SWAP3 SWAP2 POP POP JUMP JUMPDEST PUSH0 DUP2 MLOAD SWAP1 POP PUSH2 0x82D DUP2 PUSH2 0x39F JUMP JUMPDEST SWAP3 SWAP2 POP POP JUMP JUMPDEST PUSH0 PUSH2 0x845 PUSH2 0x840 DUP5 PUSH2 0x455 JUMP JUMPDEST PUSH2 0x43B JUMP JUMPDEST SWAP1 POP DUP1 DUP4 DUP3 MSTORE PUSH1 0x20 DUP3 ADD SWAP1 POP PUSH1 0x20 DUP5 MUL DUP4 ADD DUP6 DUP2 GT ISZERO PUSH2 0x868 JUMPI PUSH2 0x867 PUSH2 0x480 JUMP JUMPDEST JUMPDEST DUP4 JUMPDEST DUP2 DUP2 LT ISZERO PUSH2 0x891 JUMPI DUP1 PUSH2 0x87D DUP9 DUP3 PUSH2 0x81F JUMP JUMPDEST DUP5 MSTORE PUSH1 0x20 DUP5 ADD SWAP4 POP POP PUSH1 0x20 DUP2 ADD SWAP1 POP PUSH2 0x86A JUMP JUMPDEST POP POP POP SWAP4 SWAP3 POP POP POP JUMP JUMPDEST PUSH0 DUP3 PUSH1 0x1F DUP4 ADD SLT PUSH2 0x8AF JUMPI PUSH2 0x8AE PUSH2 0x3C9 JUMP JUMPDEST JUMPDEST DUP2 MLOAD PUSH2 0x8BF DUP5 DUP3 PUSH1 0x20 DUP7 ADD PUSH2 0x833 JUMP JUMPDEST SWAP2 POP POP SWAP3 SWAP2 POP POP JUMP JUMPDEST PUSH0 PUSH1 0x20 DUP3 DUP5 SUB SLT ISZERO PUSH2 0x8DD JUMPI PUSH2 0x8DC PUSH2 0x38E JUMP JUMPDEST JUMPDEST PUSH0 DUP3 ADD MLOAD PUSH8 0xFFFFFFFFFFFFFFFF DUP2 GT ISZERO PUSH2 0x8FA JUMPI PUSH2 0x8F9 PUSH2 0x392 JUMP JUMPDEST JUMPDEST PUSH2 0x906 DUP5 DUP3 DUP6 ADD PUSH2 0x89B JUMP JUMPDEST SWAP2 POP POP SWAP3 SWAP2 POP POP JUMP INVALID PUSH1 0x80 PUSH1 0x40 MSTORE CALLVALUE DUP1 ISZERO PUSH1 0xE JUMPI PUSH0 PUSH0 REVERT JUMPDEST POP PUSH2 0xB80 DUP1 PUSH2 0x1C PUSH0 CODECOPY PUSH0 RETURN INVALID PUSH1 0x80 PUSH1 0x40 MSTORE CALLVALUE DUP1 ISZERO PUSH2 0xF JUMPI PUSH0 PUSH0 REVERT JUMPDEST POP PUSH1 0x4 CALLDATASIZE LT PUSH2 0x55 JUMPI PUSH0 CALLDATALOAD PUSH1 0xE0 SHR DUP1 PUSH4 0x6BD010D EQ PUSH2 0x59 JUMPI DUP1 PUSH4 0x2E64CEC1 EQ PUSH2 0x75 JUMPI DUP1 PUSH4 0x5B54633C EQ PUSH2 0x93 JUMPI DUP1 PUSH4 0x8BAB8DD5 EQ PUSH2 0xAF JUMPI DUP1 PUSH4 0x9E7A13AD EQ PUSH2 0xDF JUMPI JUMPDEST PUSH0 PUSH0 REVERT JUMPDEST PUSH2 0x73 PUSH1 0x4 DUP1 CALLDATASIZE SUB DUP2 ADD SWAP1 PUSH2 0x6E SWAP2 SWAP1 PUSH2 0x4DE JUMP JUMPDEST PUSH2 0x110 JUMP JUMPDEST STOP JUMPDEST PUSH2 0x7D PUSH2 0x129 JUMP JUMPDEST PUSH1 0x40 MLOAD PUSH2 0x8A SWAP2 SWAP1 PUSH2 0x5DC JUMP JUMPDEST PUSH1 0x40 MLOAD DUP1 SWAP2 SUB SWAP1 RETURN JUMPDEST PUSH2 0xAD PUSH1 0x4 DUP1 CALLDATASIZE SUB DUP2 ADD SWAP1 PUSH2 0xA8 SWAP2 SWAP1 PUSH2 0x6AC JUMP JUMPDEST PUSH2 0x17E JUMP JUMPDEST STOP JUMPDEST PUSH2 0xC9 PUSH1 0x4 DUP1 CALLDATASIZE SUB DUP2 ADD SWAP1 PUSH2 0xC4 SWAP2 SWAP1 PUSH2 0x706 JUMP JUMPDEST PUSH2 0x202 JUMP JUMPDEST PUSH1 0x40 MLOAD PUSH2 0xD6 SWAP2 SWAP1 PUSH2 0x75C JUMP JUMPDEST PUSH1 0x40 MLOAD DUP1 SWAP2 SUB SWAP1 RETURN JUMPDEST PUSH2 0xF9 PUSH1 0x4 DUP1 CALLDATASIZE SUB DUP2 ADD SWAP1 PUSH2 0xF4 SWAP2 SWAP1 PUSH2 0x775 JUMP JUMPDEST PUSH2 0x22F JUMP JUMPDEST PUSH1 0x40 MLOAD PUSH2 0x107 SWAP3 SWAP2 SWAP1 PUSH2 0x800 JUMP JUMPDEST PUSH1 0x40 MLOAD DUP1 SWAP2 SUB SWAP1 RETURN JUMPDEST DUP1 PUSH0 SWAP1 DUP1 MLOAD SWAP1 PUSH1 0x20 ADD SWAP1 PUSH2 0x125 SWAP3 SWAP2 SWAP1 PUSH2 0x2E4 JUMP JUMPDEST POP POP JUMP JUMPDEST PUSH1 0x60 PUSH0 DUP1 SLOAD DUP1 PUSH1 0x20 MUL PUSH1 0x20 ADD PUSH1 0x40 MLOAD SWAP1 DUP2 ADD PUSH1 0x40 MSTORE DUP1 SWAP3 SWAP2 SWAP1 DUP2 DUP2 MSTORE PUSH1 0x20 ADD DUP3 DUP1 SLOAD DUP1 ISZERO PUSH2 0x174 JUMPI PUSH1 0x20 MUL DUP3 ADD SWAP2 SWAP1 PUSH0 MSTORE PUSH1 0x20 PUSH0 KECCAK256 SWAP1 JUMPDEST DUP2 SLOAD DUP2 MSTORE PUSH1 0x20 ADD SWAP1 PUSH1 0x1 ADD SWAP1 DUP1 DUP4 GT PUSH2 0x160 JUMPI JUMPDEST POP POP POP POP POP SWAP1 POP SWAP1 JUMP JUMPDEST PUSH1 0x1 PUSH1 0x40 MLOAD DUP1 PUSH1 0x40 ADD PUSH1 0x40 MSTORE DUP1 DUP4 DUP2 MSTORE PUSH1 0x20 ADD DUP5 DUP2 MSTORE POP SWAP1 DUP1 PUSH1 0x1 DUP2 SLOAD ADD DUP1 DUP3 SSTORE DUP1 SWAP2 POP POP PUSH1 0x1 SWAP1 SUB SWAP1 PUSH0 MSTORE PUSH1 0x20 PUSH0 KECCAK256 SWAP1 PUSH1 0x2 MUL ADD PUSH0 SWAP1 SWAP2 SWAP1 SWAP2 SWAP1 SWAP2 POP PUSH0 DUP3 ADD MLOAD DUP2 PUSH0 ADD SSTORE PUSH1 0x20 DUP3 ADD MLOAD DUP2 PUSH1 0x1 ADD SWAP1 DUP2 PUSH2 0x1D8 SWAP2 SWAP1 PUSH2 0xA2B JUMP JUMPDEST POP POP POP DUP1 PUSH1 0x2 DUP4 PUSH1 0x40 MLOAD PUSH2 0x1EC SWAP2 SWAP1 PUSH2 0xB34 JUMP JUMPDEST SWAP1 DUP2 MSTORE PUSH1 0x20 ADD PUSH1 0x40 MLOAD DUP1 SWAP2 SUB SWAP1 KECCAK256 DUP2 SWAP1 SSTORE POP POP POP JUMP JUMPDEST PUSH1 0x2 DUP2 DUP1 MLOAD PUSH1 0x20 DUP2 ADD DUP3 ADD DUP1 MLOAD DUP5 DUP3 MSTORE PUSH1 0x20 DUP4 ADD PUSH1 0x20 DUP6 ADD KECCAK256 DUP2 DUP4 MSTORE DUP1 SWAP6 POP POP POP POP POP POP PUSH0 SWAP2 POP SWAP1 POP SLOAD DUP2 JUMP JUMPDEST PUSH1 0x1 DUP2 DUP2 SLOAD DUP2 LT PUSH2 0x23E JUMPI PUSH0 DUP1 REVERT JUMPDEST SWAP1 PUSH0 MSTORE PUSH1 0x20 PUSH0 KECCAK256 SWAP1 PUSH1 0x2 MUL ADD PUSH0 SWAP2 POP SWAP1 POP DUP1 PUSH0 ADD SLOAD SWAP1 DUP1 PUSH1 0x1 ADD DUP1 SLOAD PUSH2 0x263 SWAP1 PUSH2 0x85B JUMP JUMPDEST DUP1 PUSH1 0x1F ADD PUSH1 0x20 DUP1 SWAP2 DIV MUL PUSH1 0x20 ADD PUSH1 0x40 MLOAD SWAP1 DUP2 ADD PUSH1 0x40 MSTORE DUP1 SWAP3 SWAP2 SWAP1 DUP2 DUP2 MSTORE PUSH1 0x20 ADD DUP3 DUP1 SLOAD PUSH2 0x28F SWAP1 PUSH2 0x85B JUMP JUMPDEST DUP1 ISZERO PUSH2 0x2DA JUMPI DUP1 PUSH1 0x1F LT PUSH2 0x2B1 JUMPI PUSH2 0x100 DUP1 DUP4 SLOAD DIV MUL DUP4 MSTORE SWAP2 PUSH1 0x20 ADD SWAP2 PUSH2 0x2DA JUMP JUMPDEST DUP3 ADD SWAP2 SWAP1 PUSH0 MSTORE PUSH1 0x20 PUSH0 KECCAK256 SWAP1 JUMPDEST DUP2 SLOAD DUP2 MSTORE SWAP1 PUSH1 0x1 ADD SWAP1 PUSH1 0x20 ADD DUP1 DUP4 GT PUSH2 0x2BD JUMPI DUP3 SWAP1 SUB PUSH1 0x1F AND DUP3 ADD SWAP2 JUMPDEST POP POP POP POP POP SWAP1 POP DUP3 JUMP JUMPDEST DUP3 DUP1 SLOAD DUP3 DUP3 SSTORE SWAP1 PUSH0 MSTORE PUSH1 0x20 PUSH0 KECCAK256 SWAP1 DUP2 ADD SWAP3 DUP3 ISZERO PUSH2 0x31E JUMPI SWAP2 PUSH1 0x20 MUL DUP3 ADD JUMPDEST DUP3 DUP2 GT ISZERO PUSH2 0x31D JUMPI DUP3 MLOAD DUP3 SSTORE SWAP2 PUSH1 0x20 ADD SWAP2 SWAP1 PUSH1 0x1 ADD SWAP1 PUSH2 0x302 JUMP JUMPDEST JUMPDEST POP SWAP1 POP PUSH2 0x32B SWAP2 SWAP1 PUSH2 0x32F JUMP JUMPDEST POP SWAP1 JUMP JUMPDEST JUMPDEST DUP1 DUP3 GT ISZERO PUSH2 0x346 JUMPI PUSH0 DUP2 PUSH0 SWAP1 SSTORE POP PUSH1 0x1 ADD PUSH2 0x330 JUMP JUMPDEST POP SWAP1 JUMP JUMPDEST PUSH0 PUSH1 0x40 MLOAD SWAP1 POP SWAP1 JUMP JUMPDEST PUSH0 PUSH0 REVERT JUMPDEST PUSH0 PUSH0 REVERT JUMPDEST PUSH0 PUSH0 REVERT JUMPDEST PUSH0 PUSH1 0x1F NOT PUSH1 0x1F DUP4 ADD AND SWAP1 POP SWAP2 SWAP1 POP JUMP JUMPDEST PUSH32 0x4E487B7100000000000000000000000000000000000000000000000000000000 PUSH0 MSTORE PUSH1 0x41 PUSH1 0x4 MSTORE PUSH1 0x24 PUSH0 REVERT JUMPDEST PUSH2 0x3A5 DUP3 PUSH2 0x35F JUMP JUMPDEST DUP2 ADD DUP2 DUP2 LT PUSH8 0xFFFFFFFFFFFFFFFF DUP3 GT OR ISZERO PUSH2 0x3C4 JUMPI PUSH2 0x3C3 PUSH2 0x36F JUMP JUMPDEST JUMPDEST DUP1 PUSH1 0x40 MSTORE POP POP POP JUMP JUMPDEST PUSH0 PUSH2 0x3D6 PUSH2 0x34A JUMP JUMPDEST SWAP1 POP PUSH2 0x3E2 DUP3 DUP3 PUSH2 0x39C JUMP JUMPDEST SWAP2 SWAP1 POP JUMP JUMPDEST PUSH0 PUSH8 0xFFFFFFFFFFFFFFFF DUP3 GT ISZERO PUSH2 0x401 JUMPI PUSH2 0x400 PUSH2 0x36F JUMP JUMPDEST JUMPDEST PUSH1 0x20 DUP3 MUL SWAP1 POP PUSH1 0x20 DUP2 ADD SWAP1 POP SWAP2 SWAP1 POP JUMP JUMPDEST PUSH0 PUSH0 REVERT JUMPDEST PUSH0 DUP2 SWAP1 POP SWAP2 SWAP1 POP JUMP JUMPDEST PUSH2 0x428 DUP2 PUSH2 0x416 JUMP JUMPDEST DUP2 EQ PUSH2 0x432 JUMPI PUSH0 PUSH0 REVERT JUMPDEST POP JUMP JUMPDEST PUSH0 DUP2 CALLDATALOAD SWAP1 POP PUSH2 0x443 DUP2 PUSH2 0x41F JUMP JUMPDEST SWAP3 SWAP2 POP POP JUMP JUMPDEST PUSH0 PUSH2 0x45B PUSH2 0x456 DUP5 PUSH2 0x3E7 JUMP JUMPDEST PUSH2 0x3CD JUMP JUMPDEST SWAP1 POP DUP1 DUP4 DUP3 MSTORE PUSH1 0x20 DUP3 ADD SWAP1 POP PUSH1 0x20 DUP5 MUL DUP4 ADD DUP6 DUP2 GT ISZERO PUSH2 0x47E JUMPI PUSH2 0x47D PUSH2 0x412 JUMP JUMPDEST JUMPDEST DUP4 JUMPDEST DUP2 DUP2 LT ISZERO PUSH2 0x4A7 JUMPI DUP1 PUSH2 0x493 DUP9 DUP3 PUSH2 0x435 JUMP JUMPDEST DUP5 MSTORE PUSH1 0x20 DUP5 ADD SWAP4 POP POP PUSH1 0x20 DUP2 ADD SWAP1 POP PUSH2 0x480 JUMP JUMPDEST POP POP POP SWAP4 SWAP3 POP POP POP JUMP JUMPDEST PUSH0 DUP3 PUSH1 0x1F DUP4 ADD SLT PUSH2 0x4C5 JUMPI PUSH2 0x4C4 PUSH2 0x35B JUMP JUMPDEST JUMPDEST DUP2 CALLDATALOAD PUSH2 0x4D5 DUP5 DUP3 PUSH1 0x20 DUP7 ADD PUSH2 0x449 JUMP JUMPDEST SWAP2 POP POP SWAP3 SWAP2 POP POP JUMP JUMPDEST PUSH0 PUSH1 0x20 DUP3 DUP5 SUB SLT ISZERO PUSH2 0x4F3 JUMPI PUSH2 0x4F2 PUSH2 0x353 JUMP JUMPDEST JUMPDEST PUSH0 DUP3 ADD CALLDATALOAD PUSH8 0xFFFFFFFFFFFFFFFF DUP2 GT ISZERO PUSH2 0x510 JUMPI PUSH2 0x50F PUSH2 0x357 JUMP JUMPDEST JUMPDEST PUSH2 0x51C DUP5 DUP3 DUP6 ADD PUSH2 0x4B1 JUMP JUMPDEST SWAP2 POP POP SWAP3 SWAP2 POP POP JUMP JUMPDEST PUSH0 DUP2 MLOAD SWAP1 POP SWAP2 SWAP1 POP JUMP JUMPDEST PUSH0 DUP3 DUP3 MSTORE PUSH1 0x20 DUP3 ADD SWAP1 POP SWAP3 SWAP2 POP POP JUMP JUMPDEST PUSH0 DUP2 SWAP1 POP PUSH1 0x20 DUP3 ADD SWAP1 POP SWAP2 SWAP1 POP JUMP JUMPDEST PUSH2 0x557 DUP2 PUSH2 0x416 JUMP JUMPDEST DUP3 MSTORE POP POP JUMP JUMPDEST PUSH0 PUSH2 0x568 DUP4 DUP4 PUSH2 0x54E JUMP JUMPDEST PUSH1 0x20 DUP4 ADD SWAP1 POP SWAP3 SWAP2 POP POP JUMP JUMPDEST PUSH0 PUSH1 0x20 DUP3 ADD SWAP1 POP SWAP2 SWAP1 POP JUMP JUMPDEST PUSH0 PUSH2 0x58A DUP3 PUSH2 0x525 JUMP JUMPDEST PUSH2 0x594 DUP2 DUP6 PUSH2 0x52F JUMP JUMPDEST SWAP4 POP PUSH2 0x59F DUP4 PUSH2 0x53F JUMP JUMPDEST DUP1 PUSH0 JUMPDEST DUP4 DUP2 LT ISZERO PUSH2 0x5CF JUMPI DUP2 MLOAD PUSH2 0x5B6 DUP9 DUP3 PUSH2 0x55D JUMP JUMPDEST SWAP8 POP PUSH2 0x5C1 DUP4 PUSH2 0x574 JUMP JUMPDEST SWAP3 POP POP PUSH1 0x1 DUP2 ADD SWAP1 POP PUSH2 0x5A2 JUMP JUMPDEST POP DUP6 SWAP4 POP POP POP POP SWAP3 SWAP2 POP POP JUMP JUMPDEST PUSH0 PUSH1 0x20 DUP3 ADD SWAP1 POP DUP2 DUP2 SUB PUSH0 DUP4 ADD MSTORE PUSH2 0x5F4 DUP2 DUP5 PUSH2 0x580 JUMP JUMPDEST SWAP1 POP SWAP3 SWAP2 POP POP JUMP JUMPDEST PUSH0 PUSH0 REVERT JUMPDEST PUSH0 PUSH8 0xFFFFFFFFFFFFFFFF DUP3 GT ISZERO PUSH2 0x61A JUMPI PUSH2 0x619 PUSH2 0x36F JUMP JUMPDEST JUMPDEST PUSH2 0x623 DUP3 PUSH2 0x35F JUMP JUMPDEST SWAP1 POP PUSH1 0x20 DUP2 ADD SWAP1 POP SWAP2 SWAP1 POP JUMP JUMPDEST DUP3 DUP2 DUP4 CALLDATACOPY PUSH0 DUP4 DUP4 ADD MSTORE POP POP POP JUMP JUMPDEST PUSH0 PUSH2 0x650 PUSH2 0x64B DUP5 PUSH2 0x600 JUMP JUMPDEST PUSH2 0x3CD JUMP JUMPDEST SWAP1 POP DUP3 DUP2 MSTORE PUSH1 0x20 DUP2 ADD DUP5 DUP5 DUP5 ADD GT ISZERO PUSH2 0x66C JUMPI PUSH2 0x66B PUSH2 0x5FC JUMP JUMPDEST JUMPDEST PUSH2 0x677 DUP5 DUP3 DUP6 PUSH2 0x630 JUMP JUMPDEST POP SWAP4 SWAP3 POP POP POP JUMP JUMPDEST PUSH0 DUP3 PUSH1 0x1F DUP4 ADD SLT PUSH2 0x693 JUMPI PUSH2 0x692 PUSH2 0x35B JUMP JUMPDEST JUMPDEST DUP2 CALLDATALOAD PUSH2 0x6A3 DUP5 DUP3 PUSH1 0x20 DUP7 ADD PUSH2 0x63E JUMP JUMPDEST SWAP2 POP POP SWAP3 SWAP2 POP POP JUMP JUMPDEST PUSH0 PUSH0 PUSH1 0x40 DUP4 DUP6 SUB SLT ISZERO PUSH2 0x6C2 JUMPI PUSH2 0x6C1 PUSH2 0x353 JUMP JUMPDEST JUMPDEST PUSH0 DUP4 ADD CALLDATALOAD PUSH8 0xFFFFFFFFFFFFFFFF DUP2 GT ISZERO PUSH2 0x6DF JUMPI PUSH2 0x6DE PUSH2 0x357 JUMP JUMPDEST JUMPDEST PUSH2 0x6EB DUP6 DUP3 DUP7 ADD PUSH2 0x67F JUMP JUMPDEST SWAP3 POP POP PUSH1 0x20 PUSH2 0x6FC DUP6 DUP3 DUP7 ADD PUSH2 0x435 JUMP JUMPDEST SWAP2 POP POP SWAP3 POP SWAP3 SWAP1 POP JUMP JUMPDEST PUSH0 PUSH1 0x20 DUP3 DUP5 SUB SLT ISZERO PUSH2 0x71B JUMPI PUSH2 0x71A PUSH2 0x353 JUMP JUMPDEST JUMPDEST PUSH0 DUP3 ADD CALLDATALOAD PUSH8 0xFFFFFFFFFFFFFFFF DUP2 GT ISZERO PUSH2 0x738 JUMPI PUSH2 0x737 PUSH2 0x357 JUMP JUMPDEST JUMPDEST PUSH2 0x744 DUP5 DUP3 DUP6 ADD PUSH2 0x67F JUMP JUMPDEST SWAP2 POP POP SWAP3 SWAP2 POP POP JUMP JUMPDEST PUSH2 0x756 DUP2 PUSH2 0x416 JUMP JUMPDEST DUP3 MSTORE POP POP JUMP JUMPDEST PUSH0 PUSH1 0x20 DUP3 ADD SWAP1 POP PUSH2 0x76F PUSH0 DUP4 ADD DUP5 PUSH2 0x74D JUMP JUMPDEST SWAP3 SWAP2 POP POP JUMP JUMPDEST PUSH0 PUSH1 0x20 DUP3 DUP5 SUB SLT ISZERO PUSH2 0x78A JUMPI PUSH2 0x789 PUSH2 0x353 JUMP JUMPDEST JUMPDEST PUSH0 PUSH2 0x797 DUP5 DUP3 DUP6 ADD PUSH2 0x435 JUMP JUMPDEST SWAP2 POP POP SWAP3 SWAP2 POP POP JUMP JUMPDEST PUSH0 DUP2 MLOAD SWAP1 POP SWAP2 SWAP1 POP JUMP JUMPDEST PUSH0 DUP3 DUP3 MSTORE PUSH1 0x20 DUP3 ADD SWAP1 POP SWAP3 SWAP2 POP POP JUMP JUMPDEST DUP3 DUP2 DUP4 MCOPY PUSH0 DUP4 DUP4 ADD MSTORE POP POP POP JUMP JUMPDEST PUSH0 PUSH2 0x7D2 DUP3 PUSH2 0x7A0 JUMP JUMPDEST PUSH2 0x7DC DUP2 DUP6 PUSH2 0x7AA JUMP JUMPDEST SWAP4 POP PUSH2 0x7EC DUP2 DUP6 PUSH1 0x20 DUP7 ADD PUSH2 0x7BA JUMP JUMPDEST PUSH2 0x7F5 DUP2 PUSH2 0x35F JUMP JUMPDEST DUP5 ADD SWAP2 POP POP SWAP3 SWAP2 POP POP JUMP JUMPDEST PUSH0 PUSH1 0x40 DUP3 ADD SWAP1 POP PUSH2 0x813 PUSH0 DUP4 ADD DUP6 PUSH2 0x74D JUMP JUMPDEST DUP2 DUP2 SUB PUSH1 0x20 DUP4 ADD MSTORE PUSH2 0x825 DUP2 DUP5 PUSH2 0x7C8 JUMP JUMPDEST SWAP1 POP SWAP4 SWAP3 POP POP POP JUMP JUMPDEST PUSH32 0x4E487B7100000000000000000000000000000000000000000000000000000000 PUSH0 MSTORE PUSH1 0x22 PUSH1 0x4 MSTORE PUSH1 0x24 PUSH0 REVERT JUMPDEST PUSH0 PUSH1 0x2 DUP3 DIV SWAP1 POP PUSH1 0x1 DUP3 AND DUP1 PUSH2 0x872 JUMPI PUSH1 0x7F DUP3 AND SWAP2 POP JUMPDEST PUSH1 0x20 DUP3 LT DUP2 SUB PUSH2 0x885 JUMPI PUSH2 0x884 PUSH2 0x82E JUMP JUMPDEST JUMPDEST POP SWAP2 SWAP1 POP JUMP JUMPDEST PUSH0 DUP2 SWAP1 POP DUP2 PUSH0 MSTORE PUSH1 0x20 PUSH0 KECCAK256 SWAP1 POP SWAP2 SWAP1 POP JUMP JUMPDEST PUSH0 PUSH1 0x20 PUSH1 0x1F DUP4 ADD DIV SWAP1 POP SWAP2 SWAP1 POP JUMP JUMPDEST PUSH0 DUP3 DUP3 SHL SWAP1 POP SWAP3 SWAP2 POP POP JUMP JUMPDEST PUSH0 PUSH1 0x8 DUP4 MUL PUSH2 0x8E7 PUSH32 0xFFFFFFFFFFFFFFFFFFFFFFFFFFFFFFFFFFFFFFFFFFFFFFFFFFFFFFFFFFFFFFFF DUP3 PUSH2 0x8AC JUMP JUMPDEST PUSH2 0x8F1 DUP7 DUP4 PUSH2 0x8AC JUMP JUMPDEST SWAP6 POP DUP1 NOT DUP5 AND SWAP4 POP DUP1 DUP7 AND DUP5 OR SWAP3 POP POP POP SWAP4 SWAP3 POP POP POP JUMP JUMPDEST PUSH0 DUP2 SWAP1 POP SWAP2 SWAP1 POP JUMP JUMPDEST PUSH0 PUSH2 0x92C PUSH2 0x927 PUSH2 0x922 DUP5 PUSH2 0x416 JUMP JUMPDEST PUSH2 0x909 JUMP JUMPDEST PUSH2 0x416 JUMP JUMPDEST SWAP1 POP SWAP2 SWAP1 POP JUMP JUMPDEST PUSH0 DUP2 SWAP1 POP SWAP2 SWAP1 POP JUMP JUMPDEST PUSH2 0x945 DUP4 PUSH2 0x912 JUMP JUMPDEST PUSH2 0x959 PUSH2 0x951 DUP3 PUSH2 0x933 JUMP JUMPDEST DUP5 DUP5 SLOAD PUSH2 0x8B8 JUMP JUMPDEST DUP3 SSTORE POP POP POP POP JUMP JUMPDEST PUSH0 PUSH0 SWAP1 POP SWAP1 JUMP JUMPDEST PUSH2 0x970 PUSH2 0x961 JUMP JUMPDEST PUSH2 0x97B DUP2 DUP5 DUP5 PUSH2 0x93C JUMP JUMPDEST POP POP POP JUMP JUMPDEST JUMPDEST DUP2 DUP2 LT ISZERO PUSH2 0x99E JUMPI PUSH2 0x993 PUSH0 DUP3 PUSH2 0x968 JUMP JUMPDEST PUSH1 0x1 DUP2 ADD SWAP1 POP PUSH2 0x981 JUMP JUMPDEST POP POP JUMP JUMPDEST PUSH1 0x1F DUP3 GT ISZERO PUSH2 0x9E3 JUMPI PUSH2 0x9B4 DUP2 PUSH2 0x88B JUMP JUMPDEST PUSH2 0x9BD DUP5 PUSH2 0x89D JUMP JUMPDEST DUP2 ADD PUSH1 0x20 DUP6 LT ISZERO PUSH2 0x9CC JUMPI DUP2 SWAP1 POP JUMPDEST PUSH2 0x9E0 PUSH2 0x9D8 DUP6 PUSH2 0x89D JUMP JUMPDEST DUP4 ADD DUP3 PUSH2 0x980 JUMP JUMPDEST POP POP JUMPDEST POP POP POP JUMP JUMPDEST PUSH0 DUP3 DUP3 SHR SWAP1 POP SWAP3 SWAP2 POP POP JUMP JUMPDEST PUSH0 PUSH2 0xA03 PUSH0 NOT DUP5 PUSH1 0x8 MUL PUSH2 0x9E8 JUMP JUMPDEST NOT DUP1 DUP4 AND SWAP2 POP POP SWAP3 SWAP2 POP POP JUMP JUMPDEST PUSH0 PUSH2 0xA1B DUP4 DUP4 PUSH2 0x9F4 JUMP JUMPDEST SWAP2 POP DUP3 PUSH1 0x2 MUL DUP3 OR SWAP1 POP SWAP3 SWAP2 POP POP JUMP JUMPDEST PUSH2 0xA34 DUP3 PUSH2 0x7A0 JUMP JUMPDEST PUSH8 0xFFFFFFFFFFFFFFFF DUP2 GT ISZERO PUSH2 0xA4D JUMPI PUSH2 0xA4C PUSH2 0x36F JUMP JUMPDEST JUMPDEST PUSH2 0xA57 DUP3 SLOAD PUSH2 0x85B JUMP JUMPDEST PUSH2 0xA62 DUP3 DUP3 DUP6 PUSH2 0x9A2 JUMP JUMPDEST PUSH0 PUSH1 0x20 SWAP1 POP PUSH1 0x1F DUP4 GT PUSH1 0x1 DUP2 EQ PUSH2 0xA93 JUMPI PUSH0 DUP5 ISZERO PUSH2 0xA81 JUMPI DUP3 DUP8 ADD MLOAD SWAP1 POP JUMPDEST PUSH2 0xA8B DUP6 DUP3 PUSH2 0xA10 JUMP JUMPDEST DUP7 SSTORE POP PUSH2 0xAF2 JUMP JUMPDEST PUSH1 0x1F NOT DUP5 AND PUSH2 0xAA1 DUP7 PUSH2 0x88B JUMP JUMPDEST PUSH0 JUMPDEST DUP3 DUP2 LT ISZERO PUSH2 0xAC8 JUMPI DUP5 DUP10 ADD MLOAD DUP3 SSTORE PUSH1 0x1 DUP3 ADD SWAP2 POP PUSH1 0x20 DUP6 ADD SWAP5 POP PUSH1 0x20 DUP2 ADD SWAP1 POP PUSH2 0xAA3 JUMP JUMPDEST DUP7 DUP4 LT ISZERO PUSH2 0xAE5 JUMPI DUP5 DUP10 ADD MLOAD PUSH2 0xAE1 PUSH1 0x1F DUP10 AND DUP3 PUSH2 0x9F4 JUMP JUMPDEST DUP4 SSTORE POP JUMPDEST PUSH1 0x1 PUSH1 0x2 DUP9 MUL ADD DUP9 SSTORE POP POP POP JUMPDEST POP POP POP POP POP POP JUMP JUMPDEST PUSH0 DUP2 SWAP1 POP SWAP3 SWAP2 POP POP JUMP JUMPDEST PUSH0 PUSH2 0xB0E DUP3 PUSH2 0x7A0 JUMP JUMPDEST PUSH2 0xB18 DUP2 DUP6 PUSH2 0xAFA JUMP JUMPDEST SWAP4 POP PUSH2 0xB28 DUP2 DUP6 PUSH1 0x20 DUP7 ADD PUSH2 0x7BA JUMP JUMPDEST DUP1 DUP5 ADD SWAP2 POP POP SWAP3 SWAP2 POP POP JUMP JUMPDEST PUSH0 PUSH2 0xB3F DUP3 DUP5 PUSH2 0xB04 JUMP JUMPDEST SWAP2 POP DUP2 SWAP1 POP SWAP3 SWAP2 POP POP JUMP INVALID LOG2 PUSH5 0x6970667358 0x22 SLT KECCAK256 DUP10 0xE SWAP16 SWAPN 0xE8 RETURNCONTRACT 0xC7 0x1F 0xDF SHR SWAPN 0x15 GT SWAP5 0xB2 0xA6 0x4F CODECOPY 0xC1 CALLDATASIZE ORIGIN 0xBD DUP7 EXTCODECOPY SWAP12 ORIGIN RETURN BASEFEE SWAP14 KECCAK256 PUSH20 0x6564736F6C634300081E0033A264697066735822 SLT KECCAK256 EQ SHL GASPRICE PUSH1 0x7C PUSH20 0x7FA911F0B1E98BB92D7F4D45E19695DD2063C612 0xEB 0xD 0xA5 0x2A EXTCODEHASH 0x27 PUSH5 0x736F6C6343 STOP ADDMOD 0x1E STOP CALLER "
				},
				"gasEstimates": {
					"creation": {
						"codeDepositCost": "1069000",
						"executionCost": "1112",
						"totalCost": "1070112"
					},
					"external": {
						"createSimpleStorageContract()": "infinite",
						"listOfSimpleStorageContracts(uint256)": "infinite",
						"sfGet(uint256)": "infinite",
						"sfStore(uint256,uint256[])": "infinite"
					}
				},
				"methodIdentifiers": {
					"createSimpleStorageContract()": "1dda6541",
					"listOfSimpleStorageContracts(uint256)": "f39f3035",
					"sfGet(uint256)": "c5f19c20",
					"sfStore(uint256,uint256[])": "4a999e67"
				}
			},
			"storageLayout": {
				"storage": [
					{
						"astId": 69,
						"contract": "contracts/storageFactory.sol:storageFactory",
						"label": "listOfSimpleStorageContracts",
						"offset": 0,
						"slot": "0",
						"type": "t_array(t_contract(SimpleStorage)61)dyn_storage"
					},
					{
						"astId": 72,
						"contract": "contracts/storageFactory.sol:storageFactory",
						"label": "arrayOfNumbers",
						"offset": 0,
						"slot": "1",
						"type": "t_array(t_uint256)dyn_storage"
					}
				],
				"types": {
					"t_array(t_contract(SimpleStorage)61)dyn_storage": {
						"base": "t_contract(SimpleStorage)61",
						"encoding": "dynamic_array",
						"label": "contract SimpleStorage[]",
						"numberOfBytes": "32"
					},
					"t_array(t_uint256)dyn_storage": {
						"base": "t_uint256",
						"encoding": "dynamic_array",
						"label": "uint256[]",
						"numberOfBytes": "32"
					},
					"t_contract(SimpleStorage)61": {
						"encoding": "inplace",
						"label": "contract SimpleStorage",
						"numberOfBytes": "20"
					},
					"t_uint256": {
						"encoding": "inplace",
						"label": "uint256",
						"numberOfBytes": "32"
					}
				}
			},
			"userdoc": {
				"kind": "user",
				"methods": {},
				"version": 1
			}
		}
	}
}